:100000000C94170F0C94480F0C94480F0C94480F45
:100010000C94480F0C94480F0C94480F0C94480F04
:100020000C94480F0C94480F0C94480F0C94480FF4
:100030000C94480F0C9499B20C94480F0C94480FF0
:100040000C94480F0C9485470C94480F0C94480F5F
:100050000C94480F0C94480F0C9483450C9444ADB9
:100060000C94480F0C945DA00C94480F0C94480F0E
:100070000C94480F0C94480F0C94480F0C94480FA4
:100080000C94480F0C94480F0C94480F0C94480F94
:100090000C94480F0C94480F0C94480F0C9497A99B
:1000A0000C94480F0C94480F0C94480F0C94480F74
:1000B0000C94480F0C94480F0C94480F0C94480F64
:1000C0000C94480F0C94480F0C94480F0C94480F54
:1000D0000C94480F0C94480F0C94480F0C94480F44
:1000E0000C94480FCC45DB45F745064620462F4685
:1000F00049464D465546208920892B892B892B89D5
:100100003689368936894B89418941894189A4AC30
:10011000A9ACAEACB8ACC2AC3BADCCACD4ACDCACF6
:10012000E6ACF0ACFAAC09AD13AD3BAD1DAD27ADFF
:1001300031AD68AE6BAE5AAE5EAE64AEA2AE6FAE1F
:1001400073AE79AE7DAE81AE87AE8BAE8FAEA2AE12
:1001500095AE99AE9DAE084AD73B3BCE016E84BCAE
:10016000BFFDC12F3D6C74319ABD56833DDA3D0011
:10017000C77F11BED9E4BB4C3E916BAAAABE00005A
:1001800000803F05A84CCDB2D44EB93836A9020C38
:1001900050B9918688083CA6AAAA2ABE0000008011
:1001A0003F0043617274616F2072656D6F766964A0
:1001B0006F0043617274616F20696E736572696468
:1001C0006F002D2D3A2D2D002D2D2D005344002094
:1001D00059000120004D3630300054726F63617257
:1001E0002046696C616D656E746F00466C75786F42
:1001F000303A00466C75786F303A00466C75786F0F
:100200003A00466C75786F3A0056656C6F632E2025
:1002100076656E74696C61646F720056656C6F63AD
:100220002E2076656E74696C61646F7200024E6F89
:100230007A7A6C653A00024E6F7A7A6C653A0056AB
:10024000656C6F6369646164653A0056656C6F63E1
:1002500069646164653A00204D656E75207072694D
:100260006E636970616C200300580059005A0045A4
:1002700078747275646572004578747275736F7204
:10028000004D6F7665205A004D6F76652059004D00
:100290006F76652058004D6F766572206569786FBE
:1002A0002020202020207E004D6F766520302E31CA
:1002B0006D6D004D6F766520316D6D004D6F76650B
:1002C0002031306D6D005072657061726172207EF8
:1002D000004D6F766572206569786F2020202020A0
:1002E000207E004D3830004C6967617220456E6594
:1002F00072676961004D3831004465736C696761EC
:100300007220456E65726769610045736672696146
:1003100072005072652D617175656365722041428E
:1003200053005072652D6171756563657220504C84
:1003300041004732380049722070617261206F724B
:100340006967656D004D3834004465736C69676199
:1003500072206D6F746F72657300204D656E75202D
:100360007072696E636970616C2003004775617219
:10037000646172206D656D6F72696100024E6F7A03
:100380007A6C653A00024E6F7A7A6C653A0056656F
:100390006C6F632E2076656E74696C61646F720099
:1003A00056656C6F632E2076656E74696C61646F40
:1003B000720054656D706572617475726100477585
:1003C0006172646172206D656D6F72696100024EC9
:1003D0006F7A7A6C653A00024E6F7A7A6C653A00F1
:1003E00056656C6F632E2076656E74696C61646F00
:1003F000720056656C6F632E2076656E74696C6151
:10040000646F720054656D7065726174757261001D
:1004100020416A75737465732041425300416A75C7
:100420007374657320504C41005049442D433A2069
:10043000005049442D433A20005049442D443A206D
:10044000005049442D443A20005049442D493A2057
:10045000005049442D493A20005049442D503A203B
:10046000005049442D503A200056656C6F632E2091
:1004700076656E74696C61646F720056656C6F634B
:100480002E2076656E74696C61646F7200024E6F27
:100490007A7A6C653A00024E6F7A7A6C653A00435C
:1004A0006F6E74726F6C6520030045706173736FBB
:1004B0002F6D6D3A0045706173736F2F6D6D3A004B
:1004C0005A706173736F2F6D6D3A005A7061737358
:1004D0006F2F6D6D3A0059706173736F2F6D6D3AA8
:1004E0000059706173736F2F6D6D3A0058706173AE
:1004F000736F2F6D6D3A0058706173736F2F6D6D50
:100500003A00412D726574726163743A00412D7234
:100510006574726163743A00416D617820653A00D8
:10052000416D617820653A00416D6178207A3A002A
:10053000416D6178207A3A00416D617820793A0006
:10054000416D617820793A00416D617820783A00F8
:10055000416D617820783A005654726176206D6959
:100560006E3A005654726176206D696E3A00566D8F
:10057000696E3A00566D696E3A0020566D617820BA
:10058000653A0020566D617820653A0020566D610D
:1005900078207A3A0020566D6178207A3A00205609
:1005A0006D617820793A0020566D617820793A00A3
:1005B00020566D617820783A0020566D6178207859
:1005C0003A0056652D6A65726B0056652D6A657234
:1005D0006B00567A2D6A65726B00567A2D6A6572C9
:1005E0006B005678792D6A65726B3A2000567879DF
:1005F0002D6A65726B3A20004163633A0041636380
:100600003A00436F6E74726F6C652003004E6F7614
:1006100020313320323031352031303A33323A33E1
:10062000370047697468756220636865636B6F752E
:1006300074004465736B626F783A204445560056E7
:10064000657273616F204669726D776172650056DD
:10065000657273616F204669726D776172650052D1
:100660006573742E20646520656D657267656E2EF6
:10067000004361727265676172206D656D6F7269AA
:10068000610047756172646172206D656D6F72699A
:1006900061004D6F76696D656E746F0054656D70A5
:1006A0006572617475726100204D656E752070729F
:1006B000696E636970616C2003004D3834205820E6
:1006C00059205A2045004D3234004D3233202573D5
:1006D00000052E2E00204D656E75207072696E63C8
:1006E0006970616C20030053656D206361727461F1
:1006F0006F205344004D656E752063617274616FA5
:1007000020534400506172617220696D707265738C
:1007100073616F005265746F6D617220696D7072E4
:10072000657373616F0050617573617220696D70DC
:1007300072657373616F00436F6E74726F6C6520C6
:1007400003005072657061726172207E0054756E94
:1007500065202020207E004D6F6E69746F7261727B
:1007600020202003004572723A204D494E54454DD9
:1007700050003A2045787472756465722073776909
:100780007463686564206F66662E204D494E54453B
:100790004D50207472696767657265642021004559
:1007A00072723A204D415854454D50003A204578D8
:1007B0007472756465722073776974636865642008
:1007C0006F66662E204D415854454D502074726915
:1007D00067676572656420210048656174696E67AA
:1007E000206661696C656400202D20496E76616C1D
:1007F0006964206578747275646572206E756D62C7
:100800006572202100504944204175746F74756EE3
:10081000652066696E69736865642120507574206F
:10082000746865206C617374204B702C204B6920B8
:10083000616E64204B6420636F6E7374616E7473B9
:100840002066726F6D2061626F766520696E746FCD
:1008500020436F6E66696775726174696F6E2E688A
:1008600000504944204175746F74756E652066614F
:10087000696C6564212074696D656F757400204032
:100880003A006F6B20543A006F6B20423A00504997
:1008900044204175746F74756E65206661696C657E
:1008A00064212054656D7065726174757265207481
:1008B0006F6F206869676800204B643A2000204B06
:1008C000693A2000204B703A200020436C6173731A
:1008D00069632050494420002054753A2000204B81
:1008E000753A2000206D61783A2000206D696E3ADB
:1008F000200020643A200020626961733A2000657C
:1009000063686F3A004572726F723A004F20706FE1
:100910006E746F2066696E616C20666F6920746FFB
:100920006361646F3A205A00205A3A004F20706F7A
:100930006E746F2066696E616C20666F6920746FDB
:100940006361646F3A20590020593A004F20706F5C
:100950006E746F2066696E616C20666F6920746FBB
:100960006361646F3A20580020583A004F20706F3E
:100970006E746F2066696E616C20666F6920746F9B
:100980006361646F3A200024F4D43050C38E20C2D7
:10099000A24017828B7011127A910D816CD90AA82E
:1009A00061E108C7586607615143061E4B5D05C1EA
:1009B00045A7041A411104093D98037139310340D8
:1009C00036DB0265339102D4305402802E1D02635F
:1009D0002CEE01752AC501B028A001102781018FD6
:1009E0002564012B244B01E0223401AC211F018D31
:1009F000200D01801FFC00841EED00971DDF00B854
:100A00001CD200E61BC600201BBC00641AB200B258
:100A100019A8000A19A0006A189900D1179100407E
:100A2000178B00B516840031167E00B31579003A95
:100A3000157300C7146F0058146A00EE136600881F
:100A400013630025135E00C7125B006C125700157C
:100A5000125400C111510070114F0021114B00D6EA
:100A60001049008D1047004610440002104200C09B
:100A70000F4000800F3E00420F3C00060F3B00CBB2
:100A80000E3800930E37005C0E3500270E3400F34D
:100A90000D3200C10D3100900D3000600D2E00327E
:100AA0000D2D00050D2C00D90C2B00AE0C29008556
:100AB0000C29005C0C2700350C27000E0C2600E8E2
:100AC0000B2400C40B2400A00B23007D0B23005A31
:100AD0000B2100390B2100180B2000F80A1F00D948
:100AE0000A1E00BB0A1E009D0A1D00800A1D00632D
:100AF0000A1C00470A1B002C0A1B00110A1A00F7E7
:100B0000091A00DD091900C4091900AB091900927E
:100B10000917007B091800630917004C09160036F5
:100B2000091600200916000A091500F5081500E04D
:100B3000081400CC081400B8081400A4081400908D
:100B40000813007D0812006B0813005808120046B5
:100B500008120034081100230811001208110001C6
:100B6000081100F0071000E0071000D0071000C0C7
:100B7000071000B0070F00A107100091070E0083B7
:100B8000070F0074070F0065070E0057070E004996
:100B9000070E003B070D002E070E0020070D001367
:100BA000070D0006070D00F9060C00ED060D00E02C
:100BB000060C00D4060C00C8060C00BC060C00B0E5
:100BC000060C00A4060B0099060C008D060B008293
:100BD000060B0077060B006C060B0061060A005737
:100BE000060B004C060A0042060A0038060A002ED0
:100BF000060A0024060A001A060A00100609000761
:100C0000060A00FD050900F4050900EB050900E2EC
:100C1000050900D9050900D0050900C7050900BE6E
:100C2000050900B5050800AD050800A50509009CEB
:100C3000050800940508008C050800840508007C60
:100C4000050800740508006C050700650508005DCF
:100C5000050700560508004E050700470507004038
:100C600005080038050700310507002A050700239D
:100C70000507001C050600160507000F05070008FC
:100C800005060002050700FB040600F5040700EE58
:100C9000040600E8040600E2040700DB040600D5B1
:100CA000040600CF040600C9040600C3040600BD04
:100CB000040600B7040600B1040500AC040600A653
:100CC000040600A00405009B04060095040500909E
:100CD0000406008A04050085040500800406007AE5
:100CE00004050075040500700405006B040500662A
:100CF000040500610405005C04050057040500526A
:100D00000405004D04050048040500430405003EA9
:100D10000404003A04050035040500300404002CE6
:100D200004050027040400230405001E0404001A1F
:100D300004040016040500110404000D0404000955
:100D40000405000404040000040400FC030400F88B
:100D5000030400F4030400F0030400EC030400E8BF
:100D6000030400E4030400E0030400DC030400D8EF
:100D7000030400D4030400D0030400CC030400C81F
:100D8000030300C503030024F404D9201BC40C5C36
:100D90000E9804C4095F0265077101F405F900FBB0
:100DA00004B30048048700C10369005803550003D9
:100DB000034500BE023A008402310053022A002992
:100DC00002250004022000E4011C00C8011900AF44
:100DD00001170098011400840113007101100061D3
:100DE00001100051010E0043010D0036010B002BD4
:100DF000010B0020010B00150109000C0109000383
:100E0000010800FB000800F3000800EB000700E405
:100E1000000600DE000600D8000600D2000600CC66
:100E2000000500C7000500C2000500BD000400B9B0
:100E3000000400B5000400B1000400AD000400A9E6
:100E4000000400A5000300A20003009F0004009B13
:100E50000003009800030095000200930003009037
:100E60000003008D0002008B000300880002008652
:100E700000020084000300810002007F0002007D68
:100E80000002007B0002007900020077000100767A
:100E90000002007400020072000100710002006F85
:100EA0000002006D0001006C0002006A0001006990
:100EB0000002006700010066000100650001006497
:100EC0000002006200010061000100600001005F9B
:100ED0000002005D0001005C0001005B0001005A9F
:100EE00000010059000100580001005700010056A0
:100EF00000010055000100540001005300000053A0
:100F00000001005200010051000100500001004F9B
:100F10000001004E0000004E0001004D0001004C99
:100F20000001004B0000004B0001004A0001004995
:100F30000001004800000048000100470001004691
:100F4000000000460001004500000045000100448B
:100F50000001004300000043000100420000004285
:100F60000001004100000041000100400001003F7D
:100F70000000003F0001003E0000003E0001003D77
:100F80000000003D0001003C0000003C0000003C6F
:100F90000001003B0000003B0001003A0000003A65
:100FA000000100390000003900010038000000385D
:100FB0000000003800010037000000370001003653
:100FC000000000360000003600010035000000354A
:100FD000000000350001003400000034000000343F
:100FE0000001003300000033000000330001003234
:100FF000000000320000003200010031000000312A
:10100000000000310001003000000030000000301E
:101010000001002F0000002F0000002F0000002F13
:101020000001002E0000002E0000002E0001002D07
:101030000000002D0000002D0000002D0001002CFC
:101040000000002C0000002C0000002C0001002BF0
:101050000000002B0000002B0000002B0001002AE4
:101060000000002A0000002A0000002A00010029D8
:1010700000000029000000290000002900000029CC
:1010800000010028000000280000002800000028BF
:1010900000000028000100270000002700000027B2
:1010A00000000027000000270001002600000026A5
:1010B0000000002600000026000000260001002598
:1010C000000000250000002500000025000000258C
:1010D000000000250001002400000024000000247E
:1010E0000000002400000024000100230000002371
:1010F0000000002300000023000000230000002364
:101100000000002300010022000000220000002255
:101110000000002200000022000000220001002147
:10112000000000210000002100000021000000213B
:10113000000000210000002100010020000000202C
:10114000000000200000002000000020000000201F
:1011500000000020000000200001001F0000001F10
:101160000000001F0000001F0000001F0000001F03
:101170000000001F0001001E0000001E0000001EF5
:101180000000001E0000006563686F3A002045788B
:1011900074727573616F206D7569746F206C617204
:1011A00067612065766974616461002045787472B6
:1011B0007573616F2061206672696F20657669744E
:1011C000616461006563686F3A004D3834205820CF
:1011D00059205A2045004E616F20706F6465206170
:1011E00062726972206F207375622064697265741F
:1011F0006F72696F3A004D3234004D3233202573DF
:10120000006175746F25692E67004572726F2061E9
:101210006F206573637265766572206E6F206172F0
:10122000717569766F004E616F206573746120730C
:101230006520696D7072696D696E646F20636F6D92
:10124000206F205344002F00534420696D70726951
:101250006D696E646F206F206279746520002E00C6
:1012600044656C6574696F6E206661696C65642C99
:101270002046696C653A200046696C652064656C9F
:10128000657465643A002E006F70656E2066616952
:101290006C65642C2046696C653A20004573637266
:1012A0006576656E646F206E6F2061727175697608
:1012B0006F3A20002E004572726F20616F206162CC
:1012C0007269722C204172717569766F3A20002E16
:1012D000004572726F20616F2061627269722C200A
:1012E0004172717569766F3A200041727175697645
:1012F0006F2073656C6563696F6E61646F00205366
:10130000697A653A004172717569766F206162652C
:1013100072746F3A002E004572726F20616F206107
:10132000627269722C204172717569766F3A200081
:101330004E6F772066726573682066696C653A2027
:10134000004E6F7720646F696E672066696C653A3E
:1013500020002220706F73002220706172656E740D
:101360003A2200535542524F5554494E452043416D
:101370004C4C207461726765743A2200747279690A
:101380006E6720746F2063616C6C207375622D67CB
:10139000636F64652066696C657320776974682083
:1013A000746F6F206D616E79206C6576656C732E3D
:1013B000204D4158206C6576656C2069733A006356
:1013C000617274616F205344206F6B0046616C68DA
:1013D0006120616F20616272697220646972657454
:1013E0006F72696F207261697A0046616C68612072
:1013F000616F206D6F6E74617220766F6C756D65B4
:101400000046616C686120616F20696E6963696183
:1014100072205344006563686F3A004572726F72C0
:101420003A0041414141E141414345454545494932
:10143000494944EE4F4F4F4FEF784F555555F559A9
:1014400054E261616161E161616365656565696976
:10145000696964EE6F6F6F6FEFFD6F757575F57984
:101460007479007C3C3E5E2B3D3F2F5B5D3B2C2A1C
:10147000225C005041524144412E2000496D70725F
:101480006573736F72612070617261646120706F47
:1014900072206572726F732E20436F73657274656C
:1014A000206F206572726F206520757365204D393D
:1014B00039392070617261207265636F6D65C3A7F1
:1014C0006172212E202854656D7065726174757289
:1014D00061207265696E6963696164612E20416A89
:1014E0007573746520616E74657320646520726520
:1014F000636F6D65C3A76172290050415241444139
:1015000020444520454D4552472E00496D70726577
:1015100073736F72612070617261646120636F6DBB
:10152000206B696C6C2829202121006F6B005265AB
:10153000656E766961723A002200436F6D616E6478
:101540006F20646573636F6E68656369646F3A22C8
:101550000054726F6361722046696C616D656E74D0
:101560006F005A204F6666736574203A20007A5FD8
:101570006D61783A20007A5F6D696E3A20005A20DA
:101580004F6666736574005A204F666673657420F3
:101590006F6B007A5F6D61783A20007A5F6D696EDB
:1015A0003A2000795F6D61783A2000795F6D696E4D
:1015B0003A2000785F6D61783A2000785F6D696E3F
:1015C0003A2000205A3A0020593A0020436F6E74A6
:1015D0006120583A0020453A00205A3A0020593AF2
:1015E00000583A004649524D574152455F4E414DD1
:1015F000453A4D61726C696E2056313B20537072D2
:10160000696E7465722F6772626C206D61736875A4
:101610007020666F722067656E36204649524D57BE
:101620004152455F55524C3A687474703A2F2F6698
:1016300069726D776172652E756C74696D616B6529
:10164000722E636F6D2050524F544F434F4C5F5674
:10165000455253494F4E3A312E30204D414348496F
:101660004E455F545950453A4465736B626F78201C
:1016700045585452554445525F434F554E543A31A4
:1016800020555549443A30303030303030302D30EC
:101690003030302D303030302D303030302D303053
:1016A000303030303030303030300A004465736BC9
:1016B000626F78204F66662E004465736B626F78A8
:1016C0002070726F6E7461210042617365207175C4
:1016D000656E74652E0020423A0020453A00543A67
:1016E000004171756563656E646F206120426173AE
:1016F000652E00417175656369646F2E0020573A4D
:101700000020453A00543A004171756563656E6486
:101710006F2E2E2E002042403A0020403A00202F0B
:10172000003A00205400202F0020423A00202F00D1
:101730006F6B20543A002569206D696E2C20256955
:10174000207365630046696D206461206C69737461
:1017500061206465206172717569766F7300436FF3
:101760006D65C3A76F206461206C69737461206428
:1017700065206172717569766F730053656D206DB8
:101780006F76696D656E746F005265746F6D616E12
:10179000646F20696D70722E004573706572616EA2
:1017A000646F206F7264656D005265706F75736F42
:1017B0002E2E2E00256920686F75727320256920F2
:1017C0006D696E7574657300496D707265737361D0
:1017D0006F207465726D696E6164610050415241A1
:1017E00044412E2000496D70726573736F726120E1
:1017F00070617261646120706F72206572726F73C4
:101800002E20436F7365727465206F206572726F4E
:10181000206520757365204D3939392070617261FA
:10182000207265636F6D65C3A76172212E202854F5
:10183000656D7065726174757261207265696E693B
:1018400063696164612E20416A7573746520616EFD
:10185000746573206465207265636F6D65C3A761ED
:101860007229006F6B004E616F206861206F206EDF
:10187000756D65726F206461206C696E68612063AC
:101880006F6D206F20636865636B73756D2C2055D9
:101890006C74696D61206C696E68613A004E616FAD
:1018A00020666F6920706F73736976656C20656E52
:1018B000636F6E74726172206F20636865636B730F
:1018C000756D20636F6D206F206E756D65726F2072
:1018D0006461206C696E68612C20556C74696D615F
:1018E000206C696E6861203A004F20636865636B05
:1018F00073756D204E616F20636F696E63696465F7
:101900002C20556C74696D61206C696E68613A00B9
:101910004F204E756D65726F206461206C696E6832
:1019200061204E616F206520696775616C20616F71
:1019300020756C74696D6F204E756D65726F2064D3
:1019400061206C696E68612B312C20556C74696D57
:1019500061206C696E68613A004D31313000477525
:1019600061726461646F2E006F6B004D323900202C
:1019700020506C616E6E6572427566666572427962
:101980007465733A2000206D656D6F726961204C3B
:10199000697672653A20004E6F76203133203230FE
:1019A000313500436F6D70696C65643A20002844DE
:1019B0006176696420427261616D2900207C20415A
:1019C0007574686F723A20004E6F76203133203282
:1019D0003031352031303A33323A33390020556CCA
:1019E00074696D6120617475616C697A6163616F9E
:1019F0003A2000312E302E30004D61726C696E003D
:101A000020526573657420706F7220536F6674770F
:101A10006172650020526573657420706F72204298
:101A20006C6F717565696F00205265736574207005
:101A30006F7220766F6C746167656D20696E636F7D
:101A40007272657461002052657365742045787404
:101A500065726E6F00506F776572557000737461B8
:101A60007274002200656E717565696E67202200D0
:101A70002200656E717565696E67202200FFFFFFA9
:101A80000000A0400000A0400000004000004D43C6
:101A900000004D430000484300000000000000002B
:101AA0000000000000004D4300004D43000048438B
:101AB0000000000000000000000000006563686F87
:101AC0003A004572726F723A0048617264636F64E3
:101AD00065642044656661756C742053657474692F
:101AE0006E6773204C6F616465640053746F726538
:101AF000642073657474696E6773207265747269AB
:101B000065766564002044002049002020204D3384
:101B100030312050005049442073657474696E67F9
:101B2000733A00205A0020590020204D32303620D0
:101B30005800486F6D65206F666673657420286D68
:101B40006D293A00204500205A002058002042000C
:101B500020540020204D32303520530041647661FE
:101B60006E636564207661726961626C65733A20A8
:101B7000533D4D696E206665656472617465202809
:101B80006D6D2F73292C20543D4D696E2074726148
:101B900076656C20666565647261746520286D6D7C
:101BA0002F73292C20423D6D696E696D756D207310
:101BB00065676D656E742074696D6520286D732985
:101BC0002C20583D6D6178696D756D205859206ADB
:101BD00065726B20286D6D2F73292C20205A3D6D66
:101BE0006178696D756D205A206A65726B20286D69
:101BF0006D2F73292C2020453D6D6178696D756DC1
:101C00002045206A65726B20286D6D2F7329002096
:101C1000540020204D323034205300416363656C02
:101C200065726174696F6E3A20533D616363656CE0
:101C300065726174696F6E2C20543D7265747261B7
:101C4000637420616363656C65726174696F6E00B3
:101C5000204500205A0020590020204D32303120EC
:101C600058004D6178696D756D20416363656C65E1
:101C7000726174696F6E20286D6D2F7332293A007E
:101C8000204500205A0020590020204D32303320BA
:101C900058004D6178696D756D2066656564726187
:101CA00074657320286D6D2F73293A00204500203C
:101CB0005A0020590020204D3932205800537465B5
:101CC00070732070657220756E69743A0053657484
:101CD00074696E67732053746F726564006563681E
:101CE0006F3A0000000A0B02090C0D0E08070304EE
:101CF00001000000000000000000000000000000E3
:101D000000000000000000000000000000000012C1
:101D100011100000000000000000000000000000A2
:101D20000000000000000000000102102020080850
:101D3000102040102040800201020108040201012D
:101D40000204081020408080402010080402018016
:101D5000040201804020100804020108040201016D
:101D60000204081020408001020408102040800571
:101D7000050505070508080808020202020A0A0804
:101D8000080404040401010101010101010303032A
:101D90000303030303040707070C0C0C0C0C0C0CC7
:101DA0000C0202020206060606060606060B0B0BCE
:101DB0000B0B0B0B0B00002200250028002B002E24
:101DC000003100340002010000050108010B010090
:101DD000002100240027002A002D003000330001DC
:101DE000010000040107010A01024E414E494E491B
:101DF0005459494E46CDCCCC3D0AD7233C17B7D1D8
:101E00003877CC2B329595E6241FB14F0A0000207D
:101E1000410000C84200401C4620BCBE4CCA1B0EFC
:101E20005AAEC59D74009D3456A06BA95AA01124CA
:101E30001FBECFEFD1E2DEBFCDBF00E00CBF14E08C
:101E4000A0E0B2E0E0E7FCE701E00BBF02C00790D2
:101E50000D92AC3BB107D9F723E1ACEBB4E001C084
:101E60001D92A833B207E1F71EE1CCE2DEE100E00B
:101E700006C022970109FE010BBF0E94F8B7C632C7
:101E8000D10780E00807A9F70E9458AF0C9427BE3D
:101E90000C94000028E288E190E00FB6F894A89531
:101EA000809360000FBE209360000895A895089568
:101EB0001092EC041092ED041092EE041092EF04D4
:101EC00089E69BE39093080280930702089510929D
:101ED00071051092700510926F0510926E051092A8
:101EE000F60E1092F50EE4CFFB016091070270919F
:101EF00008027093E5046093E4046091EC0470912F
:101F0000ED047093E3046093E20462E060930602E0
:101F100068EE76E370930802609307029093E10401
:101F20008093E004F093DF04E093DE04662757FD1E
:101F30006095762F4093DA045093DB046093DC04C1
:101F40007093DD04C901AA2797FDA095BA2F80934D
:101F5000D6049093D704A093D804B093D904808179
:101F60009181AA2797FDA095BA2F8093EC049093B6
:101F7000ED04A093EE04B093EF040895CF92DF92A6
:101F8000EF92FF920F931F93CF93DF93EB016701C3
:101F9000780160910702709108027093E5046093E4
:101FA000E4046091EC047091ED047093E304609399
:101FB000E20462E06093060267E677E3709308024A
:101FC000609307029093E1048093E004D093DF04D0
:101FD000C093DE04CA01B9010E9442B46093DA04DE
:101FE0007093DB048093DC049093DD04C701B60199
:101FF0000E9442B46093D6047093D7048093D804AF
:102000009093D904688179818A819B810E9447B429
:102010006093EC047093ED048093EE049093EF04CE
:10202000DF91CF911F910F91FF90EF90DF90CF90B4
:1020300008958F929F92AF92BF92CF92DF92EF92CC
:10204000FF920F931F93CF93DF93EB0149015A0146
:102050006701780120910702309108023093E5046E
:102060002093E4042091EC043091ED043093E304D8
:102070002093E20422E02093060221E439E3309326
:102080000802209307029093E1048093E004709388
:10209000DF046093DE0420E030E048EC52E4C50148
:1020A000B4010E94A8B60E9442B46093DA0470930F
:1020B000DB048093DC049093DD0420E030E048EC06
:1020C00052E4C701B6010E94A8B60E9442B46093D0
:1020D000D6047093D7048093D8049093D90420E059
:1020E00030E048EC52E4688179818A819B810E94CA
:1020F000A8B60E9447B46093EC047093ED048093FB
:10210000EE049093EF04DF91CF911F910F91FF9018
:10211000EF90DF90CF90BF90AF909F908F900895F9
:102120000F931F93CF93DF93EB01142F022F482FB0
:1021300060E087EF94E00E9461AB612F87EF94E04D
:102140000E9450AF11E1FE016491662311F011115C
:1021500017C0112339F060E287EF94E00E9450AF7E
:102160001150F7CF602F87EF94E00E9450AF60E2EC
:1021700087EF94E0DF91CF911F910F910C9450AFB6
:1021800087EF94E00E9450AF21961150DCCFEF9280
:10219000FF920F931F93CF93DF93EB01E42E8901FE
:1021A000F90101900020E9F7F22EFE1A92E1F90EF2
:1021B000482F60E087EF94E00E9461AB6E2D87EFBF
:1021C00094E00E9450AFFE016491662311F0F1107B
:1021D00019C06AE387EF94E00E9450AFFF2039F006
:1021E00060E287EF94E00E9450AFFA94F7CFB80115
:1021F00087EF94E0DF91CF911F910F91FF90EF90C7
:102200000C944FAF87EF94E00E9450AF2196FA9460
:10221000DACF8DE29FE00E94B66C1092F50408952B
:1022200010922F0F60E08DE29FE00E94406B0E94B1
:10223000AB4F8AEB96E00C94A77F8DE29FE00C9465
:10224000D1648DE29FE00C94D864CF9382E08093B8
:1022500006020E948EAD6C507E4F8F4F9F4F609351
:10226000F1047093F2048093F3049093F404539A6E
:10227000CAE05B9A63E070E080E090E00E94BDAD50
:102280005B9863E070E080E090E00E94BDADC150DB
:1022900081F7CF9108958F929F92AF92BF92CF9284
:1022A000DF92EF92FF920F931F93CF93DF93809172
:1022B000EC049091ED04A091EE04B091EF04813014
:1022C0009048A105B10540F01092EC041092ED0485
:1022D0001092EE041092EF046091EC047091ED0402
:1022E0008091EE049091EF0425E030E040E050E072
:1022F0000E94A4B78091F50490E0A0E0B0E0281718
:1023000039074A075B0710F42093F504D091F504D0
:102310001091F60412FB112710F9C0E085E0C82ED9
:10232000D12CE12CF12C93E1892E912CA12CB12CF4
:1023300001E06091EC047091ED048091EE049091C5
:10234000EF04D11125C020910602222369F023E079
:10235000653071058105910510F443E001C040E24C
:1023600066EC72E08C2FDCDE112309F4AEC08091A4
:10237000EC049091ED04A091EE04B091EF04059768
:10238000A105B10508F0A1C060DF8EEA9DE190C013
:10239000D13079F520910602222391F0A701960110
:1023A0000E94A4B7213031054105510519F42EE7EB
:1023B0004EE302C02EE740E26CEB72E08C2FB0DE01
:1023C000112309F482C06091EC047091ED048091B6
:1023D000EE049091EF04A70196010E94A4B721306A
:1023E00031054105510509F070C02FDF82E794E106
:1023F0005FC0D23079F520910602222391F0A70127
:1024000096010E94A4B7223031054105510519F407
:102410002EE74EE302C02EE740E263EB72E08C2F22
:102420007FDE112309F451C06091EC047091ED043A
:102430008091EE049091EF04A70196010E94A4B749
:10244000223031054105510509F03FC0FEDE85E629
:1024500094E12EC0D330C9F520910602222391F0D9
:10246000A70196010E94A4B723303105410551050B
:1024700019F42EE74EE302C02EE740E268EA72E06C
:102480008C2F4EDE112309F16091EC047091ED0464
:102490008091EE049091EF04A70196010E94A4B7E9
:1024A000233031054105510581F4CFDE88E594E103
:1024B00090930802809307021092EC041092ED04AE
:1024C0001092EE041092EF0437C08091EC049091CA
:1024D000ED04A091EE04B091EF044497A105B1057D
:1024E00040F08092EC049092ED04A092EE04B09241
:1024F000EF046091EC047091ED048091EE049091F2
:10250000EF04A70196010E94A4B78091F50490E022
:102510000396422F50E0841795074CF48DEF820FFD
:102520008093F50400930602DCEFD20FCFEFCF5F6C
:10253000DF5FC43008F4FDCEDF91CF911F910F9182
:10254000FF90EF90DF90CF90BF90AF909F908F90D3
:102550000895BF92CF92DF92EF92FF920F931F9355
:10256000CF93DF938091EC049091ED04A091EE0461
:10257000B091EF0481309048A105B10540F0109270
:10258000EC041092ED041092EE041092EF046091AE
:10259000EC047091ED048091EE049091EF0425E03D
:1025A00030E040E050E00E94A4B78091F50490E054
:1025B000A0E0B0E0281739074A075B0710F4209322
:1025C000F504D091F5041091F60412FB112710F9CF
:1025D000C0E045E0C42ED12CE12CF12C01E060914B
:1025E000EC047091ED048091EE049091EF04D11110
:1025F00025C020910602222369F023E06530710591
:102600008105910510F443E001C040E266E972E003
:102610008C2F86DD112309F470C08091EC04909119
:10262000ED04A091EE04B091EF040597A105B1056A
:1026300008F063C00ADE8BE491E1D8C0D13071F5B7
:1026400020910602222391F0A70196010E94A4B7CF
:10265000213031054105510519F42EE74EE302C042
:102660002EE740E26FE872E08C2F5ADD112309F467
:1026700044C06091EC047091ED048091EE0490915F
:10268000EF04A70196010E94A4B72130310541054E
:10269000510599F5DADD87E696E3A8C0D23069F5F1
:1026A00020910602222391F0A70196010E94A4B76F
:1026B000223031054105510519F42EE74EE302C0E1
:1026C0002EE740E268E872E08C2F2ADD1123A9F0A2
:1026D0006091EC047091ED048091EE049091EF0410
:1026E000A70196010E94A4B722303105410551058A
:1026F00021F4ABDD86EE95E379C020E030E040E2E6
:1027000051E46091C8047091C9048091CA04909109
:10271000CB040E94D3B387FF76C06091EC04709124
:10272000ED048091EE049091EF04D33081F5209177
:102730000602222391F0A70196010E94A4B723303C
:1027400031054105510519F42EE74EE302C02EE78D
:1027500040E261E872E08C2FE3DC111103C035E048
:10276000B32E53C06091EC047091ED048091EE049F
:102770009091EF04A70196010E94A4B72330310580
:102780004105510561F761DD85E695E32FC0D43041
:1027900031F720910602222391F0A70196010E94B1
:1027A000A4B7243031054105510519F42EE74EE355
:1027B00002C02EE740E268E772E08C2FB1DC112303
:1027C00071F26091EC047091ED048091EE049091AF
:1027D000EF04A70196010E94A4B7243031054105FA
:1027E000510509F0BCCF31DD89EE94E390930802E6
:1027F000809307021092EC041092ED041092EE0404
:102800001092EF044BC023E0B22E6091EC04709163
:10281000ED048091EE049091EF04A70196010E94CF
:10282000A4B78B2D90E0A0E0B0E0281739074A0745
:102830005B0788F025E0B29EC00111240197AA270A
:1028400097FDA095BA2F8093EC049093ED04A0938C
:10285000EE04B093EF046091EC047091ED0480916C
:10286000EE049091EF04A70196010E94A4B7809115
:10287000F50490E00396422F50E0841795074CF43E
:102880008DEF820F8093F50400930602DCEFD20FE8
:10289000CFEFCF5FDF5FC43008F4A1CEDF91CF91DF
:1028A0001F910F91FF90EF90DF90CF90BF90089510
:1028B0008DEC9CECACECBDE38093C8049093C90410
:1028C000A093CA04B093CB0444CE80E090E0A0E88B
:1028D000BFE38093C8049093C904A093CA04B09343
:1028E000CB0437CE80E090E0A0E2B1E48093C8044E
:1028F0009093C904A093CA04B093CB042ACECF937B
:10290000DF93CDB7DEB7C054D1090FB6F894DEBF60
:102910000FBECDBF88E0EFE6F2E0DE01D996019070
:102920000D928A95E1F788E0E7E7F2E0DE01D196C3
:1029300001900D928A95E1F788E0EFE7F2E0DE0181
:10294000999601900D928A95E1F788E0E7E8F2E028
:10295000DE01919601900D928A95E1F788E0EFE80B
:10296000F2E0DE01599601900D928A95E1F788E038
:10297000E7E9F2E0DE01519601900D928A95E1F7C8
:1029800088E0EFE9F2E0DE01199601900D928A9558
:10299000E1F788E0E7EAF2E0DE01119601900D929E
:1029A0008A95E1F720E044E064E187EF94E00E943B
:1029B00079ABAE01475C5F4F60E087EF94E00E9427
:1029C00041ACAE014F5C5F4F61E087EF94E00E9445
:1029D00041ACAE01475D5F4F62E087EF94E00E943B
:1029E00041ACAE014F5D5F4F63E087EF94E00E9422
:1029F00041ACAE01475E5F4F64E087EF94E00E9418
:102A000041ACAE014F5E5F4F65E087EF94E00E94FE
:102A100041ACAE01475F5F4F66E087EF94E00E94F4
:102A200041ACAE014F5F5F4F67E087EF94E00E94DB
:102A300041AC87EF94E00E945CABC05CDF4F0FB607
:102A4000F894DEBF0FBECDBFDF91CF910895809186
:102A50001A0590911B0590937105809370058091E4
:102A600018059091190590936F0580936E058091DC
:102A70001605909117059093F60E8093F50E18DACF
:102A80000C948440809114059091150590937105E4
:102A900080937005809112059091130590936F05B6
:102AA00080936E0580911005909111059093F60E1C
:102AB0008093F50EFDD90C9484406091D004709100
:102AC000D1048091D2049091D3040E94C2466093B5
:102AD0002C0270932D0280932E0290932F020C945F
:102AE000CD3D6091CC047091CD048091CE04909145
:102AF000CF040E94CE4660932802709329028093EF
:102B00002A0290932B020C94CD3D20910702309124
:102B100008023093E5042093E4042091EC04309102
:102B2000ED043093E3042093E20422E020930602B4
:102B30002AE83AE330930802209307029093E104D5
:102B40008093E0047093DF046093DE0481E090E002
:102B5000A0E0B0E08093DA049093DB04A093DC045F
:102B6000B093DD048EED93E0A0E0B0E08093D60456
:102B70009093D704A093D804B093D904FB0160814B
:102B80007181828193810E9473B42AE037ED43E220
:102B90005CE30E94A8B60E9447B46093EC04709373
:102BA000ED048093EE049093EF0481E49EE590930E
:102BB000D5048093D404089520910702309108022F
:102BC0003093E5042093E4042091EC043091ED046B
:102BD0003093E3042093E20422E0209306022FE9DD
:102BE00038E330930802209307029093E104809326
:102BF000E0047093DF046093DE0482E390E0A0E0E1
:102C0000B0E08093DA049093DB04A093DC04B093EB
:102C1000DD0486E996E8A1E0B0E08093D6049093C5
:102C2000D704A093D804B093D90420E030E040E268
:102C300051E4FB0160817181828193810E94A8B679
:102C40000E9447B46093EC047093ED048093EE040B
:102C50009093EF0408952F923F924F925F926F925C
:102C60007F928F929F92AF92BF92CF92DF92EF921C
:102C7000FF920F931F93CF93DF93CDB7DEB7A29749
:102C80000FB6F894DEBF0FBECDBF80910602811152
:102C900004C08091F60482FF8EC28DE29FE00E9404
:102CA000AC6B5C018091EC049091ED04A091EE047A
:102CB000B091EF0481309048A105B10540F0109229
:102CC000EC041092ED041092EE041092EF04609167
:102CD000EC047091ED048091EE049091EF0425E0F6
:102CE00030E040E050E00E94A4B78091F50490E00D
:102CF000A0E0B0E0281739074A075B0710F42093DB
:102D0000F5048090F5042090F60422FA222420F89D
:102D1000912CB5E0CB2ED12CE12CF12C2FEF2A0DEC
:102D200028A381102EC0809106028823A1F08091F3
:102D3000EC049091ED04A091EE04B091EF0423E037
:102D40000597A105B10510F443E001C040E265ED2F
:102D500076E0892DE5D92220A1F08091EC049091B4
:102D6000ED04A091EE04B091EF040597A105B10523
:102D700040F46BDA84EF98E19093080280930702A5
:102D800086C061E37FE081E89FE00E94C972809184
:102D9000310F8F3231F081E0881679F0A2E03A2EBF
:102DA00002C03324339400E010E0482C512C612CF5
:102DB000712CE1E0E80DEF8F3CC080910602882382
:102DC000D1F06091EC047091ED048091EE0490914B
:102DD000EF04A70196010E94A4B7213031054105F7
:102DE000510519F420E24EE302C020E240E261ED19
:102DF00076E0892D95D9222089F26091EC047091BA
:102E0000ED048091EE049091EF04A70196010E94D9
:102E1000A4B7213031054105510509F0BFCF15DABE
:102E2000F8D9C9C18111A9C021100AC13F8C0F5F17
:102E30001F4F0A151B0509F448C1381044C168A189
:102E4000601B8DE29FE00E94556B9091590F80911D
:102E50000602992339F3811123C0222039F36091AE
:102E6000EC047091ED048091EE049091EF04A701C1
:102E700096010E94A4B72415350546055705B1F6FD
:102E8000E4D961E37FE08DE29FE00E940D6C109237
:102E9000EC041092ED041092EE041092EF048BC13A
:102EA0006091EC047091ED048091EE049091EF0438
:102EB000A70196010E94A4B72415350546055705BC
:102EC00071F5492D60E087EF94E00E9461AB6EE3FD
:102ED00087EF94E00E9450AF65E087EF94E00E9496
:102EE00050AF80913E0F882329F01092500F2EE3AF
:102EF0003FE002C021E33FE0F2E13F2EF9016191A2
:102F00009F01662311F031102EC1332009F4A5CFA3
:102F100060E287EF94E00E9450AF3A94F6CF492DDB
:102F200060E087EF94E00E9461AB60E287EF94E09D
:102F30000E9450AF65E087EF94E00E9450AF80910F
:102F40003E0F882329F01092500F2EE33FE002C07D
:102F500021E33FE0E2E13E2EF90161919F0166230A
:102F600011F031100AC1332009F477CF60E287EF06
:102F700094E00E9450AF3A94F6CF6091EC047091C7
:102F8000ED048091EE049091EF04A70196010E9458
:102F9000A4B7241535054605570549F5492D60E0C8
:102FA00087EF94E00E9461AB6EE387EF94E00E94AC
:102FB00050AF80913E0F882329F01092510F2EE3DD
:102FC0003FE002C021E33FE073E1372EF901619158
:102FD0009F01662311F03110DAC0332009F424CFA9
:102FE00060E287EF94E00E9450AF3A94F6CF492D0B
:102FF00060E087EF94E00E9461AB60E287EF94E0CD
:103000000E9450AF80913E0F882329F01092510FFB
:103010002EE33FE002C021E33FE063E1362EF901F9
:1030200061919F01662311F03110BBC0332009F478
:10303000FBCE60E287EF94E00E9450AF3A94F6CF67
:103040006091EC047091ED048091EE049091EF0496
:10305000A70196010E94A4B724153505460557051A
:1030600009F0E4CEF2D881E39FE09F938F938AEC3E
:1030700096E09F938F938E010F5F1F4F1F930F93C7
:103080000E944CBB0F900F900F900F900F900F90DD
:103090007E01F5E0EF0EF11CF7018081882349F0F5
:1030A000992787FD90950E94ACBAF70181937F0123
:1030B000F3CFC8010E94347F86EC96E00E94A77F80
:1030C0000E94580F78C03394B2CE6091EC04709196
:1030D000ED048091EE049091EF04A70196010E9407
:1030E000A4B7832D90E0A0E0B0E0281739074A0785
:1030F0005B0788F0F5E03F9EC00111240197AA27E5
:1031000097FDA095BA2F8093EC049093ED04A093C3
:10311000EE04B093EF046091EC047091ED048091A3
:10312000EE049091EF04A70196010E94A4B780914C
:10313000F50490E00396422F50E08417950764F45D
:103140008DEF820F8093F50481E0809306025CEF9F
:10315000852E820E99249A949394839423E02915C2
:1031600008F0DFCD28C087EF94E0E9A33AA30E94DE
:1031700050AF3A9429A13AA1C1CE87EF94E0E9A3D8
:103180003AA30E9450AF3A9429A13AA1E5CE87EF25
:1031900094E0E9A33AA30E9450AF3A9429A13AA13E
:1031A00015CF87EF94E0E9A33AA30E9450AF3A9479
:1031B00029A13AA134CFA2960FB6F894DEBF0FBE74
:1031C000CDBFDF91CF911F910F91FF90EF90DF90D6
:1031D000CF90BF90AF909F908F907F906F905F90B7
:1031E0004F903F902F900895BF92CF92DF92EF9231
:1031F000FF920F931F93CF93DF938091EC049091F4
:10320000ED04A091EE04B091EF0481309048A10547
:10321000B10540F01092EC041092ED041092EE040F
:103220001092EF046091EC047091ED048091EE0433
:103230009091EF0425E030E040E050E00E94A4B718
:103240008091F50490E0A0E0B0E0281739074A0724
:103250005B0710F42093F504D091F5041091F60467
:1032600012FB112710F9C0E005E0C02ED12CE12C93
:10327000F12CBB24B394D1112CC080910602882379
:10328000A9F08091EC049091ED04A091EE04B0912E
:10329000EF0423E00597A105B10510F443E001C058
:1032A00040E267E577E08C2F0E949010112389F0AF
:1032B0008091EC049091ED04A091EE04B091EF04A4
:1032C0000597A105B10528F40E94251189E69BE325
:1032D00031C00E94315E4091EC045091ED04609148
:1032E000EE047091EF04811105C080912F0F8823A7
:1032F00009F443C0D13009F042C080910602811127
:1033000026C0112309F474C06091EC047091ED049F
:103310008091EE049091EF04A70196010E94A4B75A
:10332000213031054105510509F062C00E94251187
:1033300080E096E290930802809307021092EC04DA
:103340001092ED041092EE041092EF04DDC1CB0157
:10335000BA01A70196010E94A4B7213031054105A9
:10336000510519F42EE74EE302C02EE740E26DE46A
:1033700077E08C2F0E949010C4CFD13099F1D230D9
:10338000B9F5809106028823A9F0CB01BA01A70103
:1033900096010E94A4B7223031054105510519F468
:1033A0002EE74EE302C02EE740E267E377E08C2F82
:1033B0000E9490101123E1F06091EC047091ED04F3
:1033C0008091EE049091EF04A70196010E94A4B7AA
:1033D000223031054105510559F40E9425118EE82E
:1033E0009BE1A8CF80910602811161C1111175C1C5
:1033F0002091300F6091EC047091ED048091EE0407
:103400009091EF04222309F4D5C02091FE102223CD
:1034100009F4B7C020912F0F2223E1F1D33009F036
:1034200074C020910602222399F0A70196010E9400
:10343000A4B7233031054105510519F420E24EE3CC
:1034400002C020E240E266E277E08C2F0E949010FA
:10345000112309F4E1C06091EC047091ED048091B6
:10346000EE049091EF04A70196010E94A4B72330C7
:1034700031054105510509F0CFC00E942511DF91AA
:10348000CF911F910F91FF90EF90DF90CF90BF9061
:103490000C942111D330C9F520910602222399F012
:1034A000A70196010E94A4B72330310541055105BB
:1034B00019F420E24EE302C020E240E264E177E04A
:1034C0008C2F0E949010112309F4A6C06091EC0487
:1034D0007091ED048091EE049091EF04A7019601A4
:1034E0000E94A4B7233031054105510509F094C06D
:1034F0000E942511DF91CF911F910F91FF90EF90C6
:10350000DF90CF90BF900C941D11D43009F084C08F
:1035100020910602222399F0A70196010E94A4B7E8
:10352000243031054105510519F420E24EE302C073
:1035300020E240E264E077E08C2F0E94901011239B
:1035400009F46AC06091EC047091ED048091EE047E
:103550009091EF04A70196010E94A4B72430310591
:103560004105510509F058C00E942511DF91CF9106
:103570001F910F91FF90EF90DF90CF90BF900C9430
:103580001011D33011F004E048C02091060222232C
:1035900051F1A70196010E94A4B7233031054105DE
:1035A000510519F42EE74EE302C02EE740E265EF25
:1035B00076E016C0D33039F720910602222399F025
:1035C000A70196010E94A4B723303105410551059A
:1035D00019F42EE74EE302C02EE740E267EE76E0F4
:1035E0008C2F0E949010112371F26091EC04709165
:1035F000ED048091EE049091EF04A70196010E94E2
:10360000A4B7233031054105510509F0BCCF0E9414
:1036100025118BE296E18ECE05E06091EC0470916D
:10362000ED048091EE049091EF04A70196010E94B1
:10363000A4B7802F90E0A0E0B0E0281739074A0730
:103640005B0788F025E0029FC00111240197AA279B
:1036500097FDA095BA2F8093EC049093ED04A0936E
:10366000EE04B093EF046091EC047091ED0480914E
:10367000EE049091EF04A70196010E94A4B78091F7
:10368000F50490E00396422F50E0841795074CF420
:103690008DEF820F8093F504B0920602DCEFD20F1B
:1036A000CFEFCF5FDF5FC43008F4E5CD2DC0CB0195
:1036B000BA01A70196010E94A4B721303105410546
:1036C000510519F42EE74EE302C02EE740E262E412
:1036D00077E08C2F0E94901089CE6091EC0470915D
:1036E000ED048091EE049091EF04A70196010E94F1
:1036F000A4B7213031054105510509F079CE0E946A
:1037000025118EEA9DE116CEDF91CF911F910F9189
:10371000FF90EF90DF90CF90BF9008958F929F928F
:10372000AF92BF92CF92DF92EF92FF920F931F93CF
:10373000CF93DF938091EC049091ED04A091EE047F
:10374000B091EF0481309048A105B10540F010928E
:10375000EC041092ED041092EE041092EF046091CC
:10376000EC047091ED048091EE049091EF0425E05B
:1037700030E040E050E00E94A4B78091F50490E072
:10378000A0E0B0E0281739074A075B0710F4209340
:10379000F504D091F5041091F60412FB112710F9ED
:1037A000C0E085E0C82ED12CE12CF12C92E2892ECC
:1037B000912CA12CB12C01E06091EC047091ED04EE
:1037C0008091EE049091EF04D11127C02091060260
:1037D000222371F023E0653071058105910510F415
:1037E00043E001C040E268EA76E08C2F0E9490102E
:1037F000112309F46FC18091EC049091ED04A09124
:10380000EE04B091EF040597A105B10508F062C17F
:103810000E94251184EF98E150C1D13089F52091A3
:103820000602222399F0A70196010E94A4B7213035
:1038300031054105510519F42EE74EE302C02EE78C
:1038400040E26CE976E08C2F0E949010112309F47D
:1038500041C16091EC047091ED048091EE0490916F
:10386000EF04A70196010E94A4B72130310541055C
:10387000510509F02FC10E9425118AE091E31DC175
:10388000D23089F520910602222399F0A7019601F2
:103890000E94A4B7223031054105510519F42EE7E5
:1038A0004EE302C02EE740E262E976E08C2F0E94F0
:1038B0009010112309F40EC16091EC047091ED0495
:1038C0008091EE049091EF04A70196010E94A4B7A5
:1038D000223031054105510509F0FCC00E94251137
:1038E00086E69AE2EAC0D330E1F52091060222236F
:1038F00099F0A70196010E94A4B723303105410534
:10390000510519F420E24EE302C020E240E262E8F1
:1039100076E08C2F0E949010112309F4DBC0609197
:10392000EC047091ED048091EE049091EF04A701F6
:1039300096010E94A4B7233031054105510509F0D5
:10394000C9C00E942511DF91CF911F910F91FF9067
:10395000EF90DF90CF90BF90AF909F908F900C949E
:10396000CDA2D430E1F520910602222399F0A701DF
:1039700096010E94A4B7243031054105510519F480
:1039800020E24EE302C020E240E261E776E08C2FC5
:103990000E949010112309F49DC06091EC04709175
:1039A000ED048091EE049091EF04A70196010E942E
:1039B000A4B7243031054105510509F08BC00E94A0
:1039C0002511DF91CF911F910F91FF90EF90DF9024
:1039D000CF90BF90AF909F908F900C94F1A7D5306F
:1039E000E1F520910602222399F0A70196010E9499
:1039F000A4B7253031054105510519F420E24EE305
:103A000002C020E240E26FE576E08C2F0E94901029
:103A1000112309F45FC06091EC047091ED04809172
:103A2000EE049091EF04A70196010E94A4B72530FF
:103A300031054105510509F04DC00E942511DF9166
:103A4000CF911F910F91FF90EF90DF90CF90BF909B
:103A5000AF909F908F900C948BA6D630D9F5209183
:103A60000602222399F0A70196010E94A4B72630EE
:103A700031054105510519F42EE74EE302C02EE74A
:103A800040E26FE476E08C2F0E949010112311F138
:103A90006091EC047091ED048091EE049091EF043C
:103AA000A70196010E94A4B72630310541055105B2
:103AB00089F40E94251180E49BE39093080280938F
:103AC00007021092EC041092ED041092EE04109292
:103AD000EF0437C08091EC049091ED04A091EE04C6
:103AE000B091EF048397A105B10540F08092EC04FA
:103AF0009092ED04A092EE04B092EF046091EC0479
:103B00007091ED048091EE049091EF04A70196016D
:103B10000E94A4B78091F50490E00396422F50E0F4
:103B2000841795074CF48DEF820F8093F504009372
:103B30000602DCEFD20FCFEFCF5FDF5FC43008F4B7
:103B40003BCEDF91CF911F910F91FF90EF90DF90CF
:103B5000CF90BF90AF909F908F9008958F929F923B
:103B6000AF92BF92CF92DF92EF92FF920F931F938B
:103B7000CF93DF938091EC049091ED04A091EE043B
:103B8000B091EF0481309048A105B10540F010924A
:103B9000EC041092ED041092EE041092EF04609188
:103BA000EC047091ED048091EE049091EF0425E017
:103BB00030E040E050E00E94A4B78091F50490E02E
:103BC000A0E0B0E0281739074A075B0710F42093FC
:103BD000F504D091F5041091F60412FB112710F9A9
:103BE000C0E025E0C22ED12CE12CF12C37E2832E4F
:103BF000912CA12CB12C01E06091EC047091ED04AA
:103C00008091EE049091EF04D11127C0209106021B
:103C1000222371F023E0653071058105910510F4D0
:103C200043E001C040E26AE573E08C2F0E949010EF
:103C3000112309F430C18091EC049091ED04A0911E
:103C4000EE04B091EF040597A105B10508F023C17A
:103C50000E94251184EF98E1CEC1D13089F52091E1
:103C60000602222399F0A70196010E94A4B72130F1
:103C700031054105510519F420E24EE302C020E26E
:103C800040E269E473E08C2F0E949010112309F444
:103C900002C16091EC047091ED048091EE0490916A
:103CA000EF04A70196010E94A4B721303105410518
:103CB000510509F0F0C00E94251185E493E05DC133
:103CC000D23089F520910602222399F0A7019601AE
:103CD0000E94A4B7223031054105510519F420E2B4
:103CE0004EE302C020E240E266E373E08C2F0E94C4
:103CF0009010112309F4CFC06091EC047091ED0491
:103D00008091EE049091EF04A70196010E94A4B760
:103D1000223031054105510509F0BDC00E94251131
:103D200082E393E02AC1D330E1F5209106022223F9
:103D300099F0A70196010E94A4B7233031054105EF
:103D4000510519F420E24EE302C020E240E262E2B3
:103D500073E08C2F0E949010112309F49CC0609195
:103D6000EC047091ED048091EE049091EF04A701B2
:103D700096010E94A4B7233031054105510509F091
:103D80008AC00E942511DF91CF911F910F91FF9062
:103D9000EF90DF90CF90BF90AF909F908F900C945A
:103DA0002715D430E1F520910602222399F0A701CE
:103DB00096010E94A4B7243031054105510519F43C
:103DC00020E24EE302C020E240E262E173E08C2F89
:103DD0000E949010112309F45EC06091EC04709170
:103DE000ED048091EE049091EF04A70196010E94EA
:103DF000A4B7243031054105510509F04CC00E949B
:103E00002511DF91CF911F910F91FF90EF90DF90DF
:103E1000CF90BF90AF909F908F900C944215D5306B
:103E2000D1F520910602222399F0A70196010E9464
:103E3000A4B7253031054105510519F420E24EE3C0
:103E400002C020E240E26AE073E08C2F0E949010F2
:103E5000112309F16091EC047091ED048091EE045E
:103E60009091EF04A70196010E94A4B72530310577
:103E70004105510581F40E942511DF91CF911F91D9
:103E80000F91FF90EF90DF90CF90BF90AF909F90F9
:103E90008F900C94670F209147026091EC04709111
:103EA000ED048091EE049091EF042223A1F1D6302D
:103EB00009F071C020910602222399F0A701960112
:103EC0000E94A4B7263031054105510519F420E2BE
:103ED0004EE302C020E240E269EF72E08C2F0E94C4
:103EE0009010112309F494C06091EC047091ED04DA
:103EF0008091EE049091EF04A70196010E94A4B76F
:103F0000263031054105510509F082C00E94251176
:103F100085EF92E032C0D630F1F5209106022223DF
:103F200099F0A70196010E94A4B7263031054105FA
:103F3000510519F420E24EE302C020E240E267EEB0
:103F400072E08C2F0E949010112309F461C06091DF
:103F5000EC047091ED048091EE049091EF04A701C0
:103F600096010E94A4B7263031054105510509F09C
:103F70004FC00E94251183EE92E0DF91CF911F91F7
:103F80000F91FF90EF90DF90CF90BF90AF909F90F8
:103F90008F900C94A77FD730D9F520910602222369
:103FA00099F0A70196010E94A4B727303105410579
:103FB000510519F42EE74EE302C02EE740E261ED11
:103FC00072E08C2F0E949010112311F16091EC048B
:103FD0007091ED048091EE049091EF04A701960199
:103FE0000E94A4B7273031054105510589F40E948C
:103FF00025118BE491E190930802809307021092BF
:10400000EC041092ED041092EE041092EF0437C00D
:104010008091EC049091ED04A091EE04B091EF0436
:104020008897A105B10540F08092EC049092ED04D0
:10403000A092EE04B092EF046091EC047091ED0454
:104040008091EE049091EF04A70196010E94A4B71D
:104050008091F50490E00396422F50E08417950775
:104060004CF48DEF820F8093F50400930602DCEF91
:10407000D20FCFEFCF5FDF5FC43008F4BDCDDF914B
:10408000CF911F910F91FF90EF90DF90CF90BF9055
:10409000AF909F908F90089520910F0521110AC035
:1040A00044E150E0BC0189E092E00E943DBB82E027
:1040B00080930602089520910F0521110AC044E162
:1040C00050E0BC0189E092E00E94D3BA82E0809384
:1040D00006020895F0DF81E080930F050C94580FDD
:1040E00010920F050895CF92DF92EF92FF92CF9337
:1040F000C2B3C695C17081E0C8278091090187FFCE
:10410000C260C090F104D090F204E090F304F0900B
:10411000F4040E948EADC616D706E806F90610F420
:104120004A9B39C0C093F6048091F6048170909147
:10413000F60491FD82609091F004891721F181309D
:10414000F1F028F0823089F08330A1F01CC091306A
:1041500021F490911C059F5F05C09230A1F49091CD
:104160001C05915090931C050EC0992391F3933038
:1041700051F4F5CF923069F3913029F4F0CF9330B8
:1041800041F3992361F38093F004CF91FF90EF9076
:10419000DF90CF900895C460C5CF0E947F1460E087
:1041A00088E20E94A3AE60E08AE20E94A3AEA19AD8
:1041B0009FB7F894EBE0F1E08081806880839FBF37
:1041C00060E083E10E94A3AE5A9A60E086E20E941A
:1041D000A3AE5F9A89B18095881F8827881F809336
:1041E000EB0481DF10921C050895CF92DF92EF92CD
:1041F000FF9279DF89B18095881F8827881F909169
:10420000EB048917F1F082E08093060289B1809572
:10421000881F8827881F8093EB040E947F14809159
:10422000EB04882339F08DE29FE00E94076482EB63
:1042300091E006C08DE29FE00E94CD6482EA91E0A9
:104240003ADFC090E704D090E804E090E904F090F1
:10425000EA040E948EADC616D706E806F90608F0F5
:1042600081C040911C05442361F181E080930602E6
:10427000552747FD5095652F752F8091EC0490913F
:10428000ED04A091EE04B091EF04840F951FA61FDA
:10429000B71F8093EC049093ED04A093EE04B093C9
:1042A000EF0410921C050E948EAD6856754C8F4F1E
:1042B0009F4F6093BC047093BD048093BE049093A1
:1042C000BF048091F60482FF0EC00E948EAD685636
:1042D000754C8F4F9F4F6093BC047093BD048093C7
:1042E000BE049093BF04E0910702F0910802199573
:1042F000C090BC04D090BD04E090BE04F090BF0418
:104300000E948EADC616D706E806F90638F48091ED
:1043100007029091080289569B43F1F480910602AE
:10432000823021F487EF94E00E945CAB809106021A
:10433000882319F08150809306020E948EAD6C593B
:104340007F4F8F4F9F4F6093E7047093E8048093F3
:10435000E9049093EA0406C00E94580F82E080931B
:104360000602DCCFFF90EF90DF90CF900895809110
:10437000F60482FB882780F90895FC01808190E093
:104380002AE030E0B9010E9491B7482FCB01B90172
:104390000E9491B7805D8093C004405D4093C1044A
:1043A0001092C20480EC94E0089520E030E040E2F6
:1043B00051E4FC0160817181828193810E94A8B6E1
:1043C0000E9442B477FD02C02BE201C02DE220938F
:1043D000C0049B0177FF04C022273327261B370B1D
:1043E000C90168EE73E00E9491B7CB01EAE0F0E00A
:1043F000BF010E9491B7805D8093C104C90164E64A
:1044000070E00E9491B7CB01BF010E9491B7805D1F
:104410008093C204C901BF010E9491B7282FCB012C
:10442000BF010E9491B7805D8093C3048EE28093A8
:10443000C404205D2093C5041092C60480EC94E06F
:1044400008958F929F92AF92BF92CF92DF92EF9298
:10445000FF92CF9320E030E048EC52E4FC01608111
:104460007181828193810E94A8B60E9442B46B013F
:104470007C0197FD12C020E137E240E050E00E944D
:10448000C6B7CA01B9012AE030E040E050E00E941E
:10449000C6B7605D6093C00403C08DE28093C00422
:1044A000F7FE08C0F094E094D094C094C11CD11CD5
:1044B000E11CF11CC701B60128EE33E040E050E0FA
:1044C0000E94C6B76AE0862E912CA12CB12CCA019D
:1044D000B901A50194010E94C6B7605D6093C10453
:1044E000C701B60124E630E040E050E00E94C6B7C4
:1044F000CA01B901A50194010E94C6B7605D60932D
:10450000C2048EE28093C304C701B601A5019401E1
:104510000E94C6B7C62FCA01B901A50194010E9425
:10452000C6B7605D6093C404C05DC093C5041092BB
:10453000C60480EC94E0CF91FF90EF90DF90CF9095
:10454000BF90AF909F908F900895FC0180819181E2
:10455000843691055CF064E670E00E9491B7CB016F
:104560006AE070E00E9491B7805D01C080E28093B4
:10457000C004808191818A3091055CF02AE030E0AE
:10458000B9010E9491B7CB01B9010E9491B7805D3A
:1045900001C080E28093C104808191816AE070E073
:1045A0000E9491B7805D8093C2041092C30480EC96
:1045B00094E008958F929F92AF92BF92CF92DF9234
:1045C000EF92FF920F931F93CF93DF938091EC04B0
:1045D0009091ED04A091EE04B091EF0481309048E9
:1045E000A105B10540F01092EC041092ED04109278
:1045F000EE041092EF046091EC047091ED04809150
:10460000EE049091EF0425E030E040E050E00E949D
:10461000A4B78091F50490E0A0E0B0E02817390736
:104620004A075B0710F42093F504D091F50410912C
:10463000F60412FB112710F9C0E075E0C72ED12C4B
:10464000E12CF12CE3E18E2E912CA12CB12C01E078
:104650006091EC047091ED048091EE049091EF0470
:10466000D11133C020910602222371F023E065307E
:1046700071058105910510F443E001C040E264E05A
:1046800074E08C2F0E949010112309F4E2C08091F5
:10469000EC049091ED04A091EE04B091EF04059725
:1046A000A105B10508F0D5C00E9425118AE091E36B
:1046B00090930802809307021092EC041092ED048C
:1046C0001092EE041092EF04FBC0D130D9F5209186
:1046D00006022223B9F0A70196010E94A4B780E147
:1046E00095E0213031054105510521F42EDF9C0173
:1046F0004EE303C02ADF9C0140E262EF73E08C2F9F
:104700000E94C710112309F4A4C06091EC047091B9
:10471000ED048091EE049091EF04A70196010E94B0
:10472000A4B7213031054105510509F092C00E941E
:1047300025112FEF30E040E050E060E175E080EEC1
:1047400093E03DC0D23009F048C0209106022223F8
:10475000B9F0A70196010E94A4B784E195E0223048
:1047600031054105510521F4F0DE9C014EE303C003
:10477000ECDE9C0140E267ED73E08C2F0E94C710D5
:10478000112309F466C06091EC047091ED048091EE
:10479000EE049091EF04A70196010E94A4B7223085
:1047A00031054105510509F054C00E94251124E04E
:1047B00031E040E050E064E175E08EEC93E0DF91A1
:1047C000CF911F910F91FF90EF90DF90CF90BF900E
:1047D000AF909F908F900C94740FD330D1F52091AF
:1047E0000602222399F0A70196010E94A4B7233064
:1047F00031054105510519F420E24EE302C020E2E3
:1048000040E26EEB73E08C2F0E949010112309F1AF
:104810006091EC047091ED048091EE049091EF04AE
:10482000A70196010E94A4B7233031054105510527
:1048300081F40E942511DF91CF911F910F91FF907C
:10484000EF90DF90CF90BF90AF909F908F900C949F
:10485000CDA28091EC049091ED04A091EE04B09172
:10486000EF044497A105B10540F08092EC049092CA
:10487000ED04A092EE04B092EF046091EC0470910C
:10488000ED048091EE049091EF04A70196010E943F
:10489000A4B78091F50490E00396422F50E084176E
:1048A00095074CF48DEF820F8093F5040093060278
:1048B000DCEFD20FCFEFCF5FDF5FC43008F4C8CE9C
:1048C000DF91CF911F910F91FF90EF90DF90CF90EC
:1048D000BF90AF909F908F9008958F929F92AF92CC
:1048E000BF92CF92DF92EF92FF920F931F93CF93DD
:1048F000DF938091EC049091ED04A091EE04B091CF
:10490000EF0481309048A105B10540F01092EC040D
:104910001092ED041092EE041092EF046091EC04FA
:104920007091ED048091EE049091EF0425E030E069
:1049300040E050E00E94A4B78091F50490E0A0E030
:10494000B0E0281739074A075B0710F42093F504F5
:10495000D091F5041091F60412FB112710F9C0E074
:10496000F5E0CF2ED12CE12CF12CA3E18A2E912C55
:10497000A12CB12C01E06091EC047091ED048091C8
:10498000EE049091EF04D11133C02091060222234E
:1049900071F023E0653071058105910510F443E065
:1049A00001C040E262EB73E08C2F0E949010112353
:1049B00009F4E2C08091EC049091ED04A091EE0422
:1049C000B091EF040597A105B10508F0D5C00E948C
:1049D00025118AE091E390930802809307021092D8
:1049E000EC041092ED041092EE041092EF04FBC060
:1049F000D130D9F5209106022223B9F0A701960102
:104A00000E94A4B786E195E02130310541055105AA
:104A100021F49BDD9C014EE303C097DD9C0140E245
:104A200060EA73E08C2F0E94C710112309F4A4C020
:104A30006091EC047091ED048091EE049091EF048C
:104A4000A70196010E94A4B7213031054105510507
:104A500009F092C00E9425112FEF30E040E050E0B5
:104A600066E175E08EE893E03DC0D23009F048C0C1
:104A7000209106022223B9F0A70196010E94A4B753
:104A80008AE195E0223031054105510521F45DDDD3
:104A90009C014EE303C059DD9C0140E265E873E0F0
:104AA0008C2F0E94C710112309F466C06091EC049A
:104AB0007091ED048091EE049091EF04A7019601AE
:104AC0000E94A4B7223031054105510509F054C0B8
:104AD0000E94251124E031E040E050E06AE175E0F9
:104AE0008CE793E0DF91CF911F910F91FF90EF90B2
:104AF000DF90CF90BF90AF909F908F900C94740FE9
:104B0000D330D1F520910602222399F0A701960116
:104B10000E94A4B7233031054105510519F420E264
:104B20004EE302C020E240E26CE673E08C2F0E946C
:104B30009010112309F16091EC047091ED048091C3
:104B4000EE049091EF04A70196010E94A4B72330D0
:104B500031054105510581F40E942511DF91CF9166
:104B60001F910F91FF90EF90DF90CF90BF90AF908B
:104B70009F908F900C94CDA28091EC049091ED04C5
:104B8000A091EE04B091EF044497A105B10540F067
:104B90008092EC049092ED04A092EE04B092EF04A7
:104BA0006091EC047091ED048091EE049091EF041B
:104BB000A70196010E94A4B78091F50490E00396A6
:104BC000422F50E0841795074CF48DEF820F8093AD
:104BD000F50400930602DCEFD20FCFEFCF5FDF5F6B
:104BE000C43008F4C8CEDF91CF911F910F91FF9090
:104BF000EF90DF90CF90BF90AF909F908F900895EF
:104C00008F929F92AF92BF92CF92DF92EF92FF92DC
:104C10000F931F93CF93DF938091EC049091ED0459
:104C2000A091EE04B091EF0481309048A105B10548
:104C300040F01092EC041092ED041092EE041092E9
:104C4000EF046091EC047091ED048091EE0490917A
:104C5000EF0425E030E040E050E00E94A4B78091EE
:104C6000F50490E0A0E0B0E0281739074A075B0799
:104C700010F42093F504D091F5041091F60412FB82
:104C8000112710F9C0E0B5E0CB2ED12CE12CF12C8E
:104C900002E2802E912CA12CB12C01E06091EC0459
:104CA0007091ED048091EE049091EF04D11133C026
:104CB00020910602222371F023E065307105810501
:104CC000910510F443E001C040E267E572E08C2FEB
:104CD0000E949010112309F49BC18091EC049091E3
:104CE000ED04A091EE04B091EF040597A105B10584
:104CF00008F08EC10E94251184EF98E1909308027C
:104D0000809307021092EC041092ED041092EE04CE
:104D10001092EF04B4C1D130D9F5209106022223BC
:104D2000B9F0A70196010E94A4B78CE592E021306A
:104D300031054105510521F408DC9C014EE303C017
:104D400004DC9C0140E26BE472E08C2F0E94C710EF
:104D5000112309F45DC16091EC047091ED04809120
:104D6000EE049091EF04A70196010E94A4B72130B0
:104D700031054105510509F04BC10E94251127EE6F
:104D800033E04AE050E06CE572E08FE392E03DC032
:104D9000D23009F048C0209106022223B9F0A701C1
:104DA00096010E94A4B780E795E0223031054105C5
:104DB000510521F4CADB9C014EE303C0C6DB9C0114
:104DC00040E266E372E08C2F0E94C710112309F4C1
:104DD0001FC16091EC047091ED048091EE049091FC
:104DE000EF04A70196010E94A4B7223031054105C6
:104DF000510509F00DC10E94251124E031E040E089
:104E000050E060E775E08DE292E0DF91CF911F9175
:104E10000F91FF90EF90DF90CF90BF90AF909F9059
:104E20008F900C94740FD330D9F520910602222371
:104E3000B9F0A70196010E94A4B785EF9EE0233048
:104E400031054105510521F480DB9C014EE303C08F
:104E50007CDB9C0140E26BE172E08C2F0E94C7106A
:104E6000112309F4D5C06091EC047091ED04809198
:104E7000EE049091EF04A70196010E94A4B723309D
:104E800031054105510509F0C3C00E9425112FEFDE
:104E900030E040E050E065EF7EE089E092E0B5CFA1
:104EA000D430D9F5209106022223B9F0A70196014A
:104EB0000E94A4B78AE592E02430310541055105EE
:104EC00021F443DB9C014EE303C03FDB9C0140E245
:104ED00062E072E08C2F0E94C710112309F498C081
:104EE0006091EC047091ED048091EE049091EF04D8
:104EF000A70196010E94A4B7243031054105510550
:104F000009F086C00E94251127EE33E04AE050E008
:104F10006AE572E08BEF91E078CFD530D9F520913A
:104F200006022223B9F0A70196010E94A4B788E5E2
:104F300092E0253031054105510521F406DB9C0145
:104F40004EE303C002DB9C0140E263EF71E08C2F73
:104F50000E94C710112309F45BC06091EC047091AA
:104F6000ED048091EE049091EF04A70196010E9458
:104F7000A4B7253031054105510509F049C00E940B
:104F8000251127EE33E04AE050E068E572E08BEE51
:104F900091E03BCFD630E1F520910602222399F033
:104FA000A70196010E94A4B726303105410551059D
:104FB00019F420E24EE302C020E240E26AED71E023
:104FC0008C2F0E949010112319F16091EC047091C4
:104FD000ED048091EE049091EF04A70196010E94E8
:104FE000A4B7263031054105510591F40E942511E1
:104FF00085ED91E0DF91CF911F910F91FF90EF90A0
:10500000DF90CF90BF90AF909F908F900C94A77F30
:105010008091EC049091ED04A091EE04B091EF0426
:105020008397A105B10540F08092EC049092ED04C5
:10503000A092EE04B092EF046091EC047091ED0444
:105040008091EE049091EF04A70196010E94A4B70D
:105050008091F50490E00396422F50E08417950765
:105060004CF48DEF820F8093F50400930602DCEF81
:10507000D20FCFEFCF5FDF5FC43008F40FCEDF91E8
:10508000CF911F910F91FF90EF90DF90CF90BF9045
:10509000AF909F908F900895CF93DF931F921F92B0
:1050A000CDB7DEB7FC0160817181828193810E945E
:1050B00042B47A836983CE01019647DA0F900F904C
:1050C000DF91CF910895FC01808191818436910513
:1050D00024F164E670E00E9491B7CB012AE030E051
:1050E000B9010E9491B7805D8093C0048081918155
:1050F000B9010E9491B7CB01B9010E9491B7805DBF
:105100008093C10480819181B9010E9491B7805D33
:105110008093C2041092C30423C08A309105BCF06E
:105120002AE030E0B9010E9491B7CB01B9010E9499
:1051300091B7805D8093C00480819181B9010E9404
:1051400091B7805D8093C1041092C20409C06AE0E7
:1051500070E00E9491B7805D8093C0041092C104FA
:1051600080EC94E008958F929F92AF92BF92CF927D
:10517000DF92EF92FF92FC01C080D180E280F38049
:1051800020E030E0A901C701B6010E94D6B518168B
:105190001CF4C701B60103C0C701B60190580E94B4
:1051A00042B46B017C016031F7E27F078105910514
:1051B00094F020E137E240E050E00E94C6B7CA0117
:1051C000B9012AE030E040E050E00E94C6B7605DDF
:1051D0006093C0040AC080E28093C00498EEC916B0
:1051E00093E0D906E104F104A4F0C701B60128EE6A
:1051F00033E040E050E00E94C6B7CA01B9012AE09E
:1052000030E040E050E00E94C6B7605D6093C104AA
:1052100008C08093C104E4E6CE16D104E104F10491
:10522000A4F0C701B60124E630E040E050E00E945F
:10523000C6B7CA01B9012AE030E040E050E00E9460
:10524000C6B7605D6093C20408C08093C204FAE0F0
:10525000CF16D104E104F104ACF08AE0882E912C41
:10526000A12CB12CC701B601A50194010E94C6B7BB
:10527000CA01B901A50194010E94C6B7605D60939F
:10528000C30402C08093C304C701B6012AE030E022
:1052900040E050E00E94C6B7605D6093C404109285
:1052A000C50480EC94E0FF90EF90DF90CF90BF902A
:1052B000AF909F908F9008958F929F92AF92BF92E0
:1052C000CF92DF92EF92FF92CF9320E030E040E266
:1052D00051E4FC0160817181828193810E94A8B6B2
:1052E0000E9442B497FD02C02BE201C02DE2209340
:1052F000C0046B017C0197FF08C0F094E094D09447
:10530000C094C11CD11CE11CF11CC701B60120E1F5
:1053100037E240E050E00E94C6B79AE0892E912C17
:10532000A12CB12CCA01B901A50194010E94C6B7F4
:10533000605D6093C104C701B60128EE33E040E030
:1053400050E00E94C6B7CA01B901A50194010E94AC
:10535000C6B7605D6093C204C701B60124E630E0C1
:1053600040E050E00E94C6B7CA01B901A50194010E
:105370000E94C6B7605D6093C304C701B601A50172
:1053800094010E94C6B7C62FCA01B901A5019401B4
:105390000E94C6B7605D6093C4048EE28093C5042A
:1053A000C05DC093C6041092C70480EC94E0CF9116
:1053B000FF90EF90DF90CF90BF90AF909F908F9035
:1053C00008958F929F92AF92BF92CF92DF92EF9209
:1053D000FF92CF9320E030E048EC52E4FC01608182
:1053E0007181828193810E94A8B60E9442B497FD88
:1053F00002C02BE201C02DE22093C0046B017C01AE
:1054000097FF08C0F094E094D094C094C11CD11CC4
:10541000E11CF11CC701B60120E137E240E050E099
:105420000E94C6B76AE0862E912CA12CB12CCA012D
:10543000B901A50194010E94C6B7605D6093C104E3
:10544000C701B60128EE33E040E050E00E94C6B745
:10545000CA01B901A50194010E94C6B7605D6093BD
:10546000C204C701B60124E630E040E050E00E94EB
:10547000C6B7CA01B901A50194010E94C6B7605D13
:105480006093C3048EE28093C404C701B601A501F2
:1054900094010E94C6B7C62FCA01B901A5019401A3
:1054A0000E94C6B7605D6093C504C05DC093C6042A
:1054B0001092C70480EC94E0CF91FF90EF90DF90C2
:1054C000CF90BF90AF909F908F9008956F927F92F2
:1054D0008F929F92AF92BF92CF92DF92EF92FF9204
:1054E0000F931F93CF93DF9300D01F92CDB7DEB7FA
:1054F0008091EC049091ED04A091EE04B091EF0442
:1055000081309048A105B10540F01092EC04109252
:10551000ED041092EE041092EF046091EC0470918F
:10552000ED048091EE049091EF0425E030E040E03E
:1055300050E00E94A4B78091F50490E0A0E0B0E0B4
:10554000281739074A075B0710F42093F5040091E8
:10555000F5047090F60472FA772470F810E065E0B4
:10556000C62ED12CE12CF12C73E6872E912CA12C88
:10557000B12C662463944091EC045091ED04609149
:10558000EE047091EF04011133C08091060288236C
:1055900071F023E0453051056105710510F443E0D9
:1055A00001C040E262E076E0812F0E9490107720F7
:1055B00009F4E5C58091EC049091ED04A091EE040E
:1055C000B091EF040597A105B10508F0D8C50E9478
:1055D00025118EE89BE190930802809307021092B8
:1055E000EC041092ED041092EE041092EF04FFC54B
:1055F000013009F07EC0809106028823C9F0CB01FA
:10560000BA01A70196010E94A4B787ED9AE0213064
:1056100031054105510521F4A6DD9C014EE303C08F
:10562000A2DD9C0140E26DEF75E0812F0E94C71062
:10563000772009F4A4C56091EC047091ED04809189
:10564000EE049091EF04A70196010E94A4B72130C7
:1056500031054105510509F092C50E94251180913F
:105660000702909108029093E5048093E4048091EE
:10567000EC049091ED049093E3048093E20482E0C3
:10568000809306028DEF97E39093080280930702C0
:1056900088EF95E09093E1048093E00487ED9AE031
:1056A0009093DF048093DE0485E090E0A0E0B0E01A
:1056B0008093DA049093DB04A093DC04B093DD04C0
:1056C0008EED93E0A0E0B0E08093D6049093D704F1
:1056D000A093D804B093D9042AE037ED43E25CE309
:1056E0006091D70A7091D80A8091D90A9091DA0A0C
:1056F00037C4023009F042C0809106028823C9F005
:10570000CB01BA01A70196010E94A4B78FEC9AE0E1
:10571000223031054105510521F4BEDC9C014EE3E8
:1057200003C0BADC9C0140E26DEE75E0812F0E945F
:10573000C710772009F423C56091EC047091ED0443
:105740008091EE049091EF04A70196010E94A4B706
:10575000223031054105510509F011C50E9425117E
:10576000E12C10E8F12E07E714E420E030E040E8F7
:105770005FE36FEC7AE082EE95E089C0033009F0D8
:1057800042C0809106028823C9F0CB01BA01A7016B
:1057900096010E94A4B78BEC9AE0233031054105B5
:1057A000510521F40EDE9C014EE303C00ADE9C018C
:1057B00040E26AED75E0812F0E94C710772009F45E
:1057C000DEC46091EC047091ED048091EE04909140
:1057D000EF04A70196010E94A4B7233031054105CB
:1057E000510509F0CCC40E942511E12C10E8F12EDE
:1057F00007E714E42DEC3CEC4CEC5DE36BEC7AE059
:1058000082ED95E043C4043009F044C08091060263
:105810008823C9F0CB01BA01A70196010E94A4B761
:1058200087EC9AE0243031054105510521F434DC40
:105830009C014EE303C030DC9C0140E26AEC75E061
:10584000812F0E94C710772009F499C46091EC045D
:105850007091ED048091EE049091EF04A701960100
:105860000E94A4B7243031054105510509F087C4D1
:105870000E942511E12C10E8F12E07E714E420E046
:1058800030E040E85FE367EC7AE082EC95E00E946C
:10589000BE0FADC4053009F042C0809106028823D6
:1058A000C9F0CB01BA01A70196010E94A4B78FEFFE
:1058B0009AE0253031054105510521F4EDDB9C01CD
:1058C0004EE303C0E9DB9C0140E269EB75E0812F08
:1058D0000E94C710772009F452C46091EC047091C3
:1058E000ED048091EE049091EF04A70196010E94CF
:1058F000A4B7253031054105510509F040C40E9487
:105900002511E12C10ECF12E09E714E420E030E041
:1059100040E85FE36FEF7AE080EB95E0B8CF0630C8
:1059200009F042C0809106028823C9F0CB01BA0178
:10593000A70196010E94A4B783E09BE026303105C1
:105940004105510521F4A8DB9C014EE303C0A4DB13
:105950009C0140E267EA75E0812F0E94C710772022
:1059600009F40DC46091EC047091ED048091EE0493
:105970009091EF04A70196010E94A4B7263031054B
:105980004105510509F0FBC30E942511E12C10ECE3
:10599000F12E09E714E420E030E040E85FE363E043
:1059A0007BE08EE995E073CF073009F042C080912B
:1059B00006028823C9F0CB01BA01A70196010E9413
:1059C000A4B787E09BE0273031054105510521F45C
:1059D00063DB9C014EE303C05FDB9C0140E265E9B1
:1059E00075E0812F0E94C710772009F4C8C3609129
:1059F000EC047091ED048091EE049091EF04A70106
:105A000096010E94A4B7273031054105510509F0E0
:105A1000B6C30E942511E12C10ECF12E09E714E425
:105A200020E030E040E85FE367E07BE08CE895E071
:105A30002ECF083009F042C0809106028823C9F0B9
:105A4000CB01BA01A70196010E94A4B78BE09BE0AD
:105A5000283031054105510521F41EDB9C014EE340
:105A600003C01ADB9C0140E263E875E0812F0E94CD
:105A7000C710772009F483C36091EC047091ED04A2
:105A80008091EE049091EF04A70196010E94A4B7C3
:105A9000283031054105510509F071C30E942511D7
:105AA000E12C10ECF12E09E714E420E030E040E8AE
:105AB0005FE36BE07BE08AE795E0E9CE093009F02F
:105AC00041C0809106028823C9F0CB01BA01A70129
:105AD00096010E94A4B78BED9AE02930310541056B
