:100000000C94DD0D0C940E0E0C940E0E0C940E0E32
:100010000C940E0E0C940E0E0C940E0E0C940E0EF0
:100020000C940E0E0C940E0E0C940E0E0C940E0EE0
:100030000C940E0E0C94129D0C940E0E0C940E0E3D
:100040000C940E0E0C94A0670C940E0E0C940E0ED5
:100050000C940E0E0C940E0E0C9405780C940797CD
:100060000C940E0E0C9450140C940E0E0C940E0E58
:100070000C940E0E0C940E0E0C940E0E0C940E0E90
:100080000C940E0E0C940E0E0C940E0E0C940E0E80
:100090000C940E0E0C940E0E0C940E0E0C940E0E70
:1000A0000C940E0E0C940E0E0C940E0E0C940E0E60
:1000B0000C940E0E0C940E0E0C940E0E0C940E0E50
:1000C0000C940E0E0C940E0E0C940E0E0C940E0E40
:1000D0000C940E0E0C940E0E0C940E0E0C940E0E30
:1000E0000C940E0E142214221F221F221F222A22D9
:1000F0002A222A223F223522352235224E785D7867
:1001000079788878A278B178CB78CF78D778369814
:100110003B9840984A985498CD985E9866986E9807
:10012000789882988C989B98A598CD98AF98B99814
:10013000C398EF98F298E198E598EB982999F6988A
:10014000FA980099049908990E9912991699299983
:100150001C9920992499084AD73B3BCE016E84BC58
:10016000BFFDC12F3D6C74319ABD56833DDA3D0011
:10017000C77F11BED9E4BB4C3E916BAAAABE00005A
:1001800000803F05A84CCDB2D44EB93836A9020C38
:1001900050B9918688083CA6AAAA2ABE0000008011
:1001A0003F0048617264636F646564204465666102
:1001B000756C742053657474696E6773204C6F613D
:1001C0006465640053746F72656420736574746948
:1001D0006E67732072657472696576656400204489
:1001E000002049002020204D33303120500050495C
:1001F000442073657474696E67733A00205A002056
:10020000590020204D323036205800486F6D65204F
:100210006F666673657420286D6D293A002045006D
:10022000205A0020580020420020540020204D3247
:100230003035205300416476616E636564207661D9
:10024000726961626C65733A20533D4D696E206638
:100250006565647261746520286D6D2F73292C208B
:10026000543D4D696E2074726176656C20666565DB
:10027000647261746520286D6D2F73292C20423DB6
:100280006D696E696D756D207365676D656E74203F
:1002900074696D6520286D73292C20583D6D617837
:1002A000696D756D205859206A65726B20286D6DD7
:1002B0002F73292C20205A3D6D6178696D756D2052
:1002C0005A206A65726B20286D6D2F73292C2020AF
:1002D000453D6D6178696D756D2045206A65726B6D
:1002E00020286D6D2F73290020540020204D3230BE
:1002F00034205300416363656C65726174696F6E8D
:100300003A20533D616363656C65726174696F6E19
:100310002C20543D7265747261637420616363655F
:100320006C65726174696F6E00204500205A002070
:10033000590020204D3230312058004D6178696DD0
:10034000756D20416363656C65726174696F6E20C1
:10035000286D6D2F7332293A00204500205A002065
:10036000590020204D3230332058004D6178696D9E
:10037000756D2066656564726174657320286D6DA6
:100380002F73293A00204500205A002059002020D0
:100390004D39322058005374657073207065722097
:1003A000756E69743A0053657474696E677320538F
:1003B000746F726564006563686F3A005041524122
:1003C00044412E2000496D70726573736F72612015
:1003D00070617261646120706F72206572726F73F8
:1003E0002E20436F7365727465206F206572726F83
:1003F000206520757365204D39393920706172612F
:10040000207265636F6D65C3A76172212E20285429
:10041000656D7065726174757261207265696E696F
:1004200063696164612E20416A7573746520616E31
:10043000746573206465207265636F6D65C3A76121
:1004400072290050415241444120444520454D45C8
:1004500052472E00496D70726573736F7261207020
:10046000617261646120636F6D206B696C6C282917
:10047000202121006F6B005265656E766961723ACA
:10048000002200436F6D616E646F20646573636F5B
:100490006E68656369646F3A220054726F636172BB
:1004A0002046696C616D656E746F005A204F6666F8
:1004B000736574203A20007A5F6D61783A20007A83
:1004C0005F6D696E3A20005A204F6666736574004E
:1004D0005A204F6666736574206F6B007A5F6D619A
:1004E000783A20007A5F6D696E3A2000795F6D611D
:1004F000783A2000795F6D696E3A2000785F6D610F
:10050000783A2000785F6D696E3A2000205A3A00F0
:1005100020593A0020436F6E746120583A002045FC
:100520003A00205A3A0020593A00583A00464952B7
:100530004D574152455F4E414D453A4D61726C6990
:100540006E2056313B20537072696E7465722F674E
:1005500072626C206D617368757020666F722067BF
:10056000656E36204649524D574152455F55524CB3
:100570003A687474703A2F2F6669726D776172658C
:100580002E756C74696D616B65722E636F6D205092
:10059000524F544F434F4C5F56455253494F4E3A7A
:1005A000312E30204D414348494E455F5459504506
:1005B0003A4445534B424F582045585452554445B0
:1005C000525F434F554E543A3120555549443A30C5
:1005D000303030303030302D303030302D30303021
:1005E000302D303030302D30303030303030303011
:1005F0003030300A004445534B424F58204F666616
:100600002E004445534B424F582050524F4E5441B8
:10061000210042617365207175656E74652E00203E
:10062000423A0020453A00543A00417175656365CD
:100630006E646F206120426173652E0041717565A3
:100640006369646F2E0020573A0020453A00543AFF
:10065000004171756563656E646F2E2E2E00204219
:10066000403A0020403A00202F003A002054002059
:100670002F0020423A00202F006F6B20543A0025B3
:1006800069206D696E2C20256920736563004669B9
:100690006D206461206C69737461206465206172EF
:1006A000717569766F7300436F6D65C3A76F2064C2
:1006B00061206C6973746120646520617271756971
:1006C000766F730053656D206D6F76696D656E741E
:1006D0006F005265746F6D616E646F20696D70722A
:1006E0002E004573706572616E646F206F72646571
:1006F0006D005265706F75736F2E2E2E0025692068
:10070000686F757273202569206D696E75746573E5
:1007100000496D7072657373616F207465726D69E5
:100720006E616461005041524144412E2000496D88
:1007300070726573736F72612070617261646120A1
:10074000706F72206572726F732E20436F736572C3
:100750007465206F206572726F2065207573652047
:100760004D3939392070617261207265636F6D6532
:10077000C3A76172212E202854656D706572617463
:10078000757261207265696E6963696164612E20AA
:10079000416A7573746520616E74657320646520A9
:1007A0007265636F6D65C3A7617229006F6B004E40
:1007B000616F206861206F206E756D65726F2064B7
:1007C00061206C696E686120636F6D206F206368C3
:1007D00065636B73756D2C20556C74696D61206C4D
:1007E000696E68613A004E616F20666F6920706FB4
:1007F00073736976656C20656E636F6E7472617277
:10080000206F20636865636B73756D20636F6D2067
:100810006F206E756D65726F206461206C696E6803
:10082000612C20556C74696D61206C696E68612063
:100830003A004F20636865636B73756D204E616F7E
:1008400020636F696E636964652C20556C74696DF3
:1008500061206C696E68613A004F204E756D65725B
:100860006F206461206C696E6861204E616F206545
:1008700020696775616C20616F20756C74696D6F9C
:10088000204E756D65726F206461206C696E6861C1
:100890002B312C20556C74696D61206C696E686118
:1008A0003A004D3131300053616C766F2E006F6B22
:1008B000004D3239002020506C616E6E65724275B9
:1008C0006666657242797465733A2000206D656DC5
:1008D0006F726961204C697672653A2000446563E5
:1008E000202038203230313500436F6D70696C65DF
:1008F000643A200028446176696420427261616D27
:100900002900207C20417574686F723A200044658C
:100910006320203820323031352032333A34343AB3
:1009200031320020556C74696D6120617475616CA1
:10093000697A6163616F3A2000312E302E30004DAC
:1009400061726C696E0020526573657420706F72FD
:1009500020536F6674776172650020526573657409
:1009600020706F7220426C6F717565696F00205244
:100970006573657420706F7220766F6C7461676543
:100980006D20696E636F72726574610020526573C9
:1009900065742045787465726E6F00506F7765726C
:1009A0005570007374617274002200656E71756514
:1009B000696E672022002200656E717565696E6739
:1009C000202200FFFFFF0000A0400000A040000028
:1009D000004000004D4300004D430000484300002C
:1009E0000000000000000000000000004D43000077
:1009F0004D430000484300000000000000000000DC
:100A000000006563686F3A004572726F723A004188
:100A1000414141E1414143454545454949494944F1
:100A2000EE4F4F4F4FEF784F555555F55954E26102
:100A3000616161E1616163656565656969696964F1
:100A4000EE6F6F6F6FEFFD6F757575F579747900E7
:100A50007C3C3E5E2B3D3F2F5B5D3B2C2A225C00A5
:100A60004D383420582059205A2045004E616F20BF
:100A7000706F6465206162726972206F20737562A5
:100A80002064697265746F72696F3A004D32340088
:100A90004D3233202573006175746F25692E670010
:100AA0004572726F20616F2065736372657665723F
:100AB000206E6F206172717569766F004E616F20D4
:100AC0006573746120736520696D7072696D696EFC
:100AD000646F20636F6D206F205344002F005344D8
:100AE00020696D7072696D696E646F206F20627924
:100AF000746520002E0044656C6574696F6E206615
:100B000061696C65642C2046696C653A2000466911
:100B10006C652064656C657465643A002E006F70C6
:100B2000656E206661696C65642C2046696C653A67
:100B30002000457363726576656E646F206E6F206A
:100B40006172717569766F3A20002E004572726F7E
:100B500020616F2061627269722C20417271756927
:100B6000766F3A20002E004572726F20616F20610F
:100B7000627269722C204172717569766F3A200039
:100B80004172717569766F2073656C6563696F6E0C
:100B900061646F002053697A653A0041727175692A
:100BA000766F2061626572746F3A002E0045727232
:100BB0006F20616F2061627269722C2041727175C1
:100BC00069766F3A20004E6F7720667265736820F1
:100BD00066696C653A20004E6F7720646F696E67B6
:100BE0002066696C653A20002220706F7300222015
:100BF000706172656E743A2200535542524F5554DB
:100C0000494E452043414C4C207461726765743AEB
:100C10002200747279696E6720746F2063616C6C56
:100C2000207375622D67636F64652066696C6573F8
:100C3000207769746820746F6F206D616E79206C05
:100C40006576656C732E204D4158206C6576656C19
:100C50002069733A0063617274616F205344206F9E
:100C60006B0046616C686120616F2061627269721D
:100C70002064697265746F72696F207261697A00AD
:100C800046616C686120616F206D6F6E74617220C7
:100C9000766F6C756D650046616C686120616F20D0
:100CA000696E6963696172205344006563686F3AD5
:100CB000004572726F723A002045787472757361E4
:100CC0006F206D7569746F206C6172676120657645
:100CD00069746164610020457874727573616F2076
:100CE00061206672696F2065766974616461006570
:100CF00063686F3A0046696E616C206465206375B5
:100D000072736F3A205A00205A3A0046696E616C3D
:100D100020646520637572736F3A20590020593A38
:100D20000046696E616C20646520637572736F3A6A
:100D300020580020583A0046696E616C2064652096
:100D4000637572736F3A200024F4D43050C38E2040
:100D5000C2A24017828B7011127A910D816CD90A50
:100D6000A861E108C7586607615143061E4B5D053F
:100D7000C145A7041A411104093D98037139310393
:100D80004036DB0265339102D4305402802E1D02BE
:100D9000632CEE01752AC501B028A001102781013E
:100DA0008F2564012B244B01E0223401AC211F016B
:100DB0008D200D01801FFC00841EED00971DDF00BB
:100DC000B81CD200E61BC600201BBC00641AB2008F
:100DD000B219A8000A19A0006A189900D117910049
:100DE00040178B00B516840031167E00B3157900CC
:100DF0003A157300C7146F0058146A00EE136600AA
:100E00008813630025135E00C7125B006C12570045
:100E100015125400C111510070114F0021114B00E7
:100E2000D61049008D1047004610440002104200C1
:100E3000C00F4000800F3E00420F3C00060F3B00F9
:100E4000CB0E3800930E37005C0E3500270E3400B1
:100E5000F30D3200C10D3100900D3000600D2E00F9
:100E6000320D2D00050D2C00D90C2B00AE0C2900E5
:100E7000850C29005C0C2700350C27000E0C260081
:100E8000E80B2400C40B2400A00B23007D0B2300DF
:100E90005A0B2100390B2100180B2000F80A1F0003
:100EA000D90A1E00BB0A1E009D0A1D00800A1D00F3
:100EB000630A1C00470A1B002C0A1B00110A1A00B7
:100EC000F7091A00DD091900C4091900AB09190056
:100ED000920917007B091800630917004C091600D6
:100EE00036091600200916000A091500F508150034
:100EF000E0081400CC081400B8081400A40814007A
:100F0000900813007D0812006B08130058081200A7
:100F100046081200340811002308110012081100BD
:100F200001081100F0071000E0071000D0071000C2
:100F3000C0071000B0070F00A107100091070E00B6
:100F400083070F0074070F0065070E0057070E0098
:100F500049070E003B070D002E070E0020070D006D
:100F600013070D0006070D00F9060C00ED060D0035
:100F7000E0060C00D4060C00C8060C00BC060C00F1
:100F8000B0060C00A4060B0099060C008D060B00A1
:100F900082060B0077060B006C060B0061060A0048
:100FA00057060B004C060A0042060A0038060A00E3
:100FB0002E060A0024060A001A060A001006090076
:100FC00007060A00FD050900F4050900EB05090004
:100FD000E2050900D9050900D0050900C705090087
:100FE000BE050900B5050800AD050800A505090006
:100FF0009C050800940508008C050800840508007D
:101000007C050800740508006C05070065050800EC
:101010005D050700560508004E0507004705070057
:101020004005080038050700310507002A050700BC
:10103000230507001C050600160507000F0507001D
:101040000805060002050700FB040600F50407007A
:10105000EE040600E8040600E2040700DB040600D4
:10106000D5040600CF040600C9040600C304060028
:10107000BD040600B7040600B1040500AC04060078
:10108000A6040600A00405009B04060095040500C4
:10109000900406008A04050085040500800406000B
:1010A0007A04050075040500700405006B04050052
:1010B00066040500610405005C0405005704050092
:1010C000520405004D0405004804050043040500D2
:1010D0003E0404003A040500350405003004040011
:1010E0002C04050027040400230405001E0404004A
:1010F0001A04040016040500110404000D04040081
:10110000090405000404040000040400FC030400B6
:10111000F8030400F4030400F0030400EC030400EB
:10112000E8030400E4030400E0030400DC0304001B
:10113000D8030400D4030400D0030400CC0304004B
:10114000C8030300C503030024F404D9201BC40C06
:101150005C0E9804C4095F0265077101F405F9008B
:10116000FB04B30048048700C1036900580355001D
:1011700003034500BE023A008402310053022A00F4
:101180002902250004022000E4011C00C801190006
:10119000AF011700980114008401130071011000C1
:1011A0006101100051010E0043010D0036010B00DA
:1011B0002B010B0020010B00150109000C01090097
:1011C00003010800FB000800F3000800EB00070023
:1011D000E4000600DE000600D8000600D20006008B
:1011E000CC000500C7000500C2000500BD000400DA
:1011F000B9000400B5000400B1000400AD00040013
:10120000A9000400A5000300A20003009F00040041
:101210009B00030098000300950002009300030068
:10122000900003008D0002008B0003008800020084
:101230008600020084000300810002007F0002009B
:101240007D0002007B0002007900020077000100AF
:1012500076000200740002007200010071000200BA
:101260006F0002006D0001006C0002006A000100C6
:1012700069000200670001006600010065000100CE
:1012800064000200620001006100010060000100D2
:101290005F0002005D0001005C0001005B000100D6
:1012A0005A000100590001005800010057000100D8
:1012B00056000100550001005400010053000000D9
:1012C00053000100520001005100010050000100D4
:1012D0004F0001004E0000004E0001004D000100D3
:1012E0004C0001004B0000004B0001004A000100CF
:1012F00049000100480000004800010047000100CB
:1013000046000000460001004500000045000100C5
:1013100044000100430000004300010042000000BF
:1013200042000100410000004100010040000100B6
:101330003F0000003F0001003E0000003E000100B1
:101340003D0000003D0001003C0000003C000000AA
:101350003C0001003B0000003B0001003A0000009F
:101360003A00010039000000390001003800000097
:10137000380000003800010037000000370001008D
:101380003600000036000000360001003500000085
:10139000350000003500010034000000340000007A
:1013A000340001003300000033000000330001006E
:1013B0003200000032000000320001003100000065
:1013C000310000003100010030000000300000005A
:1013D000300001002F0000002F0000002F0000004F
:1013E0002F0001002E0000002E0000002E00010042
:1013F0002D0000002D0000002D0000002D00010038
:101400002C0000002C0000002C0000002C0001002B
:101410002B0000002B0000002B0000002B0001001F
:101420002A0000002A0000002A0000002A00010013
:101430002900000029000000290000002900000008
:1014400029000100280000002800000028000000FA
:1014500028000000280001002700000027000000ED
:1014600027000000270000002700010026000000E0
:1014700026000000260000002600000026000100D3
:1014800025000000250000002500000025000000C8
:1014900025000000250001002400000024000000B9
:1014A00024000000240000002400010023000000AC
:1014B00023000000230000002300000023000000A0
:1014C0002300000023000100220000002200000091
:1014D0002200000022000000220000002200010083
:1014E0002100000021000000210000002100000078
:1014F0002100000021000000210001002000000068
:10150000200000002000000020000000200000005B
:101510002000000020000000200001001F0000004B
:101520001F0000001F0000001F0000001F0000003F
:101530001F0000001F0001001E0000001E00000030
:101540001E0000001E0000006563686F3A004572CF
:10155000723A204D494E54454D50003A204578741A
:101560007275646572207377697463686564206F4F
:1015700066662E204D494E54454D50207472696761
:1015800067657265642021004572723A204D4158AA
:1015900054454D50003A2045787472756465722048
:1015A0007377697463686564206F66662E204D41A9
:1015B0005854454D502074726967676572656420A0
:1015C000210048656174696E67206661696C6564B5
:1015D00000202D20496E76616C69642065787472F4
:1015E00075646572206E756D6265722021005049C8
:1015F00044204175746F74756E652066696E6973F9
:10160000686564212050757420746865206C61736E
:1016100074204B702C204B6920616E64204B642039
:10162000636F6E7374616E74732066726F6D206188
:10163000626F766520696E746F20436F6E666967AE
:1016400075726174696F6E2E68005049442041754F
:10165000746F74756E65206661696C6564212074B1
:10166000696D656F75740020403A006F6B20543AC5
:10167000006F6B20423A00504944204175746F74EA
:10168000756E65206661696C6564212054656D70B6
:101690006572617475726520746F6F206869676820
:1016A00000204B643A2000204B693A2000204B7008
:1016B0003A200020436C61737369632050494420D1
:1016C000002054753A2000204B753A2000206D61AF
:1016D000783A2000206D696E3A200020643A20009C
:1016E00020626961733A20006563686F3A00457251
:1016F000726F723A0043617274616F2072656D6F30
:101700007669646F0043617274616F20696E7365FE
:101710007269646F002D2D3A2D2D002D2D2D005353
:1017200044002059000120004D3630300054726FC3
:101730006361722046696C616D656E746F00466C02
:1017400075786F3000466C75786F3000466C757830
:101750006F00466C75786F0056656C2076656E7408
:10176000696C61646F720056656C2076656E746991
:101770006C61646F7200024269636F0002426963C8
:101780006F0056656C6F6369646164650056656CD3
:101790006F63696461646500204D656E75207072C9
:1017A000696E636970616C200300580059005A002B
:1017B0004578747275646572004578747275736FDC
:1017C00072004D6F7665205A004D6F766520590086
:1017D0004D6F76652058004D6F766572206569788B
:1017E0006F2020202020207E004D6F7665722030F3
:1017F0002E316D6D004D6F76657220316D6D004D2F
:101800006F7665722031306D6D0050726570617257
:101810006172207E004D6F766572206569786F2059
:1018200020202020207E004D3830004C69676172F6
:1018300020456E6572676961004D383100446573FB
:101840006C6967617220456E6572676961004573F6
:101850006672696172005072652D617175656365AC
:101860007220504C4100473238004972207061723A
:1018700061206F726967656D004D3834004465738F
:101880006C69676172206D6F746F72657300204DB3
:10189000656E75207072696E636970616C200300FB
:1018A00047756172646172206D656D6F7269610068
:1018B000024269636F00024269636F0056656C20E3
:1018C00076656E74696C61646F720056656C207623
:1018D000656E74696C61646F720054656D706572D9
:1018E000617475726100416A757374657320504C40
:1018F000410056656C2076656E74696C61646F7228
:101900000056656C2076656E74696C61646F720058
:10191000024269636F00024269636F00436F6E7435
:10192000726F6C65200300446563202038203230DC
:1019300031352032333A34343A31350047697468EE
:10194000756220636865636B6F7574004465736BC3
:10195000626F783A207630320056657273616F207C
:101960004669726D776172650056657273616F20AA
:101970004669726D7761726500526573742E2064DA
:101980006520656D657267656E2E004361727265D4
:10199000676172206D656D6F726961004775617274
:1019A000646172206D656D6F7269610054656D7060
:1019B0006572617475726100204D656E752070727C
:1019C000696E636970616C2003004D3834205820C3
:1019D00059205A2045004D3234004D3233202573B2
:1019E00000052E2E00204D656E75207072696E63A5
:1019F0006970616C20030053656D206361727461CE
:101A00006F20534400494D5052494D495200506196
:101A100072617220696D7072657373616F005265D7
:101A2000746F6D617220696D7072657373616F00A0
:101A300050617573617220696D7072657373616F47
:101A400000436F6E74726F6C652003005072657096
:101A500061726172207E00416A7573746172202028
:101A600020207E004D6F6E69746F7261722020209D
:101A7000030000000A0B02090C0D0E080703040105
:101A80000000000000000000000000000000000056
:101A90000000000000000000000000000000121123
:101AA0001000000000000000000000000000000026
:101AB00000000000000000000102102020080810B3
:101AC00020401020408002010201080402010102AE
:101AD0000408102040808040201008040201800487
:101AE00002018040201008040201080402010102E2
:101AF00004081020408001020408102040800505E1
:101B00000505070508080808020202020A0A080873
:101B100004040404010101010101010103030303A1
:101B200003030303040707070C0C0C0C0C0C0C0C30
:101B30000202020206060606060606060B0B0B0B41
:101B40000B0B0B0B00002200250028002B002E00A1
:101B50003100340002010000050108010B01000002
:101B60002100240027002A002D003000330001014D
:101B70000000040107010A01024E414E494E49543A
:101B800059494E46CDCCCC3D0AD7233C17B7D13866
:101B900077CC2B329595E6241FB14F0A00002041E7
:101BA0000000C84200401C4620BCBE4CCA1B0E5A56
:101BB000AEC59D7459399D905D3911241FBECFEF7C
:101BC000D1E2DEBFCDBF00E00CBF14E0A0E0B2E088
:101BD000EEE7F1E501E00BBF02C007900D92AC3AD1
:101BE000B107D9F722E1ACEAB4E001C01D92A736F3
:101BF000B207E1F71BE1C8EBDBE100E006C022978A
:101C00000109FE010BBF0E947FA2C43BD10780E007
:101C10000807A9F70E94729D0C94AEA80C940000CE
:101C2000EF92FF920F931F93CF93DF931F92CDB745
:101C3000DEB78C017B01460FF70161917F01F8014E
:101C40008081918149830E94F7A7F8018081918169
:101C500001969183808349814E11EECF0F90DF91E1
:101C6000CF911F910F91FF90EF900895EF92FF9207
:101C70000F931F93CF93DF931F92CDB7DEB78C01E5
:101C80007B01460FF8018081918149830E94EFA773
:101C9000F70181937F01F801808191810196918301
:101CA000808349814E11EECF0F90DF91CF911F912C
:101CB0000F91FF90EF9008950F931F93CF93DF93B1
:101CC000CDB7DEB72C970FB6F894DEBF0FBECDBFF1
:101CD00080E390E3A0E3B0E08D839E83AF83B88779
:101CE00004E610E01C870B8744E0BE016B5F7F4F6A
:101CF000CE010B9695DF40E16BE071E1CE010B96D2
:101D00008FDF40E16BE171E1CE010B9689DF40E1AD
:101D10006BEF70E1CE010B9683DF44E063EF70E17F
:101D2000CE010B967DDF44E06FEE70E1CE010B96A5
:101D300077DF44E067EF70E1CE010B9671DF44E09E
:101D40006FED70E1CE010B966BDF44E06BE271E169
:101D5000CE010B9665DF44E06BEE70E1CE010B9691
:101D60005FDF44E067EE70E1CE010B9659DF44E09F
:101D700063EE70E1CE010B9653DF4CE06CE177E04F
:101D8000CE010B964DDF42E06BE272E1CE010B9685
:101D900047DF42E069E272E1CE010B9641DF42E0AB
:101DA00067E272E1CE010B963BDF42E065E272E151
:101DB000CE010B9635DF42E063E272E1CE010B9675
:101DC0002FDF42E061E272E1CE010B9629DF44E0B1
:101DD00069E077E0CE010B9623DF44E062E572E034
:101DE000CE010B961DDF44E06EE472E0CE010B964F
:101DF00017DF44E06AE472E0CE010B9611DF80E267
:101E000090E09A87898742E0BE01675F7F4FCE01ED
:101E10000B9606DF86E591E3A0E3B0E089839A8321
:101E2000AB83BC831C870B8744E0BE016F5F7F4F91
:101E3000CE010B96F5DEE6EBF3E08491882341F0CA
:101E40009091C00095FFFCCF8093C6003196F5CFEE
:101E5000E6EAF3E08491882341F09091C00095FF79
:101E6000FCCF8093C6003196F5CF8091C00085FFEE
:101E7000FCCF8AE08093C6002C960FB6F894DEBFA4
:101E80000FBECDBFDF91CF911F910F910895CF93DA
:101E9000DF93C6EBD3E0FE018491882341F090915B
:101EA000C00095FFFCCF8093C6003196F5CFE6E9E0
:101EB000F3E08491882341F09091C00095FFFCCF1E
:101EC0008093C6003196F5CF8091C00085FFFCCF8E
:101ED0008AE08093C600FE018491E6EBF3E088235C
:101EE00049F09091C00095FFFCCF8093C6003196D9
:101EF0008491F5CF40910B1150910C1160910D110F
:101F000070910E118EE893E00E94F31740910F112B
:101F10005091101160911111709112118BE893E0A2
:101F20000E94F317409113115091141160911511F3
:101F30007091161188E893E00E94F31740911711F1
:101F4000509118116091191170911A1185E893E060
:101F50000E94F3178091C00085FFFCCF8AE0809338
:101F6000C600FE018491E6EBF3E0882349F09091EE
:101F7000C00095FFFCCF8093C60031968491F5CFC9
:101F8000EBE6F3E08491882341F09091C00095FF47
:101F9000FCCF8093C6003196F5CF8091C00085FFBD
:101FA000FCCF8AE08093C600FE018491E6EBF3E06B
:101FB000882349F09091C00095FFFCCF8093C60024
:101FC00031968491F5CF40911B1150911C11609175
:101FD0001D1170911E1182E693E00E94F31740914B
:101FE0001F115091201160912111709122118FE5E4
:101FF00093E0F9D74091231150912411609125115C
:10200000709126118CE593E0EED740912711509105
:1020100028116091291170912A1189E593E0E3D785
:102020008091C00085FFFCCF8AE08093C600FE014E
:102030008491E6EBF3E0882349F09091C00095FF8E
:10204000FCCF8093C60031968491F5CFEBE3F3E0AB
:102050008491882341F09091C00095FFFCCF80933C
:10206000C6003196F5CF8091C00085FFFCCF8AE095
:102070008093C600FE018491E6EBF3E0882349F0EB
:102080009091C00095FFFCCF8093C600319684915B
:10209000F5CF4091FB105091FC106091FD107091B4
:1020A000FE1082E393E0B0D74091FF1050910011F1
:1020B00060910111709102118FE293E0A5D74091D8
:1020C00003115091041160910511709106118CE279
:1020D00093E09AD74091071150910811609109112E
:1020E00070910A1189E293E08FD78091C00085FF3B
:1020F000FCCF8AE08093C600FE018491E6EBF3E01A
:10210000882349F09091C00095FFFCCF8093C600D2
:1021100031968491F5CFE4EFF2E08491882341F089
:102120009091C00095FFFCCF8093C6003196F5CF0B
:102130008091C00085FFFCCF8AE08093C600FE013D
:102140008491E6EBF3E0882349F09091C00095FF7D
:10215000FCCF8093C60031968491F5CF4091F31067
:102160005091F4106091F5107091F6108BEE92E0A2
:102170003AD74091EF105091F0106091F1107091AA
:10218000F21088EE92E02FD78091C00085FFFCCF3F
:102190008AE08093C600FE018491E6EBF3E0882399
:1021A00049F09091C00095FFFCCF8093C600319616
:1021B0008491F5CFE5E3F2E08491882341F090919A
:1021C000C00095FFFCCF8093C6003196F5CF80917B
:1021D000C00085FFFCCF8AE08093C600FE01849199
:1021E000E6EBF3E0882349F09091C00095FFFCCF27
:1021F0008093C60031968491F5CF4091F7105091AD
:10220000F8106091F9107091FA108CE292E0EBD620
:102210004091DF105091E0106091E1107091E21058
:1022200089E292E0E0D640912B1150912C116091FF
:102230002D1170912E1186E292E0E6D64091EB10BE
:102240005091EC106091ED107091EE1083E292E0ED
:10225000CAD64091E7105091E8106091E910709152
:10226000EA1080E292E0BFD64091E3105091E41072
:102270006091E5107091E6108DE192E0B4D6809106
:10228000C00085FFFCCF8AE08093C600FE018491E8
:10229000E6EBF3E0882349F09091C00095FFFCCF76
:1022A0008093C60031968491F5CFEBE0F2E0849103
:1022B000882341F09091C00095FFFCCF8093C60029
:1022C0003196F5CF8091C00085FFFCCF8AE08093E6
:1022D000C600FE018491E6EBF3E0882349F090917B
:1022E000C00095FFFCCF8093C60031968491F5CF56
:1022F00040911C0750911D0760911E0770911F07A8
:1023000082E092E070D640912007509121076091C1
:102310002207709123078FEF91E065D64091240743
:102320005091250760912607709127078CEF91E067
:102330005AD68091C00085FFFCCF8AE08093C6000A
:10234000FE018491E6EBF3E0882349F09091C00010
:1023500095FFFCCF8093C60031968491F5CFEEEEC9
:10236000F1E08491882341F09091C00095FFFCCF6B
:102370008093C6003196F5CF8091C00085FFFCCFD9
:102380008AE08093C600FE01C491E6EBF3E0CC2323
:1023900049F08091C00085FFFCCFC093C600319604
:1023A000C491F5CF40915202509153026091540272
:1023B0007091550284EE91E016D660914E027091B4
:1023C0004F0280915002909151020E944A79AB01D4
:1023D000BC0181EE91E007D660914A0270914B02F8
:1023E00080914C0290914D020E945679AB01BC0144
:1023F0008EED91E0F8D58091C00085FFFCCF8AE09A
:102400008093C600DF91CF910895AF92BF92CF9293
:10241000DF92EF92FF920F931F93CF93DF93CDB78D
:10242000DEB7E0970FB6F894DEBF0FBECDBF80E1F8
:10243000EFE6F2E0DE01919601900D928A95E1F7C8
:1024400080E1EFE7F2E0DE01519601900D928A956E
:10245000E1F780E1EFE8F2E0DE01119601900D92E4
:102460008A95E1F76E0181E2C80ED11C8BE0E82E5F
:1024700081E1F82E8E010F5E1F4F6BE171E1AE011D
:102480004F5F5F4F9BEFA92E90E1B92E20E030E027
:10249000F60181919191A191B1916F01F701819321
:1024A0009193A193B1937F01F80181919191A191B1
:1024B000B1918F01FB0181939193A193B193BF01DE
:1024C000FA0181919191A191B191AF01F5018193AF
:1024D0009193A193B1935F012F5F3F4F243031055A
:1024E000B9F60E94AD6680E090E0AAE7B5E480937B
:1024F000F3109093F410A093F510B093F61080E0D1
:1025000090E8ABE3B5E48093EF109093F010A093C4
:10251000F110B093F2101092F7101092F810109280
:10252000F9101092FA1080E29EE4A0E0B0E08093EF
:102530002B1190932C11A0932D11B0932E1110926A
:10254000DF101092E0101092E1101092E21080E083
:1025500090E0A0EAB1E48093EB109093EC10A0938C
:10256000ED10B093EE108DEC9CECACECBEE38093E0
:10257000E7109093E810A093E910B093EA1080E080
:1025800090E0A0EAB0E48093E3109093E410A0936D
:10259000E510B093E61010922407109225071092D0
:1025A00026071092270710922007109221071092F9
:1025B00022071092230710921C0710921D071092F9
:1025C0001E0710921F0782ED90E090932C128093CB
:1025D0002B1286E490E090932A1280932912109295
:1025E0002812109227128AEF90E09093261280937F
:1025F000251284E690E09093241280932312109287
:102600002212109221128AE999E9A1EBB1E4809398
:10261000520290935302A0935402B093550261E783
:102620007DE38AE89FE30E94447960934E027093B1
:102630004F02809350029093510260E070E084EE6C
:1026400092E40E94507960934A0270934B02809307
:102650004C0290934D020E944F7080E090E0A0E801
:10266000BFE38093460290934702A0934802B09341
:102670004902E6EBF3E08491882341F09091C00099
:1026800095FFFCCF8093C6003196F5CFE2EAF1E0EA
:102690008491882341F09091C00095FFFCCF8093F6
:1026A000C6003196F5CF8091C00085FFFCCF8AE04F
:1026B0008093C600E0960FB6F894DEBF0FBECDBF84
:1026C000DF91CF911F910F91FF90EF90DF90CF900E
:1026D000BF90AF900895CF93DF93CDB7DEB72C971F
:1026E0000FB6F894DEBF0FBECDBF84E690E09C87A6
:1026F0008B8786E591E3A0E3B0E089839A83AB837F
:10270000BC8344E0BE016B5F7F4FCE010B96AEDA17
:1027100043E050E0BE016B5F7F4FCE0101960E9407
:10272000B6A5892B09F0B1C040E16BE071E1CE01A3
:102730000B969CDA40E16BE171E1CE010B9696DAE3
:1027400040E16BEF70E1CE010B9690DA0E94AD662E
:1027500044E063EF70E1CE010B9688DA44E06FEE5F
:1027600070E1CE010B9682DA44E067EF70E1CE01B2
:102770000B967CDA44E06FED70E1CE010B9676DAD1
:1027800044E06BE271E1CE010B9670DA44E06BEE4F
:1027900070E1CE010B966ADA44E067EE70E1CE019B
:1027A0000B9664DA44E063EE70E1CE010B965EDADC
:1027B0004CE06CE177E0CE010B9658DA42E06BE238
:1027C00072E1CE010B9652DA42E069E272E1CE018B
:1027D0000B964CDA42E067E272E1CE010B9646DAE4
:1027E00042E065E272E1CE010B9640DA42E063E23C
:1027F00072E1CE010B963ADA42E061E272E1CE017B
:102800000B9634DA44E069E077E0CE010B962EDADD
:1028100044E062E572E0CE010B9628DA44E06EE413
:1028200072E0CE010B9622DA44E06AE472E0CE0157
:102830000B961CDA42E0BE01675F7F4FCE010B961C
:1028400015DA0E944F70E6EBF3E08491882341F0A3
:102850009091C00095FFFCCF8093C6003196F5CFD4
:10286000E4ECF1E08491882341F09091C00095FF61
:10287000FCCF8093C6003196F5CF8091C00085FFD4
:10288000FCCF8AE08093C60001C0BFDD00DB2C9640
:102890000FB6F894DEBF0FBECDBFDF91CF91089584
:1028A0001F920F920FB60F9211240BB60F922F9317
:1028B0003F934F935F936F938F939F93EF93FF9308
:1028C0006091C60020912D0530912E05C901019619
:1028D0008F77992740912F055091300584179507E0
:1028E00041F0F901E355FB4F608390932E058093EF
:1028F0002D05FF91EF919F918F916F915F914F9176
:102900003F912F910F900BBE0F900FBE0F901F9015
:1029100018959A01AB01211581EE38074105510543
:1029200049F182E08093C00060E079E08DE390E0BF
:102930000E944DA22150310941095109CA01B90132
:1029400022E030E040E050E00E944DA23093C5000C
:102950002093C4008091C10080618093C100809168
:10296000C10088608093C1008091C100806880931D
:10297000C10008951092C00020E130E0E7CF20911F
:102980002F053091300580912D0590912E058217ED
:10299000930771F0F901E355FB4F80812F5F3F4FA3
:1029A0002F7733273093300520932F0590E008953B
:1029B0008FEF9FEF089580912F05909130059093B0
:1029C0002E0580932D0508954F925F926F927F920E
:1029D0008F929F92AF92BF92CF92DF92EF92FF922F
:1029E0000F931F93CF93DF93CDB7DEB7A0970FB6AA
:1029F000F894DEBF0FBECDBF5C01411551056105E6
:102A00007105E9F420E030E040E350E060E070E080
:102A1000A0960FB6F894DEBF0FBECDBFDF91CF9169
:102A20001F910F91FF90EF90DF90CF90BF90AF90EC
:102A30009F908F907F906F905F904F905BC08E01C2
:102A40000F5F1F4FC12CD12C76014801422E512C13
:102A5000612C712C8FEFC81AD80AE80AF80ACB014A
:102A6000BA01A30192010E942BA2CA01F80161934D
:102A70008F01A901BC01411551056105710551F78F
:102A8000F1E0CF1AD108E108F108F401EC0DFD1DC9
:102A900080818A3010F440E301C047E3480F552796
:102AA00047FD5095652F752F20E030E0C50122D0FD
:102AB00081E0C81AD108E108F108EFEFCE16DE0672
:102AC000EE06FE0611F7A0960FB6F894DEBF0FBE15
:102AD000CDBFDF91CF911F910F91FF90EF90DF90CD
:102AE000CF90BF90AF909F908F907F906F905F90AE
:102AF0004F9008952115310539F48091C00085FF6C
:102B0000FCCF4093C60008952A30310509F41CC05B
:102B10005BCFCF93DF93EC0120E030E04DE050E05D
:102B200060E070E0E7DF20E030E04AE050E060E0A5
:102B300070E0CE01DF91CF91DDCF9A01AB01662726
:102B400057FD6095762FD6CFCF92DF92EF92FF920E
:102B5000CF93DF93EC016A017B0177FF0FC020E088
:102B600030E04DE250E060E070E0C4DFF094E094CB
:102B7000D094C094C11CD11CE11CF11C2AE0B70107
:102B8000A601CE01DF91CF91FF90EF90DF90CF9023
:102B90001BCF2115310539F48091C00085FFFCCF92
:102BA0004093C600089510CF9A01462F50E060E090
:102BB00070E0EFCFCF93DF93EC019A01AB0160E0BF
:102BC00070E0E7DFCE01DF91CF91A3CF8F929F928C
:102BD000AF92BF92CF92DF92EF92FF921F93CF936B
:102BE000DF93EC016A017B01122F20E030E0A901A4
:102BF000C701B6010E945A9E87FF0CC020E030E05A
:102C00004DE250E060E070E0CE0174DFF7FAF0943E
:102C1000F7F8F094B12C60E070E080E09FE3B1162B
:102C200041F020E030E040E251E40E94619EB39424
:102C3000F6CF9B01AC01C701B6010E94819D6B01DB
:102C40007C010E94CE9E4B015C010E94FA9E9B017A
:102C5000AC01C701B6010E94809D6B017C012AE096
:102C6000B501A401CE01B0DE112361F0E2EAF4E087
:102C70008191882339F09091C00095FFFCCF80931B
:102C8000C600F6CF112319F120E030E040E251E414
:102C9000C701B6010E942FA16B017C010E94C99E51
:102CA0004B01AA2497FCA094BA2CB501A401CE0133
:102CB0004BDFC501B4010E94FC9E9B01AC01C70122
:102CC000B6010E94809D6B017C011150DBCFDF912A
:102CD000CF911F91FF90EF90DF90CF90BF90AF907A
:102CE0009F908F90089572CFFC01659175918591A9
:102CF00094910895EF92FF920F931F93CF93DF93D8
:102D0000EC01CC0FDD1FCC0FDD1FCE018252964FA0
:102D1000EBDF9E01285D384F79018E01045E184F6C
:102D2000F80120813181428153810E94819DF70108
:102D30006083718382839383CE018A50964FD4DF60
:102D40009E01205F384F7901F80120813181428155
:102D500053810E94819DF7016083718382839383F5
:102D6000CE018651964FC0DFCF5EDD4FF801208146
:102D70003181428153810E94819D688379838A8356
:102D80009B83DF91CF911F910F91FF90EF9008955A
:102D90002F923F924F925F926F927F928F929F926B
:102DA000AF92BF92CF92DF92EF92FF920F931F9359
:102DB000CF93DF9300D01F92CDB7DEB74C01FC015B
:102DC000ED53F64FB490880F991F880F991F9C837D
:102DD0008B83885D984F1C01FC0110821182128246
:102DE000138224E337E040E357E06CE277E088E2C7
:102DF00097E00E94DB658B819C818E52964F74DF39
:102E00006B017C016B2D772767FD7095872F972FBE
:102E10000E94FC9E2B013C018B819C818A50994F22
:102E20005C0120E030E040EC5FE3C701B6010E94A6
:102E30002FA1A30192010E942FA1F501608371834C
:102E4000828393838B819C81895D9D4F9A83898343
:102E5000FC01608171818281938160930B02709388
:102E60000C0280930D0290930E0220E030E040E7C8
:102E700052E40E94619E38E0C32E37E0D32E7B01DE
:102E80008C0122E037E04EEF56E06AEF76E086EF05
:102E900096E00E94425C0E94516FF1011082118203
:102EA0001282138224E337E040E357E06CE277E0DC
:102EB00088E297E00E94DB658B819C818A53964F64
:102EC0009C838B8311DF9058A30192010E942FA154
:102ED000F501608371838283938320E030E040E7D3
:102EE00052E460910B0270910C0280910D0290915E
:102EF0000E020E94619E7B018C0122E037E04EEFC2
:102F000056E06AEF76E086EF96E00E94425C0E940F
:102F1000516F8B819C81E8DE9B01AC010E94819DF9
:102F2000A30192010E942FA1F50160837183828326
:102F3000938320E030E040E05FE3E981FA81608143
:102F40007181828193810E942FA160930B02709303
:102F50000C0280930D0290930E0220E030E040E7D7
:102F600052E40E94619E7B018C0122E037E04EEF2B
:102F700056E06AEF76E086EF96E00E94425C0E949F
:102F8000516FC401B7DEF10180819181A281B381CB
:102F9000F50180839183A283B38310920B02109278
:102FA0000C0210920D0210920E020E949067F40122
:102FB000E35FF84F81E080830F900F900F900F90A8
:102FC000DF91CF911F910F91FF90EF90DF90CF9005
:102FD000BF90AF909F908F907F906F905F904F9039
:102FE0003F902F900895FC012491222341F03091CD
:102FF000C00035FFFCCF2093C6000196F4CF22E03D
:1030000030E08CEA94E06FCEFC012491222341F061
:103010003091C00035FFFCCF2093C6000196F4CF5D
:103020002AE030E08CEA94E0B4CDCF93DF931F9296
:103030001F92CDB7DEB780916112909162129E010E
:103040002F5F3F4F009719F42756324102C0281BCB
:10305000390B3A83298389819A810F900F90DF91F0
:10306000CF91089520914B0530914C0524303105C6
:103070000CF06AC040914D0550914E0560E6649F8A
:103080009001659F300D1124BC01C9018B5A9A4FE4
:103090000E94AFA5E2E0FAE08491882341F090918C
:1030A000C00095FFFCCF8093C6003196F5CFE8EBCA
:1030B000F9E08491882341F09091C00095FFFCCF06
:1030C0008093C6003196F5CF80914D0590914E05C5
:1030D00020E6289FF001299FF00D1124EB5AFA4FAA
:1030E0008191882339F09091C00095FFFCCF8093A7
:1030F000C600F6CFE6EBF9E08491882341F0909189
:10310000C00095FFFCCF8093C6003196F5CF80912B
:10311000C00085FFFCCF8AE08093C60080914D05FA
:1031200090914E05019664E070E00E9418A2909381
:103130004E0580934D0580914B0590914C0501966D
:1031400090934C0580934B05089520914B05309149
:103150004C05243031050CF06AC040914D0550916A
:103160004E0560E6649F9001659F300D1124BC01FF
:10317000C9018B5A9A4F0E943BA5E2E0FAE0849184
:10318000882341F09091C00095FFFCCF8093C6004A
:103190003196F5CFEBEAF9E08491882341F09091E4
:1031A000C00095FFFCCF8093C6003196F5CF80918B
:1031B0004D0590914E0520E6289FF001299FF00DC6
:1031C0001124EB5AFA4F8191882339F09091C00075
:1031D00095FFFCCF8093C600F6CFE9EAF9E0849131
:1031E000882341F09091C00095FFFCCF8093C600EA
:1031F0003196F5CF8091C00085FFFCCF8AE08093A7
:10320000C60080914D0590914E05019664E070E0F6
:103210000E9418A290934E0580934D0580914B0516
:1032200090914C05019690934C0580934B05089521
:10323000809A889A269A2E980895809A8898089558
:10324000F7DF40E950ED63E070E08CEA94E061DB89
:10325000E3EAF9E08491882341F09091C00095FF62
:10326000FCCF8093C6003196F5CF8091C00085FFDA
:10327000FCCF8AE08093C60082E09AE0FC012491B2
:10328000222341F03091C00035FFFCCF2093C600CF
:103290003196F5CF24B720FF14C0EBE9F9E0349163
:1032A000332341F04091C00045FFFCCF3093C6006E
:1032B0003196F5CF3091C00035FFFCCF3AE0309326
:1032C000C60021FF14C0ECE8F9E03491332341F04B
:1032D0004091C00045FFFCCF3093C6003196F5CF3A
:1032E0003091C00035FFFCCF3AE03093C60022FF9A
:1032F00014C0EEE6F9E03491332341F04091C00070
:1033000045FFFCCF3093C6003196F5CF3091C00019
:1033100035FFFCCF3AE03093C60023FF14C0EAE546
:10332000F9E03491332341F04091C00045FFFCCFD8
:103330003093C6003196F5CF3091C00035FFFCCFF9
:103340003AE03093C60025FF14C0E6E4F9E024918A
:10335000222341F03091C00035FFFCCF2093C600FE
:103360003196F5CF2091C00025FFFCCF2AE02093B5
:10337000C60014BEEFE3F9E02491222341F030911E
:10338000C00035FFFCCF2093C6003196F5CFE9E3AE
:10339000F9E02491222341F03091C00035FFFCCFA9
:1033A0002093C6003196F5CF2091C00025FFFCCFB9
:1033B0002AE02093C600FC012491E2E0FAE02223F7
:1033C00049F03091C00035FFFCCF2093C600319604
:1033D0002491F5CFE3E2F9E02491222341F03091EA
:1033E000C00035FFFCCF2093C6003196F5CFEEE04C
:1033F000F9E02491222341F03091C00035FFFCCF49
:103400002093C6003196F5CFE2E0F9E02491222323
:1034100041F03091C00035FFFCCF2093C6003196BB
:10342000F5CFE4EFF8E02491222341F03091C00081
:1034300035FFFCCF2093C6003196F5CF2091C00018
:1034400025FFFCCF2AE02093C600E9EEF8E02491A6
:10345000222341F03091C00035FFFCCF2093C600FD
:103460003196F5CFEDEDF8E02491222341F0309133
:10347000C00035FFFCCF2093C6003196F5CF2091D8
:10348000C00025FFFCCF2AE02093C600FC018491F8
:10349000E2E0FAE0882349F09091C00095FFFCCF6C
:1034A0008093C60031968491F5CFECECF8E08491DE
:1034B000882341F09091C00095FFFCCF8093C60017
:1034C0003196F5CFB2DD4AE050E0BC018CEA94E0E1
:1034D00034DBE5EBF8E08491882341F09091C00063
:1034E00095FFFCCF8093C6003196F5CF4AE050E0BF
:1034F00060ED74E08CEA94E020DB8091C00085FFF1
:10350000FCCF8AE08093C6001092510510925205BC
:103510001092530510925405DED80E947B720E94CF
:10352000F25B0E9473950E94CF6E0E949E88FFEF0F
:1035300023ED80E3F15020408040E1F700C000001F
:103540000895809145059091460560E070E00196F0
:103550000C9492A280914505909146054AE050E076
:1035600060E070E001960C94FAA3682F772767FD5E
:10357000709520914F053091500540E6429FC00163
:10358000439F900D11248B5A9A4F0E94A4A59093AB
:1035900046058093450521E0892B09F420E0822F20
:1035A00008950E945197609341057093420580935E
:1035B00043059093440508950E94519760934105F7
:1035C000709342058093430590934405E0914F0525
:1035D000F0915005EF5AFA4F8081811114C0E4E751
:1035E000F4E08491882341F09091C00095FFFCCFD6
:1035F0008093C6003196F5CF8091C00085FFFCCF47
:103600008AE08093C60008958CEA94E0D4D9E7E775
:10361000F4E08491882341F09091C00095FFFCCFA5
:103620008093C6003196F5CF4091DA065091DB06C3
:103630006091DC067091DD064F5F5F4F6F4F7F4FEB
:103640002AE030E08CEA94E055DA8091C00085FFF2
:10365000FCCF8AE08093C600AFCF2F923F924F926B
:103660005F926F927F928F929F92AF92BF92CF9212
:10367000DF92EF92FF920F931F93CF93DF93CDB71B
:10368000DEB76E970FB6F894DEBF0FBECDBF70E603
:10369000972E04E010E0EEE2EE2EE7E0FE2EFAE0D8
:1036A0008F2EACEACA2EA7E0DA2E7724739480918D
:1036B0002D0590912E0520912F0530913005821B0C
:1036C000930B8F779927892B09F421C280914B05A1
:1036D00090914C0504970CF01AC28CEA94E04FD9F3
:1036E00080934A0520914805309149058A3061F060
:1036F0008D3051F08A3321F490914705992321F0C0
:103700002F3531050CF427C12115310509F441C1CC
:1037100080914D0590914E05989E5001999EB00C58
:103720001124F501E20FF31FEB5AFA4F108220919A
:10373000470521110BC1FC01EF5AFA4F1082950188
:103740002B5A3A4F19016EE470E0C9010E94A4A5FA
:103750000097E9F1909346058093450582199309F6
:103760008A0D9B1D4AE050E060E070E08A5A9A4F53
:103770000E94FAA36093DE067093DF068093E00652
:103780009093E1062091DA063091DB064091DC0649
:103790005091DD062F5F3F4F4F4F5F4FA0904D057B
:1037A000B0904E05621773078407950709F4F4C0BB
:1037B0009A9CC0019B9C900D112462EA78E08B5A80
:1037C0009A4F0E9469A5892B09F0E6C073C16AE28D
:1037D00070E0C1010E94A4A5892B09F443C0E8E070
:1037E000FAE08491882341F09091C00095FFFCCFCE
:1037F0008093C6003196F5CFEFEAF7E084918823F5
:1038000041F09091C00095FFFCCF8093C6003196A7
:10381000F5CF4091DA065091DB066091DC0670919D
:10382000DD062AE030E08CEA94E064D98091C000A3
:1038300085FFFCCF8AE08093C60010924905109264
:103840004805CBC28091DE069091DF06A091E0068C
:10385000B091E1068093DA069093DB06A093DC0634
:10386000B093DD0680914D0590914E05989E5001D4
:10387000999EB00C1124C5018B5A9A4F1C0167E424
:1038800070E00E94A4A5009709F44BC090934605F0
:1038900080934505821993098A0D9B1D60E070E0B5
:1038A0008A5A9A4F0E9492A20E94C99E6430710562
:1038B00008F037C08091330581111AC080913E070E
:1038C00081112FC0F6018491ECEAF7E0882349F0DA
:1038D0009091C00095FFFCCF8093C60031968491F3
:1038E000F5CF8091C00085FFFCCF8092C60019C043
:1038F000F7018491EEE2F7E0882349F09091C0004F
:1039000095FFFCCF8093C60031968491F5CF8091CE
:10391000C00085FFFCCF8092C60085E297E00E9440
:103920002C8880914D0590914E050196B8010E941A
:1039300018A290934E0580934D0580914B05909170
:103940004C05019690934C0580934B0510924905C8
:1039500010924805ACCE8B3311F4709247059091CC
:1039600047059111A4CE40914D0550914E05B901E6
:103970006F5F7F4F7093490560934805949EF001F7
:10398000959EF00D1124E20FF31FEB5AFA4F80833E
:103990008ECE1092470521C29A9C10019B9C300C40
:1039A0001124C1018B5A9A4F5C016AE270E00E94B7
:1039B000A4A5009781F5E8E0FAE08491882341F01E
:1039C0009091C00095FFFCCF8093C6003196F5CF53
:1039D000E6EEF7E08491882341F09091C00095FFD6
:1039E000FCCF8093C6003196F5CF4091DA06509116
:1039F000DB066091DC067091DD062AE030E08CEA9F
:103A000094E078D88091C00085FFFCCF8AE0809355
:103A1000C600FADD12CF20E0612CF101E20FF11DAA
:103A2000EB5AFA4F30813A3219F02F5F6326F5CF07
:103A300090934605809345058A199B09820D931D35
:103A400060E070E08A5A9A4F0E9492A20E94C99E3A
:103A5000262D30E02617370709F4F4CEE8E0FAE027
:103A60008491882341F09091C00095FFFCCF809312
:103A7000C6003196F5CFE2E3F8E08491882341F067
:103A80009091C00095FFFCCF8093C6003196F5CF92
:103A90004091DA065091DB066091DC067091DD06FC
:103AA0002AE030E08CEA94E025D88091C00085FFC0
:103AB000FCCFACCFE8E0FAE08491882341F090910C
:103AC000C00095FFFCCF8093C6003196F5CFE9E5A5
:103AD000F8E08491882341F09091C00095FFFCCFDD
:103AE0008093C6003196F5CF4091DA065091DB06FF
:103AF0006091DC067091DD062AE030E08CEA94E00B
:103B00000E947A158091C00085FFFCCF7FCF809105
:103B10004007882309F461C18091480590914905C7
:103B2000892B09F05AC180914B0590914C05892B46
:103B300011F41092310558EE252E53E0352E412C0C
:103B4000512C6CE3C62ED12CE12CF12C8E010F5F91
:103B50001F4F40E6642E772473944091C109509121
:103B6000C2096091C3097091C4098091B90990910B
:103B7000BA09A091BB09B091BC09481759076A0757
:103B80007B0708F02AC180914B0590914C05049762
:103B90000CF023C18091310581111FC1809114095E
:103BA00090911509A0911609B09117098093C10948
:103BB0009093C209A093C309B093C4098CE099E023
:103BC0000E941E3E482F80934A058A30B9F04D303E
:103BD000A9F0433229F420914705211103C00EC0FA
:103BE0004A33C9F320914805309149052F353105F5
:103BF0002CF48F3FFFEF9F0709F0D1C04091C1091E
:103C00005091C2096091C3097091C4098091B909AA
:103C10009091BA09A091BB09B091BC094817590706
:103C20006A077B0708F481C0E1E1F7E0849188230B
:103C300041F09091C00095FFFCCF8093C600319673
:103C4000F5CF8091C00085FFFCCFFAE0F093C6006D
:103C50000E94519760933505709336058093370520
:103C6000909338058090390590903A05A0903B05D7
:103C7000B0903C05681979098A099B09A201910154
:103C80000E942BA249015A01CA01B901A70196015C
:103C90000E942BA2CA01B901A70196010E942BA282
:103CA0007F936F93C501B40120E13EE040E050E016
:103CB0000E942BA23F932F93ADEFB6E0BF93AF933B
:103CC0001F930F930E94D3A5E2E0FAE084910FB610
:103CD000F894DEBF0FBECDBF882349F09091C0009D
:103CE00095FFFCCF8093C60031968491F5CFF80103
:103CF0008191882339F09091C00095FFFCCF80938B
:103D0000C600F6CF8091C00085FFFCCF3AE030932B
:103D1000C600C8010E941D888EE397E00E94D3541C
:103D200061E08EE397E00E94355280914A0583322C
:103D300011F4709231052091480530914905211503
:103D4000310509F426CE80914D0590914E05689E6F
:103D5000F001699EF00D1124E20FF31FEB5AFA4FA8
:103D60001082FC01EF5AFA4F708220914B0530917E
:103D70004C052F5F3F4F30934C0520934B05019628
:103D800064E070E00E9418A290934E0580934D0568
:103D9000109247051092490510924805DECE4B332C
:103DA00011F470924705409147054111D2CE4091E0
:103DB0004D0550914E05B9016F5F7F4F70934905D6
:103DC00060934805649EF001659EF00D1124E20F9A
:103DD000F31FEB5AFA4F8083C0CE6E960FB6F8945D
:103DE000DEBF0FBECDBFDF91CF911F910F91FF902E
:103DF000EF90DF90CF90BF90AF909F908F907F908B
:103E00006F905F904F903F902F9008958F929F9268
:103E1000AF92BF92CF92DF92EF92FF920F931F93D8
:103E2000CF93DF93B6E1EB2EB4E0FB2E08E217E070
:103E3000C6EFD6E08AE3C82E87E0D82EF70181913D
:103E40007F0193DB882311F17CDB4B015C01F601E0
:103E50008081811103C06091D50601C061E070E0EE
:103E600080E090E00E94FC9EF80120813181428137
:103E700053810E942FA19B01AC01C501B4010E9496
:103E8000819D688379838A839B8309C0F80180813F
:103E90009181A281B38188839983AA83BB830C5FBC
:103EA0001F4F2496FFEFCF1ADF0A8AE1E81684E05D
:103EB000F80621F686E459DB8823D1F042DB6B015A
:103EC0007C016093E6067093E7068093E806909382
:103ED000E90620E030E0A9010E945DA0181644F434
:103EE000C0920B02D0920C02E0920D02F0920E02F0
:103EF000DF91CF911F910F91FF90EF90DF90CF90C6
:103F0000BF90AF909F908F90089580DF89E42DDB64
:103F1000882351F016DB6093EA067093EB068093DA
:103F2000EC069093ED0608C01092EA061092EB069C
:103F30001092EC061092ED068AE417DB882351F00C
:103F400000DB6093EE067093EF068093F00690938B
:103F5000F10608951092EE061092EF061092F00608
:103F60001092F10608950895CF92DF92EF92FF929A
:103F70000F931F930E9451976093410570934205E0
:103F800080934305909344052091F6063091F706FF
:103F90004091F8065091F906609128077091290721
:103FA00080912A0790912B070E945A9E811179C017
:103FB0002091FA063091FB064091FC065091FD06D7
:103FC00060912C0770912D0780912E0790912F07FB
:103FD0000E945A9E811165C020E030E040E752E423
:103FE00060910B0270910C0280910D0290910E0273
:103FF0000E94619E28E0C22E27E0D22E7B018C0118
:1040000022E037E04EEF56E06AEF76E086EF96E08A
:104010000E94425C8091F6069091F706A091F80606
:10402000B091F9068093280790932907A0932A0757
:10403000B0932B078091FA069091FB06A091FC06A5
:10404000B091FD0680932C0790932D07A0932E0727
:10405000B0932F078091FE069091FF06A091000774
:10406000B09101078093300790933107A0933207F6
:10407000B09333078091020790910307A091040742
:10408000B09105078093340790933507A0933607C6
:10409000B09337071F910F91FF90EF90DF90CF9073
:1040A00008956091250270912602882777FD8095FA
:1040B000982F0E94FC9E20910B0230910C0240919F
:1040C0000D0250910E020E942FA120E030E040E747
:1040D00052E40E94619E20E030E048EC52E488CF38
:1040E000AF92BF92CF92DF92EF92FF920F931F9306
:1040F000CF93DF93D82F2091EE063091EF064091B9
:10410000F0065091F1066091EA067091EB068091FD
:10411000EC069091ED060E946AA0C62F172F082F7B
:10412000F92E6091250270912602882777FD8095EF
:10413000982F0E94FC9E20910B0230910C0240911E
:104140000D0250910E020E942FA120E030E040E7C6
:1041500052E40E94619E20E030E048EC52E40E946C
:10416000619E209108072F93DF93FF920F931F9377
:10417000CF935B016C0132E0E32E01E020E04AEED8
:1041800056E066EF76E088E297E00E942B5580913A
:10419000F6069091F706A091F806B091F906809383
:1041A000280790932907A0932A07B0932B078091A3
:1041B000FA069091FB06A091FC06B091FD06809353
:1041C0002C0790932D07A0932E07B0932F07809173
:1041D000FE069091FF06A0910007B0910107809321
:1041E000300790933107A0933207B0933307809143
:1041F000020790910307A0910407B09105078093EF
:10420000340790933507A0933607B09337070E9481
:1042100051976093410570934205809343059093B5
:1042200044050F900F900F900F900F900F90DF911B
:10423000CF911F910F91FF90EF90DF90CF90BF90A3
:10424000AF900895F8940E944173159A10920D074B
:10425000179A10920E07429A10920F07A09A60E0E8
:104260008CE00E942A99E8E0FAE08491882341F0EA
:104270009091C00095FFFCCF8093C6003196F5CF9A
:10428000E4E5F4E08491882341F09091C00095FF2B
:10429000FCCF8093C6003196F5CF8091C00085FF9A
:1042A000FCCF8AE08093C60083E494E00E943B88C0
:1042B0000E941D19FFCFCF92DF92EF92FF920F93D2
:1042C0001F930E94519700913D0510913E0520914A
:1042D0003F0530914005C0904105D0904205E090E7
:1042E0004305F09044056C197D098E099F09061756
:1042F00017072807390728F4012B022B032B09F095
:10430000A1DF8091070290910802A0910902B0916B
:104310000A02892B8A2B8B2B09F10E94519700915D
:104320004105109142052091430530914405601BE1
:10433000710B820B930B00910702109108022091E0
:10434000090230910A02061717072807390730F4C7
:104350009091DA0B8091D90B981741F01F910F9132
:10436000FF90EF90DF90CF900C94265C159A1092FE
:104370000D07179A10920E07429A10920F07A09AF3
:10438000EDCF0E94417380913305811138C081E0E7
:10439000809333058091DA069091DB06A091DC06CC
:1043A000B091DD068093D6069093D706A093D806E9
:1043B000B093D906E8E0FAE08491882341F0909127
:1043C000C00095FFFCCF8093C6003196F5CFE5EC99
:1043D000F3E08491882341F09091C00095FFFCCFD9
:1043E0008093C6003196F5CF8091C00085FFFCCF49
:1043F0008AE08093C6008CEB93E00C942C8808959F
:1044000080913305089567707727E82FF0E0EE5824
:10441000F54E849190E0FC013797EC30F10578F58A
:10442000EE58FF4F0C9469A28091B100887F809371
:10443000B1008091B100862B8093B10008958091E6
:104440009100887F8093910080919100862B8093CA
:10445000910008958091A100887F8093A1008091B0
:10446000A100862B8093A100089580912101887F6F
:104470008093210180912101862B80932101089551
:10448000CF93DF93EC01809108078093340584E596
:104490006CD8811102C080E074C053D80E94CE9EB7
:1044A000609334056623B9F3E2E0FAE0849188234F
:1044B00041F09091C00095FFFCCF8093C6003196EB
:1044C000F5CFCD36D105B9F054F4C836D105B1F0E9
:1044D000C936D10509F045C0EAE2F3E021C0CA3D82
:1044E000D10531F0CD3DD105E1F5EFEDF2E036C07B
:1044F000E8EFF2E029C0E1E1F3E01CC0E3E4F3E01F
:104500008191882371F19091C00095FFFCCF809339
:10451000C600F6CF9091C00095FFFCCF8093C600F7
:1045200081918111F7CF1DC09091C00095FFFCCF04
:104530008093C60081918111F7CF13C09091C00084
:1045400095FFFCCF8093C60081918111F7CF09C000
:104550009091C00095FFFCCF8093C600819181119E
:10456000F7CF40E050E0609134058CEA94E00E947F
:10457000D4158091C00085FFFCCF8AE08093C600EF
:1045800081E0DF91CF9108953F924F925F926F92B9
:104590007F928F929F92AF92BF92CF92DF92EF92D3
:1045A000FF920F931F93CF93DF93CDB7DEB7E497BE
:1045B0000FB6F894DEBF0FBECDBF87E40E94B51AD8
:1045C000882309F490C30E94A11A0E94C99E6430F6
:1045D0007105B1F144F46230710511F144F577FFD2
:1045E00017C00C94CF366A35710509F428C334F42A
:1045F0006C31710509F46BC00C94CF366B357105C5
:1046000009F421C36C35710509F422C30C94CF362B
:1046100080913305811104C0F9DBA6DC0C94653868
:1046200080913305811103C070DC81E006C0809168
:104630003305811105C069DC80E052DD0C946538DA
:1046400082EF96E00E942C8880E50E94B51A8823AC
:1046500039F00E94A11A0E94CE9E4B015C0103C05A
:10466000812C912C540183E50E94B51A882361F0B6
:104670000E94A11A20E030E04AE754E40E942FA1F2
:104680000E94CE9E4B015C010E94516F0E94519787
:104690006B017C01C80CD91CEA1CFB1C0E945197C1
:1046A00060934105709342058093430590934405C0
:1046B0000E9451976C157D058E059F0510F00C9496
:1046C000CF360E947170F7DD0E94C688F1CF8091CD
:1046D0000B0290910C02A0910D02B0910E028093FA
:1046E000E2069093E306A093E406B093E50680917A
:1046F000250290912602909339078093380784E62B
:1047000090E090932602809325020E945197609337
:10471000410570934205809343059093440581E0E1
:104720000E9497678091280790912907A0912A07F6
:10473000B0912B078093F6069093F706A093F806A6
:10474000B093F90680912C0790912D07A0912E0728
:10475000B0912F078093FA069093FB06A093FC0676
:10476000B093FD068091300790913107A0913207F8
:10477000B09133078093FE069093FF06A093000745
:10478000B09301078091340790913507A0913607C7
:10479000B09137078093020790930307A093040713
:1047A000B093050710920B0210920C0210920D02AA
:1047B00010920E0288E50E94B51A882311F090E04D
:1047C0000AC089E50E94B51A8111F9CF8AE50E94D5
:1047D000B51A91E0982790930F0291110CC088E5CB
:1047E0000E94B51A882309F47CC189E50E94B51A94
:1047F000882309F476C11092280710922907109295
:104800002A0710922B0710922C0710922D07109256
:104810002E0710922F07E3ECF9E0149124E337E020
:1048200040E357E06CE277E088E297E00E94DB65C6
:1048300082ED99E00E94741620E030E040EC5FE3E6
:104840000E942FA16B017C01612F772767FD709576
:10485000872F972F0E94FC9E9B01AC01C701B601D8
:104860000E942FA16093F6067093F7068093F806D6
:104870009093F90686ED99E00E947416E4ECF9E055
:10488000149120E030E040EC5FE30E942FA16B0127
:104890007C01612F772767FD7095872F972F0E94E6
:1048A000FC9E9B01AC01C701B6010E942FA1609341
:1048B000FA067093FB068093FC069093FD06209108
:1048C0002702309128024091290250912A02209318
:1048D0000B0230930C0240930D0250930E02C090D5
:1048E0002B02D0902C02E0902D02F0902E02C701F6
:1048F000B6010E945A9E87FF08C0C0920B02D09258
:104900000C02E0920D02F0920E0282ED99E00E94FC
:1049100074166B017C0186ED99E00E9474169B0170
:10492000AC01C701B6010E945DA0181614F00C94EA
:10493000D23686ED99E00E9474166B017C0182EDFF
:1049400099E00E9474169B01AC01C701B6010E9458
:10495000619E9B01AC010E942FA120E030E040E865
:104960005FE30E94819D0E949CA19B01AC0160912C
:104970000B0270910C0280910D0290910E020E9428
:104980002FA160930B0270930C0280930D02909301
:104990000E0220E030E040E752E460910B0270919B
:1049A0000C0280910D0290910E020E94619EE8E03F
:1049B000CE2EE7E0DE2E7B018C0122E037E04EEFC9
:1049C00056E06AEF76E086EF96E00E94425C0E9435
:1049D000516F80E090E00E947A1681E090E00E94A2
:1049E0007A1624E337E040E357E06CE277E088E2B0
:1049F00097E00E94DB658091280790912907A0919C
:104A00002A07B0912B078093F6069093F706A093A0
:104A1000F806B093F90680912C0790912D07A0918C
:104A20002E07B0912F078093FA069093FB06A09370
:104A3000FC06B093FD0620E030E040E752E46091D0
:104A40000B0270910C0280910D0290910E020E9457
:104A5000619E7B018C0122E037E04EEF56E06AEF69
:104A600076E086EF96E00E94425C10920B02109274
:104A70000C0210920D0210920E020E94516F0E94C1
:104A800090678091F6069091F706A091F806B09194
:104A9000F9068093280790932907A0932A07B093DB
:104AA0002B078091FA069091FB06A091FC06B0912D
:104AB000FD0680932C0790932D07A0932E07B093AB
:104AC0002F078091FE069091FF06A0910007B091FC
:104AD00001078093300790933107A0933207B0937A
:104AE000330780910F0281110C94DC3688E50E9417
:104AF000B51A81110C94DC3680910F0281110C944F
:104B0000E23689E50E94B51A81110C94E23688E5F7
:104B10000E94B51A8823D1F00E94AA1A672B682B2D
:104B2000692BA1F00E94A11A20911C0730911D074A
:104B300040911E0750911F070E94819D6093280796
:104B40007093290780932A0790932B0789E50E9489
:104B5000B51A8823D1F00E94AA1A672B682B692BFB
:104B6000A1F00E94A11A20912007309121074091C5
:104B70002207509123070E94819D60932C07709318
:104B80002D0780932E0790932F0780910F0281119C
:104B90000C94E8368AE50E94B51A81110C94E83627
:104BA0008AE50E94B51A8823D1F00E94AA1A672BC1
:104BB000682B692BA1F00E94A11A20912407309143
:104BC000250740912607509127070E94819D6093F9
:104BD000300770933107809332079093330724E3B3
:104BE00037E040E357E06CE277E088E297E00E942C
:104BF000DB658091E2069091E306A091E406B09116
:104C0000E50680930B0290930C02A0930D02B093E3
:104C10000E02809138079091390790932602809375
:104C200025020E945197609341057093420580933D
:104C30004305909344050E9490670C94CF361092E0
:104C4000D5060C94CF3681E08093D5060C94CF36F0
:104C500085E40E94B51A811102C00E94516F56E18D
:104C6000C52E54E0D52E6CE1E62E67E0F62E08E264
:104C700017E0B12CF60181916F010E94B51A8823CB
:104C800039F1F3E0BF120CC00E94A11AF801608351
:104C900071838283938384E397E00E94806618C0C7
:104CA0000E94A11AF70120813181428153810E9423
:104CB000819DF801608371838283938324E337E0CD
:104CC00040E357E06CE277E088E297E00E94DB6522
:104CD000B394F4E0EF0EF11C0C5F1F4F24E0B2120E
:104CE000C9CF0C94CF368DE40E94B51A882311F4F5
:104CF0000C94FE350E94A11A0E94C99E623771056C
:104D000009F4A7C70CF0A7C06F31710509F43EC3C1
:104D1000A4F56631710509F4DDC1BCF4613171059A
:104D200009F49AC134F46230710508F43BC10C9463
:104D3000CF366431710509F499C10CF0C5C16231F7
:104D4000710509F4A8C60C94CF366A31710509F4CF
:104D5000F6C13CF46831710509F4DBC10CF4C0C143
:104D6000E8C16C31710509F4FEC10CF4F6C16E3175
:104D7000710509F42EC20C94CF366435710509F41F
:104D80008AC6A4F56035710509F46DC654F4603225
:104D9000710509F45DC26A32710509F455C30C94BA
:104DA000CF366235710509F46DC60CF06FC60E94EE
:104DB00041730E94516FA09A0E94B96F1092070729
:104DC0001092060768EE73E080E090E00E94809702
:104DD0000E94516F0E941D191092100285EF95E0FC
:104DE0000E942C880E94C6880C94CF3669367105C3
:104DF00009F484C324F56C35710509F484C668365A
:104E0000710509F44CC36535710511F00C94CF366A
:104E100083E50E94B51A0E94A11A20E030E04AE71B
:104E200054E40E942FA10E94CE9E60933D05709392
:104E30003E0580933F05909340050C94CF366B362A
:104E4000710509F40AC60CF4D8C56D36710509F46C
:104E500062C40C94CF366D3D710511F40C945C3135
:104E60000CF046C06E3B710509F4C3C4DCF467372F
:104E7000710509F494C054F46337710509F4C5C68B
:104E80006537710509F4D0C60C94CF3669377105C2
:104E900009F4C2C70CF4BCC76C38710509F41DC312
:104EA0000C94CF366C3C710511F40C94B3308CF437
:104EB000693C710511F40C9477306B3C710511F469
:104EC0000C949730683C710511F00C94CF360C941B
:104ED000FF2F6E3C710511F40C94313114F40C94D5
:104EE000D3306C3D710511F40C944D310C94CF36D8
:104EF000643F31E0730711F40C94EF322CF56D32FE
:104F000091E0790711F40C94E33164F4623E710589
:104F100011F40C9482316C32714011F40C94AD3167
:104F20000C94CF366F3221E0720711F40C94B73233
:104F300014F40C94A9326039714011F00C94CF36FE
:104F40000E94516F0C94CF36683592E0790711F4C6
:104F50000C94CD3394F4663FF1E07F0711F40C9488
:104F6000F53214F40C94F232673F714011F00C9456
:104F7000CF360E94470F0C94CF36603A83E0780713
:104F800009F4D0C1673E93E0790711F40C94E7353A
:104F90006335734011F00C94CF360C94F832EBE685
:104FA000F3E044C782EE96E00E942C8880E50E94E0
:104FB000B51A882339F00E94A11A0E94CE9E6B0177
:104FC0007C0103C0C12CD12C760183E50E94B51A67
:104FD000882361F00E94A11A20E030E04AE754E4FF
:104FE0000E942FA10E94CE9E6B017C010E94516FF6
:104FF0000E94519760934105709342058093430549
:1050000090934405C114D104E104F104A9F00E9475
:1050100051974B015C018C0C9D1CAE1CBF1C0E9467
:105020005197681579058A059B0580F40E94888947
:1050300081110CC00C94EE360E948889811106C043
:105040000E94717038D90E94C688F6CF82ED96E032
:105050000E942C880C94CF3684EC96E00E942C8819
:10506000159817984298A0980C94CF36E7EAF6E086
:105070008491882341F09091C00095FFFCCF8093EC
:10508000C6003196F5CF8091C00085FFFCCF8AE045
:105090008093C6008EE397E00E94984BEEE8F6E01E
:1050A0008491882341F09091C00095FFFCCF8093BC
:1050B000C6003196F5CF8091C00085FFFCCF8AE015
:1050C0008093C6000C94CF368EE397E00E94EF4B9E
:1050D0000C94CF368EE397E00E94B34C0C94CF36FD
:1050E00000914505109146050C5F1F4F6AE270E084
:1050F000C8010E94A4A5009719F0FC013197108205
:1051000021E041E0B8018EE397E00E94224D0C942B
:10511000CF368EE397E00E94B74C0E945197609380
:10512000390570933A0580933B0590933C050C94A8
:10513000CF368EE397E00E94BE4C0C94CF36809120
:105140004107882311F40C94CF3683E50E94B51AE9
:1051500081110C94F6360C94CF368EE397E00E94C2
:105160006F510C94CF3680914505909146056AE2C7
:1051700070E004960E94A4A58C010097E1F02091B4
:105180004F053091500540E6429FC001439F900D6E
:1051900011246EE470E08B5A9A4F0E94A4A560E23D
:1051A00070E00E94A4A50196909346058093450562
:1051B000F8013197108260914505709146056C5F4A
:1051C0007F4F21E040E08EE397E00E94224D0C9457
:1051D000CF3680914107882311F40C94CF3660E0DC
:1051E0008EE397E00E9429538091450590914605F2
:1051F0006AE270E004960E94A4A58C010097E1F099
:1052000020914F053091500540E6429FC001439FD9
:10521000900D11246EE470E08B5A9A4F0E94A4A561
:1052200060E270E00E94A4A50196909346058093E9
:105230004505F8013197108260914505709146054A
:105240006C5F7F4F8EE397E00E9436500C94CF3610
:105250008091400781110E94516F00914505109186
:1052600046050C5F1F4F6AE270E0C8010E94A4A5CA
:105270007C0161E270E0C8010E94A4A5009719F0CA
:105280008C010F5F1F4FE114F10419F0F701319702
:10529000108280E50E94B51AF82E209145053091C4
:1052A00046050217130708F4F12C80914107882363
:1052B00011F40C94CF3621E02F2541E0B8018EE3A4
:1052C00097E00E94224D83E50E94B51A8823B9F029
:1052D00020914505309146052017310780F40E9442
:1052E000AA1AAB01BC014093C1095093C209609353
:1052F000C3097093C4098CE099E00E94843F8EE357
:1053000097E00E94B74CF1100C94CF360E94519751
:105310006093390570933A0580933B0590933C0563
:105320000C94CF3680914505909146056AE270E075
:1053300005960E94A4A58C010097E1F020914F05ED
:105340003091500540E6429FC001439F900D1124CB
:105350006EE470E08B5A9A4F0E94A4A560E270E060
:105360000E94A4A501969093460580934505F801F7
:105370003197108260914505709146056B5F7F4FB4
:105380008EE397E00E9431500C94CF360E945197E3
:1053900060933505709336058093370590933805F3
:1053A0000091390510913A0520913B0530913C055B
:1053B000601B710B820B930B28EE33E040E050E052
:1053C0000E942BA2CA01B9012CE330E040E050E07A
:1053D0000E942BA27F936F933F932F938FE796E0CA
:1053E0009F938F93CE0101969F938F930E94D3A595
:1053F000E2E0FAE084910FB6F894DEBF0FBECDBFB5
:10540000882349F09091C00095FFFCCF8093C6009F
:1054100031968491F5CFFE0131968191882339F040
:105420009091C00095FFFCCF8093C600F6CF80918D
:10543000C00085FFFCCF8AE08093C600CE010196B4
:105440000E941D880C94CF3683E50E94B51A8823EC
:1054500011F40C94CF360E94A11A6B017C0180E5F7
:105460000E94B51A882351F0C701B6010E94C99E57
:105470006F3F710509F010F40C9407376DE070E090
:1054800020E0E22FEE0FFF0BE252FC4F8081918172
:105490008617970711F40C94CF362F5FF2CF88E66A
:1054A00090E00E94402281110C94CF3683E50E9447
:1054B000B51A882371F0009134050E94A11A10E0FA
:1054C000000F111F03531E4E0E94C99EF8017183E5
:1054D00060830E9406730C94CF3683E50E94B51A50
:1054E000882311F40C94CF360E94A11A0E94C99E01
:1054F0007093CC116093CB110C94CF3689E690E079
:105500000E94402281110C94CF36E9E7F6E08491A5
:10551000882341F09091C00095FFFCCF8093C60096
:105520003196F5CFE091340524E0E29FF00111249B
:10553000EB53FE4E408151816281738121E030E066
:105540008CEA94E00E947316E6E7F6E084918823E3
:1055500041F09091C00095FFFCCF8093C60031963A
:10556000F5CFE0913405F0E0EE0FFF1FE353FE4E60
:1055700060817181882777FD8095982F0E94FC9E1D
:10558000AB01BC0121E030E08CEA94E00E9473168C
:10559000E2E7F6E08491882341F09091C00095FF06
:1055A000FCCF8093C6003196F5CF4091BF1150914A
:1055B000C0116091C1117091C21121E030E08CEAFC
:1055C00094E00E947316EFE6F6E08491882341F0A0
:1055D0009091C00095FFFCCF8093C6003196F5CF27
:1055E0006091CB117091CC11882777FD8095982F11
:1055F0000E94FC9EAB01BC0121E030E08CEA94E00B
:105600000E947316ECE6F6E08491882341F09091B5
:10561000C00095FFFCCF8093C6003196F5CF4AE0DD
:1056200050E060E070E08CEA94E00E949D15EAE6AC
:10563000F6E08491882341F09091C00095FFFCCF63
:105640008093C6003196F5CF4091C5115091C61197
:105650006091C7117091C81121E030E08CEA94E0AC
:105660000E947316E7E6F6E08491882341F090915A
:10567000C00095FFFCCF8093C6003196F5CF6091B6
:10568000CD117091CE11882777FD8095982F0E94BB
:10569000FC9EAB01BC0121E030E08CEA94E00E946A
:1056A0007316E3E6F6E08491882341F09091C00000
:1056B00095FFFCCF8093C6003196F5CF80913405DD
:1056C00090E00E9466704AE050E0BC018CEA94E0F1
:1056D0000E949D15EEE5F6E08491882341F09091BB
:1056E000C00095FFFCCF8093C6003196F5CF8FEFB9
:1056F0009FEF0E9466704AE050E0BC018CEA94E0A3
:105700000E949D158091C00085FFFCCF8AE08093A8
:10571000C6000C9465388DE690E00E94402281110D
:105720000C94CF3681E596E00E942C8883E50E9498
:10573000B51A882391F0009134050E94A11A10E057
:10574000000F111F03531E4E0E94C99EF801718362
:10575000608381E08093060215C082E50E94B51A3D
:10576000882381F0009134050E94A11A10E0000FF7
:10577000111F03531E4E0E94C99EF801718360835E
:10578000109206020E9406730E9451974B015C0121
:105790000091340510E0F801EE0FFF1FE353FE4EB9
:1057A00060817181882777FD8095982F0E94FC9EEB
:1057B000F801EE0FFF1FEE0FFF1FEB53FE4E11E03F
:1057C00020813181428153810E945DA018160CF026
:1057D00010E010933205CC24CA94DC2C760148EEFC
:1057E000442E43E0542E612C712C5AE0352E0C943B
:1057F0006A378AE296E00E942C8883E50E94B51AF7
:10580000882361F00E94A11A0E94C99E7093CC1156
:105810006093CB1181E0809306020FC082E50E9465
:10582000B51A882351F00E94A11A0E94C99E709354
:10583000CC116093CB11109206020E9451974B013C
:105840005C016091CB117091CC11882777FD809518
:10585000982F0E94FC9E11E02091BF113091C01141
:105860004091C1115091C2110E945DA018160CF018
:1058700010E01093320507E216E073E2E72E76E0BF
:10588000F72EEFE1CE2EE6E0DE2EFAE07F2E8091BD
:1058900032056091CB117091CC11882309F486C038
:1058A000882777FD8095982F0E94FC9E2091BF113C
:1058B0003091C0114091C1115091C2110E945DA060
:1058C00018160CF08AC00E945197681979098A0944
:1058D0009B09693E73408105910508F460C0E09121
:1058E000080734E0E39FF0011124EB53FE4E4081A2
:1058F000518162817381F8018491E7E2F6E08823A7
:1059000049F09091C00095FFFCCF8093C60031967E
:105910008491F5CF22E030E08CEA94E00E94731687
:10592000F7018491E3E2F6E0882349F09091C0000A
:1059300095FFFCCF8093C60031968491F5CF60919E
:10594000080770E04AE050E08CEA94E00E949D1560
:10595000F6018491EFE1F6E0882349F09091C000D0
:1059600095FFFCCF8093C60031968491F5CF40918E
:10597000BF115091C0116091C1117091C21121E00D
:1059800030E08CEA94E00E9473168091C00085FF9D
:10599000FCCF7092C6000E9451974B015C010E949F
:1059A00071700E945B210E94C68871CF882777FDA5
:1059B0008095982F0E94FC9E2091BF113091C011BC
:1059C0004091C1115091C2110E945A9E87FF05C09B
:1059D00080910602882309F476CF82E196E00E9446
:1059E0002C880E94519760934105709342058093E3
:1059F0004305909344050C94CF3683E50E94B51A75
:105A0000882319F10E94A11A20E030E0A9010E9428
:105A10005A9E87FD0FC00E94A11A20E030E04FE798
:105A200053E40E945DA0181644F00E94A11A0E943F
:105A3000C99E05C060E070E002C06FEF70E0709337
:105A40000707609306070C94CF368FEF90E0909392
:105A50000707809306070C94CF3610920707109221
:105A600006070C94CF36269A2E98809A889A81E061
:105A70008093100282E096E00E942C880E94C688E3
:105A80000C94CF3610923D070C94CF3681E0809372
:105A90003D070C94CF3683E50E94B51A8823A1F008
:105AA0000E94A11A20E030E04AE754E40E942FA1AE
:105AB0000E94CE9E609307027093080280930902B1
:105AC00090930A020C94CF3688E50E94B51A811192
:105AD0000C94433889E50E94B51A81110C9443381F
