:100000000C94FA0D0C942B0E0C942B0E0C942B0EBE
:100010000C942B0E0C942B0E0C942B0E0C942B0E7C
:100020000C942B0E0C942B0E0C942B0E0C942B0E6C
:100030000C942B0E0C94429C0C942B0E0C942B0EB7
:100040000C942B0E0C94BE660C942B0E0C942B0E61
:100050000C942B0E0C942B0E0C9423770C94259659
:100060000C942B0E0C946D140C942B0E0C942B0EE4
:100070000C942B0E0C942B0E0C942B0E0C942B0E1C
:100080000C942B0E0C942B0E0C942B0E0C942B0E0C
:100090000C942B0E0C942B0E0C942B0E0C942B0EFC
:1000A0000C942B0E0C942B0E0C942B0E0C942B0EEC
:1000B0000C942B0E0C942B0E0C942B0E0C942B0EDC
:1000C0000C942B0E0C942B0E0C942B0E0C942B0ECC
:1000D0000C942B0E0C942B0E0C942B0E0C942B0EBC
:1000E0000C942B0E312231223C223C223C2247220E
:1000F000472247225C225222522252226C777B777F
:100100009777A677C077CF77E977ED77F57766971A
:100110006B9770977A978497FD978E9796979E978F
:10012000A897B297BC97CB97D597FD97DF97E9979C
:10013000F3971F982298119815981B98599826980C
:100140002A983098349838983E984298469859980A
:100150004C9850985498084AD73B3BCE016E84BCCB
:10016000BFFDC12F3D6C74319ABD56833DDA3D0011
:10017000C77F11BED9E4BB4C3E916BAAAABE00005A
:1001800000803F05A84CCDB2D44EB93836A9020C38
:1001900050B9918688083CA6AAAA2ABE0000008011
:1001A0003F0048617264636F646564204465666102
:1001B000756C742053657474696E6773204C6F613D
:1001C0006465640053746F72656420736574746948
:1001D0006E67732072657472696576656400204489
:1001E000002049002020204D33303120500050495C
:1001F000442073657474696E67733A00205A002056
:10020000590020204D323036205800486F6D65204F
:100210006F666673657420286D6D293A002045006D
:10022000205A0020580020420020540020204D3247
:100230003035205300416476616E636564207661D9
:10024000726961626C65733A20533D4D696E206638
:100250006565647261746520286D6D2F73292C208B
:10026000543D4D696E2074726176656C20666565DB
:10027000647261746520286D6D2F73292C20423DB6
:100280006D696E696D756D207365676D656E74203F
:1002900074696D6520286D73292C20583D6D617837
:1002A000696D756D205859206A65726B20286D6DD7
:1002B0002F73292C20205A3D6D6178696D756D2052
:1002C0005A206A65726B20286D6D2F73292C2020AF
:1002D000453D6D6178696D756D2045206A65726B6D
:1002E00020286D6D2F73290020540020204D3230BE
:1002F00034205300416363656C65726174696F6E8D
:100300003A20533D616363656C65726174696F6E19
:100310002C20543D7265747261637420616363655F
:100320006C65726174696F6E00204500205A002070
:10033000590020204D3230312058004D6178696DD0
:10034000756D20416363656C65726174696F6E20C1
:10035000286D6D2F7332293A00204500205A002065
:10036000590020204D3230332058004D6178696D9E
:10037000756D2066656564726174657320286D6DA6
:100380002F73293A00204500205A002059002020D0
:100390004D39322058005374657073207065722097
:1003A000756E69743A0053657474696E677320538F
:1003B000746F726564006563686F3A005041524122
:1003C000444100C2A1496D707265736F7261207003
:1003D000617261646120706F72206572726F726504
:1003E000732E2041727265676C6520656C206572A2
:1003F000726F72207920757365204D39393920501C
:10040000617261207265696E6963696172212E2073
:10041000284C612074656D7065726174757261201D
:10042000736520726565737461626C6563652E2007
:10043000416A757374656C6120646573707565736A
:1004400020646520636F6E74696E75617229005057
:10045000415241444120444520454D4552472E00DC
:10046000C2A1C2A1496D707265736F726120506143
:100470007261646120636F6E206B696C6C28292146
:1004800021006F6B005265656E766961723A0022D9
:1004900000436F6D616E646F20446573636F6E6FB0
:1004A0006369646F3A220043616D6269617220661C
:1004B000696C616D656E746F005A204F6666736576
:1004C00074203A20007A5F6D61783A20007A5F6D7F
:1004D000696E3A20005A204F6666736574005A2090
:1004E0004F6666736574206F6B007A5F6D61783A52
:1004F00020007A5F6D696E3A2000795F6D61783A0D
:100500002000795F6D696E3A2000785F6D61783AFE
:100510002000785F6D696E3A2000205A3A00205919
:100520003A00204375656E746120583A0020453AC0
:1005300000205A3A0020593A00583A004649524D94
:10054000574152455F4E414D453A4D61726C696E5F
:100550002056313B20537072696E7465722F67723A
:10056000626C206D617368757020666F72206765BC
:100570006E36204649524D574152455F55524C3ACE
:10058000687474703A2F2F6669726D776172652E88
:10059000756C74696D616B65722E636F6D2050525E
:1005A0004F544F434F4C5F56455253494F4E3A318B
:1005B0002E30204D414348494E455F545950453AED
:1005C0004445534B424F5820455854525544455288
:1005D0005F434F554E543A3120555549443A3030D7
:1005E0003030303030302D303030302D3030303011
:1005F0002D303030302D3030303030303030303001
:1006000030300A004445534B424F58204F66662E07
:10061000004445534B424F58206C697374612E005F
:1006200043616C656E74616D69656E746F204865B9
:1006300063686F2E0020573A0020453A00543A0074
:1006400043616C656E74616E646F2E2E2E002042C5
:10065000403A0020403A00202F003A002054002069
:100660002F0020423A00202F006F6B20543A0025C3
:1006700069206D696E2C20256920736563004669C9
:100680006E206465206C61206C6973746120646500
:10069000206172636869766F7300436F6D69656E80
:1006A0007A6F206465206C61206C697374612064CA
:1006B00065206172636869766F730053696E206D9F
:1006C0006F76696D69656E746F00526573756D69DB
:1006D000656E646F20696D7072652E00457370657C
:1006E00072616E646F206F7264656E65730052652F
:1006F000706F736F2E2E2E00256920686F757273D0
:10070000202569206D696E7574657300496D70727E
:100710006573696F6E207465726D696E61646100E6
:1007200050415241444100C2A1496D707265736FDE
:1007300072612070617261646120706F72206572F5
:10074000726F7265732E2041727265676C652065E9
:100750006C206572726F72207920757365204D3937
:1007600039392050617261207265696E696369610F
:1007700072212E20284C612074656D706572617441
:1007800075726120736520726565737461626C6552
:1007900063652E20416A757374656C6120646573AE
:1007A0007075657320646520636F6E74696E756122
:1007B0007229006F6B004E6F2073652068616C6C4E
:1007C0006F20656C204E756D65726F206465204CDE
:1007D000696E656120636F6E20656C204368656398
:1007E0006B73756D2C20556C74696D61204C696E4E
:1007F00065613A004E6F207365207075646F2068E4
:10080000616C6C617220656C20436865636B737505
:100810006D20636F6E20656C206E756D65726F2044
:100820006465206C696E65612C20556C74696D611E
:10083000204C696E65613A00656C20636865636B86
:1008400073756D206E6F20636F696E636964652CCC
:1008500020556C74696D61204C696E65613A004584
:100860006C204E756D65726F206465204C696E65F5
:1008700061206E6F20657320696775616C20616C03
:1008800020556C74696D6F204E756D65726F2064B4
:1008900065204C696E65612B312C20556C74696D37
:1008A00061204C696E65613A004D31313000477509
:1008B00061726461646F2E006F6B004D32390020ED
:1008C00020506C616E6E6572427566666572427923
:1008D0007465733A2000204D656D6F726961206CFC
:1008E000696272653A20004A756E203239203230D2
:1008F000313600436F6D70696C65643A200028449E
:100900006176696420427261616D2900207C20411A
:1009100075746F723A20004A756E20323920323079
:1009200031362031343A35353A33380020556C743D
:10093000696D612061637475616C697A6163696F67
:100940006E3A2000312E302E30004D61726C696E8F
:100950000020526573657420706F7220536F667447
:10096000776172650020526573657420706F722024
:10097000426C6F7175656F002052657365742070ED
:100980006F7220566F6C74616A6520496E636F7276
:10099000726563746F0020526573657420457874C6
:1009A00065726E6F00506F77657255700073746179
:1009B0007274002200656E717565696E6720220091
:1009C0002200656E717565696E67202200FFFFFF6A
:1009D0000000A0400000A0400000004000004D4387
:1009E00000004D43000048430000000000000000EC
:1009F0000000000000004D4300004D43000048434C
:100A00000000000000000000000000006563686F47
:100A10003A004572726F723A0041414141E14141F1
:100A200043454545454949494944EE4F4F4F4FEFEE
:100A3000784F555555F55954E261616161E1616145
:100A400063656565656969696964EE6F6F6F6FEF0E
:100A5000FD6F757575F5797479007C3C3E5E2B3DB4
:100A60003F2F5B5D3B2C2A225C004D383420582000
:100A700059205A2045004E6F2073652070756564BB
:100A800065206162726972206C61206361727065B9
:100A900074613A004D3234004D32332025730061C9
:100AA00075746F25692E67004572726F7220616CD4
:100AB00020657363726962697220656E20656C20BF
:100AC0006172636869766F004E6F2073652065738D
:100AD000746120696D7072696D69656E646F206301
:100AE0006F6E205344002F00534420696D7072696B
:100AF0006D69656E646F20656C2062797465200095
:100B00002E0044656C6574696F6E206661696C6562
:100B1000642C2046696C653A200046696C65206447
:100B2000656C657465643A002E006F70656E2066B2
:100B300061696C65642C2046696C653A20004573D8
:100B40006372696269656E646F20656E20656C20F2
:100B50006172636869766F3A20002E004572726F89
:100B60007220616C2061627269722C20417263682C
:100B700069766F3A20002E004572726F7220616CA8
:100B80002061627269722C204172636869766F3AE3
:100B900020004172636869766F2053656C656363FA
:100BA000696F6E61646F002054616D61C3B16F3A0B
:100BB000004172636869766F206162696572746F63
:100BC0003A002E004572726F7220616C2061627271
:100BD00069722C204172636869766F3A20004E6F0B
:100BE000772066726573682066696C653A20004EEE
:100BF0006F7720646F696E672066696C653A2000C4
:100C00002220706F73002220706172656E743A2228
:100C100000535542524F5554494E452043414C4C88
:100C2000207461726765743A2200747279696E6724
:100C300020746F2063616C6C207375622D67636F25
:100C400064652066696C6573207769746820746FC9
:100C50006F206D616E79206C6576656C732E204D0A
:100C60004158206C6576656C2069733A0054617256
:100C70006A657461205344204F4B0046616C6C6F71
:100C800020616C206162726972206C612063617204
:100C900070657461207261697A0046616C6C6F20C6
:100CA000616C206D6F6E74617220656C20766F6C64
:100CB000756D656E0046616C6C6F20616C20696EAD
:100CC0006963696172206C61205344006563686FD9
:100CD0003A004572726F723A0020657874727573CB
:100CE000696F6E2064656D61736961646F206C610A
:100CF000726761206576697461646100206578744B
:100D0000727573696F6E20667269612065766974A9
:100D1000616461006563686F3A0053652068612013
:100D2000746F6361646F20656C2066696E20646512
:100D30002063617272696C3A205A00205A3A00535B
:100D40006520686120746F6361646F20656C206644
:100D5000696E2064652063617272696C3A20590083
:100D600020593A00536520686120746F6361646F95
:100D700020656C2066696E2064652063617272690B
:100D80006C3A20580020583A00536520686120745E
:100D90006F6361646F20656C2066696E20646520F6
:100DA00063617272696C3A200024F4D43050C38EAF
:100DB00020C2A24017828B7011127A910D816CD9DA
:100DC0000AA861E108C7586607615143061E4B5DDA
:100DD00005C145A7041A411104093D980371393131
:100DE000034036DB0265339102D4305402802E1D5D
:100DF00002632CEE01752AC501B028A001102781DD
:100E0000018F2564012B244B01E0223401AC211F0A
:100E1000018D200D01801FFC00841EED00971DDF59
:100E200000B81CD200E61BC600201BBC00641AB22E
:100E300000B219A8000A19A0006A189900D11791E8
:100E40000040178B00B516840031167E00B315796B
:100E5000003A157300C7146F0058146A00EE136649
:100E6000008813630025135E00C7125B006C1257E5
:100E70000015125400C111510070114F0021114B87
:100E800000D61049008D1047004610440002104261
:100E900000C00F4000800F3E00420F3C00060F3B99
:100EA00000CB0E3800930E37005C0E3500270E3451
:100EB00000F30D3200C10D3100900D3000600D2E99
:100EC00000320D2D00050D2C00D90C2B00AE0C2985
:100ED00000850C29005C0C2700350C27000E0C2621
:100EE00000E80B2400C40B2400A00B23007D0B237F
:100EF000005A0B2100390B2100180B2000F80A1FA3
:100F000000D90A1E00BB0A1E009D0A1D00800A1D92
:100F100000630A1C00470A1B002C0A1B00110A1A56
:100F200000F7091A00DD091900C4091900AB0919F5
:100F300000920917007B091800630917004C091675
:100F40000036091600200916000A091500F50815D3
:100F500000E0081400CC081400B8081400A4081419
:100F600000900813007D0812006B08130058081247
:100F7000004608120034081100230811001208115D
:100F80000001081100F0071000E0071000D0071062
:100F900000C0071000B0070F00A107100091070E56
:100FA0000083070F0074070F0065070E0057070E38
:100FB0000049070E003B070D002E070E0020070D0D
:100FC0000013070D0006070D00F9060C00ED060DD5
:100FD00000E0060C00D4060C00C8060C00BC060C91
:100FE00000B0060C00A4060B0099060C008D060B41
:100FF0000082060B0077060B006C060B0061060AE8
:101000000057060B004C060A0042060A0038060A82
:10101000002E060A0024060A001A060A0010060915
:101020000007060A00FD050900F4050900EB0509A3
:1010300000E2050900D9050900D0050900C7050926
:1010400000BE050900B5050800AD050800A50509A5
:10105000009C050800940508008C0508008405081C
:10106000007C050800740508006C0507006505088C
:10107000005D050700560508004E050700470507F7
:10108000004005080038050700310507002A05075C
:1010900000230507001C050600160507000F0507BD
:1010A000000805060002050700FB040600F504071A
:1010B00000EE040600E8040600E2040700DB040674
:1010C00000D5040600CF040600C9040600C30406C8
:1010D00000BD040600B7040600B1040500AC040618
:1010E00000A6040600A00405009B04060095040564
:1010F00000900406008A04050085040500800406AB
:10110000007A04050075040500700405006B0405F1
:101110000066040500610405005C04050057040531
:1011200000520405004D0405004804050043040571
:10113000003E0404003A04050035040500300404B0
:10114000002C04050027040400230405001E0404E9
:10115000001A04040016040500110404000D040420
:1011600000090405000404040000040400FC030456
:1011700000F8030400F4030400F0030400EC03048B
:1011800000E8030400E4030400E0030400DC0304BB
:1011900000D8030400D4030400D0030400CC0304EB
:1011A00000C8030300C503030024F404D9201BC4B2
:1011B0000C5C0E9804C4095F0265077101F405F91F
:1011C00000FB04B30048048700C1036900580355BD
:1011D0000003034500BE023A008402310053022A94
:1011E000002902250004022000E4011C00C80119A6
:1011F00000AF011700980114008401130071011061
:10120000006101100051010E0043010D0036010B79
:10121000002B010B0020010B00150109000C010936
:101220000003010800FB000800F3000800EB0007C2
:1012300000E4000600DE000600D8000600D200062A
:1012400000CC000500C7000500C2000500BD000479
:1012500000B9000400B5000400B1000400AD0004B2
:1012600000A9000400A5000300A20003009F0004E1
:10127000009B000300980003009500020093000308
:1012800000900003008D0002008B00030088000224
:10129000008600020084000300810002007F00023B
:1012A000007D0002007B000200790002007700014F
:1012B000007600020074000200720001007100025A
:1012C000006F0002006D0001006C0002006A000166
:1012D000006900020067000100660001006500016E
:1012E0000064000200620001006100010060000172
:1012F000005F0002005D0001005C0001005B000176
:10130000005A000100590001005800010057000177
:101310000056000100550001005400010053000078
:101320000053000100520001005100010050000173
:10133000004F0001004E0000004E0001004D000172
:10134000004C0001004B0000004B0001004A00016E
:10135000004900010048000000480001004700016A
:101360000046000000460001004500000045000165
:10137000004400010043000000430001004200005F
:101380000042000100410000004100010040000156
:10139000003F0000003F0001003E0000003E000151
:1013A000003D0000003D0001003C0000003C00004A
:1013B000003C0001003B0000003B0001003A00003F
:1013C000003A000100390000003900010038000037
:1013D000003800000038000100370000003700012D
:1013E0000036000000360000003600010035000025
:1013F000003500000035000100340000003400001A
:10140000003400010033000000330000003300010D
:101410000032000000320000003200010031000004
:1014200000310000003100010030000000300000F9
:1014300000300001002F0000002F0000002F0000EE
:10144000002F0001002E0000002E0000002E0001E1
:10145000002D0000002D0000002D0000002D0001D7
:10146000002C0000002C0000002C0000002C0001CB
:10147000002B0000002B0000002B0000002B0001BF
:10148000002A0000002A0000002A0000002A0001B3
:1014900000290000002900000029000000290000A8
:1014A000002900010028000000280000002800009A
:1014B000002800000028000100270000002700008D
:1014C0000027000000270000002700010026000080
:1014D0000026000000260000002600000026000173
:1014E0000025000000250000002500000025000068
:1014F0000025000000250001002400000024000059
:10150000002400000024000000240001002300004B
:10151000002300000023000000230000002300003F
:101520000023000000230001002200000022000030
:101530000022000000220000002200000022000122
:101540000021000000210000002100000021000017
:101550000021000000210000002100010020000007
:1015600000200000002000000020000000200000FB
:10157000002000000020000000200001001F0000EB
:10158000001F0000001F0000001F0000001F0000DF
:10159000001F0000001F0001001E0000001E0000D0
:1015A000001E0000001E0000006563686F3A0045E1
:1015B00072723A204D494E54454D50003A204578BC
:1015C00074727564657220737769746368656420EA
:1015D0006F66662E204D494E54454D5020747269F9
:1015E0006767657265642021004572723A204D413B
:1015F0005854454D50003A204578747275646572B0
:10160000207377697463686564206F66662E204D69
:10161000415854454D50207472696767657265641E
:1016200020210048656174696E67206661696C6598
:101630006400202D20496E76616C696420657874A1
:101640007275646572206E756D626572202100503E
:101650004944204175746F74756E652066696E69C2
:1016600073686564212050757420746865206C610E
:101670007374204B702C204B6920616E64204B6486
:1016800020636F6E7374616E74732066726F6D2069
:1016900061626F766520696E746F20436F6E666954
:1016A0006775726174696F6E2E68005049442041FD
:1016B00075746F74756E65206661696C6564212050
:1016C00074696D656F75740020403A006F6B20542B
:1016D0003A006F6B20423A00504944204175746FC4
:1016E00074756E65206661696C6564212054656D52
:1016F000706572617475726520746F6F20686967B8
:101700006800204B643A2000204B693A2000204BAF
:10171000703A200020436C61737369632050494420
:1017200020002054753A2000204B753A2000206D8F
:1017300061783A2000206D696E3A200020643A20DA
:101740000020626961733A20006563686F3A004562
:1017500072726F723A005461726A657461207265C8
:10176000746972616461005461726A6574612063B6
:101770006F6C6F63616461002D2D3A2D2D002D2D4E
:101780002D005344002059000120004D3630300018
:1017900043616D626961722066696C616D656E742A
:1017A0006F00466C756A6F203000466C756A6F205A
:1017B0003000466C756A6F00466C756A6F0056653E
:1017C0006E74696C61646F720056656E74696C61E9
:1017D000646F72004E6F7A7A6C65004E6F7A7A6C25
:1017E000650056656C6F63696461640056656C6F73
:1017F0006369646164004D656E75207072696E6323
:101800006970616C00580059005A0045787472750F
:10181000646572004578747275736F72004D6F76EF
:101820006572205A004D6F7665722059004D6F76B3
:1018300065722058004D6F76657220656A65730089
:101840004D6F76657220302E316D6D004D6F76656F
:101850007220316D6D004D6F7665722031306D6D87
:10186000005072657061726172004D6F7665722012
:10187000656A6573004D383000537769746368207A
:10188000506F776572204F6E004D38310053776985
:1018900074636820506F776572204F666600456EEE
:1018A00066726961720050726563616C656E746125
:1018B0007220504C4100473238004C6C65766172A2
:1018C00020616C206F726967656E004D383400418D
:1018D0007061676172206D6F746F726573004D6522
:1018E0006E75207072696E636970616C0047756116
:1018F00072646172206D656D6F726961004E6F7AFE
:101900007A6C65004E6F7A7A6C650056656E746904
:101910006C61646F720056656E74696C61646F729D
:101920000054656D706572617475726100416A750D
:10193000737461722074656D702E20504C41005696
:10194000656E74696C61646F720056656E74696C63
:1019500061646F72004E6F7A7A6C65004E6F7A7AAE
:101960006C6500436F6E74726F6C004A756E203246
:101970003920323031362031343A35353A3430007E
:1019800047697468756220636865636B6F7574007E
:101990004465736B626F783A207630320056657218
:1019A00073696F6E204669726D7761726500566566
:1019B0007273696F6E204669726D7761726500524D
:1019C0006573742E20646520656D657267656E2E83
:1019D00000436172676172206D656D6F72696100AD
:1019E00047756172646172206D656D6F7269610027
:1019F00054656D7065726174757261004D656E75C8
:101A0000207072696E636970616C004D38342058C3
:101A10002059205A2045004D3234004D32332025C4
:101A20007300052E2E004D656E75207072696E6311
:101A30006970616C004E6F20686179207461726A10
:101A4000657461205344004D656E752064652053B4
:101A50004400446574656E657220696D70726573CB
:101A6000696F6E005265616E7564617220696D7098
:101A70007265732E0050617573617220696D7072AA
:101A80006573696F6E00436F6E74726F6C00507295
:101A900065706172617200416A7573746172004DA4
:101AA0006F6E69746F72697A61720000000A0B02CE
:101AB000090C0D0E080703040100000000000000DF
:101AC0000000000000000000000000000000000016
:101AD00000000000000000121110000000000000D3
:101AE00000000000000000000000000000000000F6
:101AF0000001021020200808102040102040800221
:101B00000102010804020101020408102040808043
:101B100040201008040201800402018040201008C7
:101B2000040201080402010102040810204080019F
:101B3000020408102040800505050507050808086F
:101B400008020202020A0A0808040404040101014E
:101B50000101010101030303030303030304070756
:101B6000070C0C0C0C0C0C0C0C02020202060606F4
:101B700006060606060B0B0B0B0B0B0B0B000022CD
:101B800000250028002B002E003100340002010047
:101B900000050108010B0100002100240027002A94
:101BA000002D003000330001010000040107010A8C
:101BB00001024E414E494E495459494E46CDCCCC76
:101BC0003D0AD7233C17B7D13877CC2B329595E611
:101BD000241FB14F0A000020410000C84200401CF1
:101BE0004620BCBE4CCA1B0E5AAEC59D7400773849
:101BF000BB8F7B3811241FBECFEFD1E2DEBFCDBF3C
:101C000000E00CBF14E0A0E0B2E0EEEDFFE401E084
:101C10000BBF02C007900D92AE3AB107D9F722E18F
:101C2000AEEAB4E001C01D92A936B207E1F71BE1AC
:101C3000C2EFDBE100E006C022970109FE010BBF05
:101C40000E94AFA1CE3ED10780E00807A9F70E940D
:101C5000A29C0C94DEA70C940000EF92FF920F93CD
:101C60001F93CF93DF931F92CDB7DEB78C017B011B
:101C7000460FF70161917F01F801808191814983CD
:101C80000E9427A7F801808191810196918380832A
:101C900049814E11EECF0F90DF91CF911F910F919F
:101CA000FF90EF900895EF92FF920F931F93CF93C1
:101CB000DF931F92CDB7DEB78C017B01460FF80191
:101CC0008081918149830E941FA7F70181937F0141
:101CD000F8018081918101969183808349814E1121
:101CE000EECF0F90DF91CF911F910F91FF90EF906A
:101CF00008950F931F93CF93DF93CDB7DEB72C9743
:101D00000FB6F894DEBF0FBECDBF80E390E3A0E333
:101D1000B0E08D839E83AF83B88704E610E01C8714
:101D20000B8744E0BE016B5F7F4FCE010B9695DFC2
:101D300040E16DE071E1CE010B968FDF40E16DE196
:101D400071E1CE010B9689DF40E16DEF70E1CE01CC
:101D50000B9683DF44E065EF70E1CE010B967DDFEB
:101D600044E061EF70E1CE010B9677DF44E069EF6C
:101D700070E1CE010B9671DF44E061EE70E1CE01BF
:101D80000B966BDF44E06DE271E1CE010B9665DFEF
:101D900044E06DEE70E1CE010B965FDF44E069EE4A
:101DA00070E1CE010B9659DF44E065EE70E1CE01A3
:101DB0000B9653DF4CE06EE177E0CE010B964DDFE2
:101DC00042E06DE272E1CE010B9647DF42E06BE24A
:101DD00072E1CE010B9641DF42E069E272E1CE0191
:101DE0000B963BDF42E067E272E1CE010B9635DFF6
:101DF00042E065E272E1CE010B962FDF42E063E242
:101E000072E1CE010B9629DF44E06BE077E0CE0172
:101E10000B9623DF44E062E572E0CE010B961DDFF6
:101E200044E06EE472E0CE010B9617DF44E06AE412
:101E300072E0CE010B9611DF80E290E09A878987ED
:101E400042E0BE01675F7F4FCE010B9606DF86E55D
:101E500091E3A0E3B0E089839A83AB83BC831C87C2
:101E60000B8744E0BE016F5F7F4FCE010B96F5DE1E
:101E7000E6EBF3E08491882341F09091C00095FF58
:101E8000FCCF8093C6003196F5CFE6EAF3E084916B
:101E9000882341F09091C00095FFFCCF8093C6004D
:101EA0003196F5CF8091C00085FFFCCF8AE080930A
:101EB000C6002C960FB6F894DEBF0FBECDBFDF91E3
:101EC000CF911F910F910895CF93DF93C6EBD3E08D
:101ED000FE018491882341F09091C00095FFFCCFD2
:101EE0008093C6003196F5CFE6E9F3E0849188232C
:101EF00041F09091C00095FFFCCF8093C6003196D1
:101F0000F5CF8091C00085FFFCCF8AE08093C600AA
:101F1000FE018491E6EBF3E0882349F09091C00044
:101F200095FFFCCF8093C60031968491F5CF409108
:101F30000D1150910E1160910F11709110118EE8DA
:101F400093E00E941018409111115091121160916C
:101F50001311709114118BE893E00E9410184091B6
:101F6000151150911611609117117091181188E890
:101F700093E00E9410184091191150911A1160912C
:101F80001B1170911C1185E893E00E94101880913C
:101F9000C00085FFFCCF8AE08093C600FE018491DB
:101FA000E6EBF3E0882349F09091C00095FFFCCF69
:101FB0008093C60031968491F5CFEBE6F3E08491EF
:101FC000882341F09091C00095FFFCCF8093C6001C
:101FD0003196F5CF8091C00085FFFCCF8AE08093D9
:101FE000C600FE018491E6EBF3E0882349F090916E
:101FF000C00095FFFCCF8093C60031968491F5CF49
:1020000040911D1150911E1160911F11709120116E
:1020100082E693E00E941018409121115091221104
:1020200060912311709124118FE593E0F9D74091CD
:1020300025115091261160912711709128118CE57E
:1020400093E0EED74091291150912A1160912B1104
:1020500070912C1189E593E0E3D78091C00085FF52
:10206000FCCF8AE08093C600FE018491E6EBF3E0AA
:10207000882349F09091C00095FFFCCF8093C60063
:1020800031968491F5CFEBE3F3E08491882341F01E
:102090009091C00095FFFCCF8093C6003196F5CF9C
:1020A0008091C00085FFFCCF8AE08093C600FE01CE
:1020B0008491E6EBF3E0882349F09091C00095FF0E
:1020C000FCCF8093C60031968491F5CF4091FD10EE
:1020D0005091FE106091FF107091001182E393E027
:1020E000B0D740910111509102116091031170918C
:1020F00004118FE293E0A5D740910511509106118C
:1021000060910711709108118CE293E09AD7409189
:10211000091150910A1160910B1170910C1189E213
:1021200093E08FD78091C00085FFFCCF8AE0809339
:10213000C600FE018491E6EBF3E0882349F090911C
:10214000C00095FFFCCF8093C60031968491F5CFF7
:10215000E4EFF2E08491882341F09091C00095FF74
:10216000FCCF8093C6003196F5CF8091C00085FFEB
:10217000FCCF8AE08093C600FE018491E6EBF3E099
:10218000882349F09091C00095FFFCCF8093C60052
:1021900031968491F5CF4091F5105091F6106091F1
:1021A000F7107091F8108BEE92E03AD74091F11051
:1021B0005091F2106091F3107091F41088EE92E05B
:1021C0002FD78091C00085FFFCCF8AE08093C600A6
:1021D000FE018491E6EBF3E0882349F09091C00082
:1021E00095FFFCCF8093C60031968491F5CFE5E34F
:1021F000F2E08491882341F09091C00095FFFCCFDC
:102200008093C6003196F5CF8091C00085FFFCCF4A
:102210008AE08093C600FE018491E6EBF3E0882318
:1022200049F09091C00095FFFCCF8093C600319695
:102230008491F5CF4091F9105091FA106091FB1004
:102240007091FC108CE292E0EBD64091E11050913D
:10225000E2106091E3107091E41089E292E0E0D620
:1022600040912D1150912E1160912F1170913011CC
:1022700086E292E0E6D64091ED105091EE1060912A
:10228000EF107091F01083E292E0CAD64091E9100D
:102290005091EA106091EB107091EC1080E292E0A6
:1022A000BFD64091E5105091E6106091E710709113
:1022B000E8108DE192E0B4D68091C00085FFFCCF9C
:1022C0008AE08093C600FE018491E6EBF3E0882368
:1022D00049F09091C00095FFFCCF8093C6003196E5
:1022E0008491F5CFEBE0F2E08491882341F0909166
:1022F000C00095FFFCCF8093C6003196F5CF80914A
:10230000C00085FFFCCF8AE08093C600FE01849167
:10231000E6EBF3E0882349F09091C00095FFFCCFF5
:102320008093C60031968491F5CF40911E0750915D
:102330001F07609120077091210782E092E070D61C
:10234000409122075091230760912407709125073F
:102350008FEF91E065D64091260750912707609155
:102360002807709129078CEF91E05AD68091C00020
:1023700085FFFCCF8AE08093C600FE018491E6EBE6
:10238000F3E0882349F09091C00095FFFCCF809343
:10239000C60031968491F5CFEEEEF1E0849188236A
:1023A00041F09091C00095FFFCCF8093C60031961C
:1023B000F5CF8091C00085FFFCCF8AE08093C600F6
:1023C000FE01C491E6EBF3E0CC2349F08091C0001C
:1023D00085FFFCCFC093C6003196C491F5CF4091E4
:1023E000520250915302609154027091550284EE52
:1023F00091E016D660914E0270914F02809150028A
:10240000909151020E946878AB01BC0181EE91E08D
:1024100007D660914A0270914B0280914C029091D4
:102420004D020E947478AB01BC018EED91E0F8D5AD
:102430008091C00085FFFCCF8AE08093C600DF91C9
:10244000CF910895AF92BF92CF92DF92EF92FF9219
:102450000F931F93CF93DF93CDB7DEB7E0970FB6FF
:10246000F894DEBF0FBECDBF80E1EFE6F2E0DE0103
:10247000919601900D928A95E1F780E1EFE7F2E005
:10248000DE01519601900D928A95E1F780E1EFE827
:10249000F2E0DE01119601900D928A95E1F76E014E
:1024A00081E2C80ED11C8DE0E82E81E1F82E8E016C
:1024B0000F5E1F4F6DE171E1AE014F5F5F4F9DEF0A
:1024C000A92E90E1B92E20E030E0F60181919191A2
:1024D000A191B1916F01F70181939193A193B19370
:1024E0007F01F80181919191A191B1918F01FB013F
:1024F00081939193A193B193BF01FA01819191913D
:10250000A191B191AF01F50181939193A193B19301
:102510005F012F5F3F4F24303105B9F60E94CB6534
:1025200080E090E0AAE7B5E48093F5109093F61070
:10253000A093F710B093F81080E090E8ABE3B5E417
:102540008093F1109093F210A093F310B093F410D5
:102550001092F9101092FA101092FB101092FC10C9
:1025600080E29EE4A0E0B0E080932D1190932E11C4
:10257000A0932F11B09330111092E1101092E2103D
:102580001092E3101092E41080E090E0A0EAB1E431
:102590008093ED109093EE10A093EF10B093F01095
:1025A0008DEC9CECACECBEE38093E9109093EA10C8
:1025B000A093EB10B093EC1080E090E0A0EAB0E4C0
:1025C0008093E5109093E610A093E710B093E81085
:1025D00010922607109227071092280710922907B9
:1025E00010922207109223071092240710922507B9
:1025F00010921E0710921F071092200710922107B9
:1026000082ED90E090932E1280932D1286E490E05C
:1026100090932C1280932B1210922A12109229124E
:102620008AEF90E0909328128093271284E690E03E
:102630009093261280932512109224121092231246
:102640008AE999E9A1EBB1E4809352029093530295
:10265000A0935402B093550261E77DE38AE89FE3BB
:102660000E94627860934E0270934F0280935002F2
:102670009093510260E070E084EE92E40E946E78E4
:1026800060934A0270934B0280934C0290934D02E8
:102690000E946D6F80E090E0A0E8BFE38093460267
:1026A00090934702A0934802B0934902E6EBF3E00F
:1026B0008491882341F09091C00095FFFCCF8093D6
:1026C000C6003196F5CFE2EAF1E08491882341F02B
:1026D0009091C00095FFFCCF8093C6003196F5CF56
:1026E0008091C00085FFFCCF8AE08093C600E09611
:1026F0000FB6F894DEBF0FBECDBFDF91CF911F9113
:102700000F91FF90EF90DF90CF90BF90AF90089522
:10271000CF93DF93CDB7DEB72C970FB6F894DEBF1B
:102720000FBECDBF84E690E09C878B8786E591E362
:10273000A0E3B0E089839A83AB83BC8344E0BE010D
:102740006B5F7F4FCE010B96AEDA43E050E0BE01E7
:102750006B5F7F4FCE0101960E94E6A4892B09F0A2
:10276000B1C040E16DE071E1CE010B969CDA40E131
:102770006DE171E1CE010B9696DA40E16DEF70E10B
:10278000CE010B9690DA0E94CB6544E065EF70E1D4
:10279000CE010B9688DA44E061EF70E1CE010B9632
:1027A00082DA44E069EF70E1CE010B967CDA44E016
:1027B00061EE70E1CE010B9676DA44E06DE271E1F4
:1027C000CE010B9670DA44E06DEE70E1CE010B960F
:1027D0006ADA44E069EE70E1CE010B9664DA44E017
:1027E00065EE70E1CE010B965EDA4CE06EE177E0CB
:1027F000CE010B9658DA42E06DE272E1CE010B9603
:1028000052DA42E06BE272E1CE010B964CDA42E022
:1028100069E272E1CE010B9646DA42E067E272E1CC
:10282000CE010B9640DA42E065E272E1CE010B96F2
:102830003ADA42E063E272E1CE010B9634DA44E028
:102840006BE077E0CE010B962EDA44E062E572E0B1
:10285000CE010B9628DA44E06EE472E0CE010B96CE
:1028600022DA44E06AE472E0CE010B961CDA42E020
:10287000BE01675F7F4FCE010B9615DA0E946D6F28
:10288000E6EBF3E08491882341F09091C00095FF3E
:10289000FCCF8093C6003196F5CFE4ECF1E0849153
:1028A000882341F09091C00095FFFCCF8093C60033
:1028B0003196F5CF8091C00085FFFCCF8AE08093F0
:1028C000C60001C0BFDD00DB2C960FB6F894DEBF5A
:1028D0000FBECDBFDF91CF9108951F920F920FB61B
:1028E0000F9211240BB60F922F933F934F935F9348
:1028F0006F938F939F93EF93FF936091C600209106
:102900002F0530913005C90101968F7799274091A5
:102910003105509132058417950741F0F901E155D1
:10292000FB4F60839093300580932F05FF91EF91CB
:102930009F918F916F915F914F913F912F910F9048
:102940000BBE0F900FBE0F901F9018959A01AB0110
:10295000211581EE38074105510549F182E0809348
:10296000C00060E079E08DE390E00E947DA12150FD
:10297000310941095109CA01B90122E030E040E0C2
:1029800050E00E947DA13093C5002093C400809147
:10299000C10080618093C1008091C10088608093F4
:1029A000C1008091C10080688093C1000895109299
:1029B000C00020E130E0E7CF2091310530913205B1
:1029C00080912F05909130058217930771F0F901DE
:1029D000E155FB4F80812F5F3F4F2F773327309397
:1029E00032052093310590E008958FEF9FEF089511
:1029F00080913105909132059093300580932F0599
:102A000008954F925F926F927F928F929F92AF92B2
:102A1000BF92CF92DF92EF92FF920F931F93CF93CB
:102A2000DF93CDB7DEB7A0970FB6F894DEBF0FBE29
:102A3000CDBF5C014115510561057105E9F420E048
:102A400030E040E350E060E070E0A0960FB6F8940C
:102A5000DEBF0FBECDBFDF91CF911F910F91FF90D1
:102A6000EF90DF90CF90BF90AF909F908F907F902E
:102A70006F905F904F905BC08E010F5F1F4FC12C16
:102A8000D12C76014801422E512C612C712C8FEFF4
:102A9000C81AD80AE80AF80ACB01BA01A3019201C0
:102AA0000E945BA1CA01F80161938F01A901BC01D9
:102AB000411551056105710551F7F1E0CF1AD108B3
:102AC000E108F108F401EC0DFD1D80818A3010F45D
:102AD00040E301C047E3480F552747FD5095652F58
:102AE000752F20E030E0C50122D081E0C81AD1085E
:102AF000E108F108EFEFCE16DE06EE06FE0611F74E
:102B0000A0960FB6F894DEBF0FBECDBFDF91CF9178
:102B10001F910F91FF90EF90DF90CF90BF90AF90FB
:102B20009F908F907F906F905F904F9008952115A8
:102B3000310539F48091C00085FFFCCF4093C60079
:102B400008952A30310509F41CC05BCFCF93DF9381
:102B5000EC0120E030E04DE050E060E070E0E7DFC5
:102B600020E030E04AE050E060E070E0CE01DF912C
:102B7000CF91DDCF9A01AB01662757FD6095762F87
:102B8000D6CFCF92DF92EF92FF92CF93DF93EC01FB
:102B90006A017B0177FF0FC020E030E04DE250E09A
:102BA00060E070E0C4DFF094E094D094C094C11C65
:102BB000D11CE11CF11C2AE0B701A601CE01DF9176
:102BC000CF91FF90EF90DF90CF901BCF2115310573
:102BD00039F48091C00085FFFCCF4093C600089572
:102BE00010CF9A01462F50E060E070E0EFCFCF9316
:102BF000DF93EC019A01AB0160E070E0E7DFCE010A
:102C0000DF91CF91A3CF8F929F92AF92BF92CF923D
:102C1000DF92EF92FF921F93CF93DF93EC016A0153
:102C20007B01122F20E030E0A901C701B6010E940C
:102C30008A9D87FF0CC020E030E04DE250E060E06C
:102C400070E0CE0174DFF7FAF094F7F8F094B12C4D
:102C500060E070E080E09FE3B11641F020E030E0FA
:102C600040E251E40E94919DB394F6CF9B01AC01E8
:102C7000C701B6010E94B19C6B017C010E94FE9DC0
:102C80004B015C010E942A9E9B01AC01C701B60169
:102C90000E94B09C6B017C012AE0B501A401CE0129
:102CA000B0DE112361F0E3E8F3E08191882339F08D
:102CB0009091C00095FFFCCF8093C600F6CF112302
:102CC00019F120E030E040E251E4C701B6010E9472
:102CD0005FA06B017C010E94F99D4B01AA2497FC27
:102CE000A094BA2CB501A401CE014BDFC501B401FB
:102CF0000E942C9E9B01AC01C701B6010E94B09CB2
:102D00006B017C011150DBCFDF91CF911F91FF90C0
:102D1000EF90DF90CF90BF90AF909F908F900895ED
:102D200072CFFC0165917591859194910895EF9210
:102D3000FF920F931F93CF93DF93EC01CC0FDD1F16
:102D4000CC0FDD1FCE018851964FEBDF9E01265D33
:102D5000384F79018E01025E184FF80120813181D0
:102D6000428153810E94B19CF70160837183828309
:102D70009383CE018050964FD4DF9E012E5E384F54
:102D80007901F80120813181428153810E94B19CF7
:102D9000F7016083718382839383CE018C50964FB9
:102DA000C0DFCF5EDD4FF801208131814281538148
:102DB0000E94B19C688379838A839B83DF91CF9142
:102DC0001F910F91FF90EF9008952F923F924F9295
:102DD0005F926F927F928F929F92AF92BF92CF92AB
:102DE000DF92EF92FF920F931F93CF93DF9300D068
:102DF0001F92CDB7DEB74C01FC01E353F64FB49000
:102E0000880F991F880F991F9C838B83865D984F2D
:102E10001C01FC01108211821282138226E337E02A
:102E200042E357E06EE277E08AE297E00E94F964BD
:102E30008B819C818452964F74DF6B017C016B2DDA
:102E4000772767FD7095872F972F0E942C9E2B0167
:102E50003C018B819C818850994F5C0120E030E0DF
:102E600040EC5FE3C701B6010E945FA0A30192019D
:102E70000E945FA0F50160837183828393838B81BD
:102E80009C81895D9D4F9A838983FC01608171815A
:102E90008281938160930B0270930C0280930D02E8
:102EA00090930E0220E030E040E752E40E94919DB2
:102EB0003AE0C32E37E0D32E7B018C0124E037E0CB
:102EC00040E057E06CEF76E088EF96E00E94605BB0
:102ED0000E946F6EF101108211821282138226E32A
:102EE00037E042E357E06EE277E08AE297E00E9443
:102EF000F9648B819C818053964F9C838B8311DF77
:102F00009058A30192010E945FA0F5016083718334
:102F10008283938320E030E040E752E460910B022B
:102F200070910C0280910D0290910E020E94919D71
:102F30007B018C0124E037E040E057E06CEF76E065
:102F400088EF96E00E94605B0E946F6E8B819C818F
:102F5000E8DE9B01AC010E94B19CA30192010E949A
:102F60005FA0F501608371838283938320E030E06A
:102F700040E05FE3E981FA81608171818281938120
:102F80000E945FA060930B0270930C0280930D026D
:102F900090930E0220E030E040E752E40E94919DC1
:102FA0007B018C0124E037E040E057E06CEF76E0F5
:102FB00088EF96E00E94605B0E946F6EC401B7DEEE
:102FC000F10180819181A281B381F5018083918398
:102FD000A283B38310920B0210920C0210920D0286
:102FE00010920E020E94AE66F401E15FF84F81E09C
:102FF00080830F900F900F900F90DF91CF911F91D2
:103000000F91FF90EF90DF90CF90BF90AF909F9087
:103010008F907F906F905F904F903F902F9008958A
:10302000FC012491222341F03091C00035FFFCCFF8
:103030002093C6000196F4CF22E030E08EEA94E0BF
:103040006FCEFC012491222341F03091C00035FF66
:10305000FCCF2093C6000196F4CF2AE030E08EEA40
:1030600094E0B4CDCF93DF931F921F92CDB7DEB71C
:1030700080916312909164129E012F5F3F4F0097E1
:1030800019F42956324102C0281B390B3A8329838F
:1030900089819A810F900F90DF91CF9108952091AF
:1030A0004D0530914E05243031050CF06AC0409139
:1030B0004F055091500560E6649F9001659F300D6B
:1030C0001124BC01C901895A9A4F0E94DFA4ECE087
:1030D000FAE08491882341F09091C00095FFFCCFE5
:1030E0008093C6003196F5CFE2ECF9E08491882315
:1030F00041F09091C00095FFFCCF8093C6003196BF
:10310000F5CF80914F059091500520E6289FF00162
:10311000299FF00D1124E95AFA4F8191882339F043
:103120009091C00095FFFCCF8093C600F6CFE0ECF5
:10313000F9E08491882341F09091C00095FFFCCF85
:103140008093C6003196F5CF8091C00085FFFCCFFB
:103150008AE08093C60080914F05909150050196BA
:1031600064E070E00E9448A19093500580934F0561
:1031700080914D0590914E05019690934E05809358
:103180004D05089520914D0530914E0524303105AF
:103190000CF06AC040914F055091500560E6649F65
:1031A0009001659F300D1124BC01C901895A9A4FC5
:1031B0000E946BA4ECE0FAE08491882341F09091A6
:1031C000C00095FFFCCF8093C6003196F5CFE5EBAC
:1031D000F9E08491882341F09091C00095FFFCCFE5
:1031E0008093C6003196F5CF80914F0590915005A0
:1031F00020E6289FF001299FF00D1124E95AFA4F8B
:103200008191882339F09091C00095FFFCCF809385
:10321000C600F6CFE3EBF9E08491882341F090916A
:10322000C00095FFFCCF8093C6003196F5CF80910A
:10323000C00085FFFCCF8AE08093C60080914F05D7
:1032400090915005019664E070E00E9448A190932F
:10325000500580934F0580914D0590914E05019644
:1032600090934E0580934D050895809A889A269AEA
:103270002E980895809A88980895F7DF40E950EDD8
:1032800063E070E08EEA94E061DBEDEAF9E08491BE
:10329000882341F09091C00095FFFCCF8093C60039
:1032A0003196F5CF8091C00085FFFCCF8AE08093F6
:1032B000C6008CE09AE0FC012491222341F0309179
:1032C000C00035FFFCCF2093C6003196F5CF24B760
:1032D00020FF14C0E5EAF9E03491332341F0409136
:1032E000C00045FFFCCF3093C6003196F5CF30913A
:1032F000C00035FFFCCF3AE03093C60021FF14C078
:10330000E6E9F9E03491332341F04091C00045FFF4
:10331000FCCF3093C6003196F5CF3091C00035FF19
:10332000FCCF3AE03093C60022FF14C0E8E7F9E092
:103330003491332341F04091C00045FFFCCF3093DE
:10334000C6003196F5CF3091C00035FFFCCF3AE092
:103350003093C60023FF14C0E5E6F9E0349133232F
:1033600041F04091C00045FFFCCF3093C60031963C
:10337000F5CF3091C00035FFFCCF3AE03093C60066
:1033800025FF14C0E1E5F9E02491222341F03091BA
:10339000C00035FFFCCF2093C6003196F5CF2091B9
:1033A000C00025FFFCCF2AE02093C60014BEEAE44B
:1033B000F9E02491222341F03091C00035FFFCCF89
:1033C0002093C6003196F5CFE4E4F9E0249122235E
:1033D00041F03091C00035FFFCCF2093C6003196FC
:1033E000F5CF2091C00025FFFCCF2AE02093C60036
:1033F000FC012491ECE0FAE0222349F03091C00076
:1034000035FFFCCF2093C60031962491F5CFECE236
:10341000F9E02491222341F03091C00035FFFCCF28
:103420002093C6003196F5CFE7E1F9E024912223FD
:1034300041F03091C00035FFFCCF2093C60031969B
:10344000F5CFECE0F9E02491222341F03091C00067
:1034500035FFFCCF2093C6003196F5CFEEEFF8E0B4
:103460002491222341F03091C00035FFFCCF2093FE
:10347000C6003196F5CF2091C00025FFFCCF2AE091
:103480002093C600E3EFF8E02491222341F030912D
:10349000C00035FFFCCF2093C6003196F5CFE7EE94
:1034A000F8E02491222341F03091C00035FFFCCF99
:1034B0002093C6003196F5CF2091C00025FFFCCFA8
:1034C0002AE02093C600FC018491ECE0FAE0882316
:1034D00049F09091C00095FFFCCF8093C6003196D3
:1034E0008491F5CFE6EDF8E08491882341F0909146
:1034F000C00095FFFCCF8093C6003196F5CFB2DDBA
:103500004AE050E0BC018EEA94E034DBEFEBF8E0F7
:103510008491882341F09091C00095FFFCCF809367
:10352000C6003196F5CF4AE050E060ED74E08EEAD7
:1035300094E020DB8091C00085FFFCCF8AE080937F
:10354000C600109253051092540510925505109222
:103550005605DED80E9499710E94105B0E949194DA
:103560000E94ED6D0E94BC87FFEF23ED80E3F150D8
:1035700020408040E1F700C0000008958091470599
:103580009091480560E070E001960C94C2A1809192
:103590004705909148054AE050E060E070E00196F0
:1035A0000C942AA3682F772767FD70952091510509
:1035B0003091520540E6429FC001439F900D112477
:1035C000895A9A4F0E94D4A4909348058093470546
:1035D00021E0892B09F420E0822F08950E946F9644
:1035E0006093430570934405809345059093460589
:1035F00008950E946F9660934305709344058093ED
:10360000450590934605E0915105F0915205ED5A1C
:10361000FA4F8081811114C0E2E8F4E0849188239C
:1036200041F09091C00095FFFCCF8093C600319689
:10363000F5CF8091C00085FFFCCF8AE08093C60063
:1036400008958EEA94E0D4D9E5E8F4E084918823E3
:1036500041F09091C00095FFFCCF8093C600319659
:10366000F5CF4091DC065091DD066091DE06709149
:10367000DF064F5F5F4F6F4F7F4F2AE030E08EEAEB
:1036800094E055DA8091C00085FFFCCF8AE08093FA
:10369000C600AFCF2F923F924F925F926F927F9270
:1036A0008F929F92AF92BF92CF92DF92EF92FF9252
:1036B0000F931F93CF93DF93CDB7DEB76E970FB6FF
:1036C000F894DEBF0FBECDBF70E6972E04E010E089
:1036D000E7E2EE2EE7E0FE2EFAE08F2EA3EBCA2EF5
:1036E000A7E0DA2E7724739480912F05909130050E
:1036F0002091310530913205821B930B8F779927EA
:10370000892B09F421C280914D0590914E050497B3
:103710000CF01AC28EEA94E04FD980934C052091A8
:103720004A0530914B058A3061F08D3051F08A3373
:1037300021F490914905992321F02F3531050CF49E
:1037400027C12115310509F441C180914F059091A0
:103750005005989E5001999EB00C1124F501E20F7E
:10376000F31FE95AFA4F10822091490521110BC12C
:10377000FC01ED5AFA4F10829501295A3A4F19016E
:103780006EE470E0C9010E94D4A40097E9F190931F
:10379000480580934705821993098A0D9B1D4AE0CD
:1037A00050E060E070E0885A9A4F0E942AA360932C
:1037B000E0067093E1068093E2069093E306209181
:1037C000DC063091DD064091DE065091DF062F5F6A
:1037D0003F4F4F4F5F4FA0904F05B090500562177D
:1037E00073078407950709F4F4C09A9CC0019B9C59
:1037F000900D112469EA78E0895A9A4F0E9499A4A1
:10380000892B09F0E6C073C16AE270E0C1010E9431
:10381000D4A4892B09F443C0E2E1FAE0849188231F
:1038200041F09091C00095FFFCCF8093C600319687
:10383000F5CFE6EBF7E08491882341F09091C0004A
:1038400095FFFCCF8093C6003196F5CF4091DC0602
:103850005091DD066091DE067091DF062AE030E0CF
:103860008EEA94E064D98091C00085FFFCCF8AE0A5
:103870008093C60010924B0510924A05CBC28091EE
:10388000E0069091E106A091E206B091E3068093F4
:10389000DC069093DD06A093DE06B093DF068091F0
:1038A0004F0590915005989E5001999EB00C11249F
:1038B000C501895A9A4F1C0167E470E00E94D4A4A4
:1038C000009709F44BC090934805809347058219EF
:1038D00093098A0D9B1D60E070E0885A9A4F0E9400
:1038E000C2A10E94F99D6430710508F037C0809133
:1038F000350581111AC08091400781112FC0F60152
:103900008491E3EBF7E0882349F09091C00095FFA4
:10391000FCCF8093C60031968491F5CF8091C00092
:1039200085FFFCCF8092C60019C0F7018491E7E2C1
:10393000F7E0882349F09091C00095FFFCCF809379
:10394000C60031968491F5CF8091C00085FFFCCFF1
:103950008092C60080E297E00E944A8780914F05DE
:10396000909150050196B8010E9448A1909350058E
:1039700080934F0580914D0590914E05019690934F
:103980004E0580934D0510924B0510924A05ACCE22
:103990008B3311F470924905909149059111A4CE91
:1039A00040914F0550915005B9016F5F7F4F709363
:1039B0004B0560934A05949EF001959EF00D1124ED
:1039C000E20FF31FE95AFA4F80838ECE1092490519
:1039D00021C29A9C10019B9C300C1124C101895A70
:1039E0009A4F5C016AE270E00E94D4A4009781F5CE
:1039F000E2E1FAE08491882341F09091C00095FFC4
:103A0000FCCF8093C6003196F5CFE4EFF7E08491C8
:103A1000882341F09091C00095FFFCCF8093C600B1
:103A20003196F5CF4091DC065091DD066091DE06BF
:103A30007091DF062AE030E08EEA94E078D8809139
:103A4000C00085FFFCCF8AE08093C600FADD12CF6C
:103A500020E0612CF101E20FF11DE95AFA4F3081AB
:103A60003A3219F02F5F6326F5CF90934805809383
:103A700047058A199B09820D931D60E070E0885A02
:103A80009A4F0E94C2A10E94F99D262D30E0261770
:103A9000370709F4F4CEE2E1FAE08491882341F09B
:103AA0009091C00095FFFCCF8093C6003196F5CF72
:103AB000E8E3F8E08491882341F09091C00095FFFD
:103AC000FCCF8093C6003196F5CF4091DC06509133
:103AD000DD066091DE067091DF062AE030E08EEAB6
:103AE00094E025D88091C00085FFFCCFACCFE2E107
:103AF000FAE08491882341F09091C00095FFFCCFBB
:103B00008093C6003196F5CFEFE5F8E084918823E5
:103B100041F09091C00095FFFCCF8093C600319694
:103B2000F5CF4091DC065091DD066091DE06709184
:103B3000DF062AE030E08EEA94E00E94971580913B
:103B4000C00085FFFCCF7FCF80914207882309F416
:103B500061C180914A0590914B05892B09F05AC1AA
:103B600080914D0590914E05892B11F410923305EB
:103B700058EE252E53E0352E412C512C6CE3C62EE9
:103B8000D12CE12CF12C8E010F5F1F4F40E6642EEB
:103B9000772473944091C3095091C4096091C50979
:103BA0007091C6098091BB099091BC09A091BD0993
:103BB000B091BE09481759076A077B0708F02AC168
:103BC00080914D0590914E0504970CF023C1809192
:103BD000330581111FC18091160990911709A09199
:103BE0001809B09119098093C3099093C409A0934F
:103BF000C509B093C6098EE099E00E943C3D482F6C
:103C000080934C058A30B9F04D30A9F0433229F445
:103C100020914905211103C00EC04A33C9F32091F8
:103C20004A0530914B052F3531052CF48F3FFFEFBE
:103C30009F0709F0D1C04091C3095091C409609118
:103C4000C5097091C6098091BB099091BC09A091EA
:103C5000BD09B091BE09481759076A077B0708F4E8
:103C600081C0ECE0F7E08491882341F09091C0009E
:103C700095FFFCCF8093C6003196F5CF8091C000B0
:103C800085FFFCCFFAE0F093C6000E946F96609328
:103C90003705709338058093390590933A058090E5
:103CA0003B0590903C05A0903D05B0903E056819FD
:103CB00079098A099B09A20191010E945BA149012E
:103CC0005A01CA01B901A70196010E945BA1CA016C
:103CD000B901A70196010E945BA17F936F93C50173
:103CE000B40120E13EE040E050E00E945BA13F9340
:103CF0002F93A8EFB6E0BF93AF931F930F930E944B
:103D000003A5ECE0FAE084910FB6F894DEBF0FBE95
:103D1000CDBF882349F09091C00095FFFCCF8093E0
:103D2000C60031968491F5CFF8018191882339F04E
:103D30009091C00095FFFCCF8093C600F6CF809194
:103D4000C00085FFFCCF3AE03093C600C8010E9456
:103D50003B8780E497E00E94F15361E080E497E0C4
:103D60000E94535180914C05833211F470923305B7
:103D700020914A0530914B052115310509F426CED5
:103D800080914F0590915005689EF001699EF00D5D
:103D90001124E20FF31FE95AFA4F1082FC01ED5A89
:103DA000FA4F708220914D0530914E052F5F3F4FA5
:103DB00030934E0520934D05019664E070E00E941B
:103DC00048A19093500580934F0510924905109299
:103DD0004B0510924A05DECE4B3311F47092490523
:103DE000409149054111D2CE40914F055091500567
:103DF000B9016F5F7F4F70934B0560934A05649ED6
:103E0000F001659EF00D1124E20FF31FE95AFA4FFD
:103E10008083C0CE6E960FB6F894DEBF0FBECDBFC6
:103E2000DF91CF911F910F91FF90EF90DF90CF9096
:103E3000BF90AF909F908F907F906F905F904F90CA
:103E40003F902F9008958F929F92AF92BF92CF9202
:103E5000DF92EF92FF920F931F93CF93DF93B0E126
:103E6000EB2EB4E0FB2E0AE217E0C8EFD6E08CE3BD
:103E7000C82E87E0D82EF70181917F0193DB88233C
:103E800011F17CDB4B015C01F6018081811103C0E3
:103E90006091D70601C061E070E080E090E00E9490
:103EA0002C9EF80120813181428153810E945FA0C4
:103EB0009B01AC01C501B4010E94B19C6883798368
:103EC0008A839B8309C0F80180819181A281B3819B
:103ED00088839983AA83BB830C5F1F4F2496FFEFCF
:103EE000CF1ADF0A84E1E81684E0F80621F686E4BA
:103EF00059DB8823D1F042DB6B017C016093E8063B
:103F00007093E9068093EA069093EB0620E030E098
:103F1000A9010E948D9F181644F4C0920B02D09202
:103F20000C02E0920D02F0920E02DF91CF911F91F0
:103F30000F91FF90EF90DF90CF90BF90AF909F9048
:103F40008F90089580DF89E42DDB882351F016DB04
:103F50006093EC067093ED068093EE069093EF0667
:103F600008C01092EC061092ED061092EE06109228
:103F7000EF068AE417DB882351F000DB6093F0063C
:103F80007093F1068093F2069093F30608951092D1
:103F9000F0061092F1061092F2061092F3060895C0
:103FA0000895CF92DF92EF92FF920F931F930E949A
:103FB0006F966093430570934405809345059093F5
:103FC00046052091F8063091F9064091FA06509185
:103FD000FB0660912A0770912B0780912C07909126
:103FE0002D070E948A9D811179C02091FC06309195
:103FF000FD064091FE065091FF0660912E077091DC
:104000002F0780913007909131070E948A9D81117E
:1040100065C020E030E040E752E460910B0270910F
:104020000C0280910D0290910E020E94919D2AE057
:10403000C22E27E0D22E7B018C0124E037E040E045
:1040400057E06CEF76E088EF96E00E94605B80912D
:10405000F8069091F906A091FA06B091FB068093BC
:104060002A0790932B07A0932C07B0932D078091DC
:10407000FC069091FD06A091FE06B091FF0680938C
:104080002E0790932F07A0933007B09331078091AC
:10409000000790910107A0910207B0910307809358
:1040A000320790933307A0933407B093350780917C
:1040B000040790910507A0910607B0910707809328
:1040C000360790933707A0933807B09339071F91AD
:1040D0000F91FF90EF90DF90CF90089560912502AF
:1040E00070912602882777FD8095982F0E942C9E3C
:1040F00020910B0230910C0240910D0250910E0262
:104100000E945FA020E030E040E752E40E94919DD1
:1041100020E030E048EC52E488CFAF92BF92CF92DB
:10412000DF92EF92FF920F931F93CF93DF93D82FDD
:104130002091F0063091F1064091F2065091F3067D
:104140006091EC067091ED068091EE069091EF067D
:104150000E949A9FC62F172F082FF92E60912502D3
:1041600070912602882777FD8095982F0E942C9EBB
:1041700020910B0230910C0240910D0250910E02E1
:104180000E945FA020E030E040E752E40E94919D51
:1041900020E030E048EC52E40E94919D20910A0713
:1041A0002F93DF93FF920F931F93CF935B016C01CB
:1041B00032E0E32E01E020E04CEE56E068EF76E0DE
:1041C0008AE297E00E9449548091F8069091F9069E
:1041D000A091FA06B091FB0680932A0790932B07D3
:1041E000A0932C07B0932D078091FC069091FD06BB
:1041F000A091FE06B091FF0680932E0790932F07A3
:10420000A0933007B0933107809100079091010788
:10421000A0910207B0910307809332079093330770
:10422000A0933407B0933507809104079091050758
:10423000A0910607B0910707809336079093370740
:10424000A0933807B09339070E946F966093430597
:104250007093440580934505909346050F900F9009
:104260000F900F900F900F90DF91CF911F910F91B2
:10427000FF90EF90DF90CF90BF90AF900895F894AB
:104280000E945F72159A10920F07179A10921007EA
:10429000429A10921107A09A60E08CE00E945A980E
:1042A000E2E1FAE08491882341F09091C00095FF0B
:1042B000FCCF8093C6003196F5CFE0E6F4E0849120
:1042C000882341F09091C00095FFFCCF8093C600F9
:1042D0003196F5CF8091C00085FFFCCF8AE08093B6
:1042E000C6008FE494E00E9459870E943A19FFCFDC
:1042F000CF92DF92EF92FF920F931F930E946F96DF
:1043000000913F05109140052091410530914205F3
:10431000C0904305D0904405E0904505F0904605D7
:104320006C197D098E099F09061717072807390799
:1043300028F4012B022B032B09F0A1DF8091070247
:1043400090910802A0910902B0910A02892B8A2B50
:104350008B2B09F10E946F96009143051091440543
:104360002091450530914605601B710B820B930B24
:1043700000910702109108022091090230910A026F
:10438000061717072807390730F49091DC0B809146
:10439000DB0B981741F01F910F91FF90EF90DF908A
:1043A000CF900C94445B159A10920F07179A1092B5
:1043B0001007429A10921107A09AEDCF0E945F72E7
:1043C00080913505811138C081E080933505809159
:1043D000DC069091DD06A091DE06B091DF068093A9
:1043E000D8069093D906A093DA06B093DB06E2E1F3
:1043F000FAE08491882341F09091C00095FFFCCFB2
:104400008093C6003196F5CFE3ECF3E084918823E6
:1044100041F09091C00095FFFCCF8093C60031968B
:10442000F5CF8091C00085FFFCCF8AE08093C60065
:104430008CEB93E00C944A8708958091350508959C
:1044400067707727E82FF0E0E555F54E849190E00E
:10445000FC013797EC30F10578F5EE58FF4F0C94DE
:1044600099A18091B100887F8093B1008091B100C3
:10447000862B8093B100089580919100887F80936E
:10448000910080919100862B8093910008958091F6
:10449000A100887F8093A1008091A100862B80934A
:1044A000A100089580912101887F8093210180914E
:1044B0002101862B809321010895CF93DF93EC0196
:1044C00080910A078093360584E56CD8811102C07B
:1044D00080E074C053D80E94FE9D60933605662329
:1044E000B9F3ECE0FAE08491882341F09091C000A8
:1044F00095FFFCCF8093C6003196F5CFCD36D10520
:10450000B9F054F4C836D105B1F0C936D10509F077
:1045100045C0E7E2F3E021C0CA3DD10531F0CD3D11
:10452000D105E1F5EFEDF2E036C0E7EFF2E029C0AA
:10453000EFE0F3E01CC0EFE3F3E08191882371F139
:104540009091C00095FFFCCF8093C600F6CF90916C
:10455000C00095FFFCCF8093C60081918111F7CFF9
:104560001DC09091C00095FFFCCF8093C600819143
:104570008111F7CF13C09091C00095FFFCCF8093BD
:10458000C60081918111F7CF09C09091C00095FFBD
:10459000FCCF8093C60081918111F7CF40E050E0BD
:1045A000609136058EEA94E00E94F1158091C0007A
:1045B00085FFFCCF8AE08093C60081E0DF91CF9138
:1045C00008953F924F925F926F927F928F929F9247
:1045D000AF92BF92CF92DF92EF92FF920F931F9311
:1045E000CF93DF93CDB7DEB7E4970FB6F894DEBF75
:1045F0000FBECDBF87E40E94D21A882309F490C36E
:104600000E94BE1A0E94F99D64307105B1F144F414
:104610006230710511F144F577FF17C00C94ED3548
:104620006A35710509F428C334F46C31710509F455
:104630006BC00C94ED356B35710509F421C36C35F5
:10464000710509F422C30C94ED3580913505811173
:1046500004C0F9DBA6DC0C94833780913505811109
:1046600003C070DC81E006C080913505811105C072
:1046700069DC80E052DD0C9483378EEE96E00E9478
:104680004A8780E50E94D21A882339F00E94BE1A18
:104690000E94FE9D4B015C0103C0812C912C5401B2
:1046A00083E50E94D21A882361F00E94BE1A20E09E
:1046B00030E04AE754E40E945FA00E94FE9D4B0157
:1046C0005C010E946F6E0E946F966B017C01C80CAA
:1046D000D91CEA1CFB1C0E946F96609343057093E3
:1046E000440580934505909346050E946F966C158E
:1046F0007D058E059F0510F00C94ED350E948F6F9F
:10470000F7DD0E94E487F1CF80910B0290910C02BB
:10471000A0910D02B0910E028093E4069093E506FD
:10472000A093E606B093E7068091250290912602B9
:1047300090933B0780933A0784E690E0909326029B
:10474000809325020E946F96609343057093440501
:10475000809345059093460581E00E94B56680915F
:104760002A0790912B07A0912C07B0912D078093D9
:10477000F8069093F906A093FA06B093FB06809191
:104780002E0790912F07A0913007B09131078093A9
:10479000FC069093FD06A093FE06B093FF06809161
:1047A000320790913307A0913407B0913507809379
:1047B000000790930107A0930207B093030780912D
:1047C000360790913707A0913807B0913907809349
:1047D000040790930507A0930607B093070710926C
:1047E0000B0210920C0210920D0210920E0288E53C
:1047F0000E94D21A882311F090E00AC089E50E9435
:10480000D21A8111F9CF8AE50E94D21A91E0982735
:1048100090930F0291110CC088E50E94D21A882350
:1048200009F47CC189E50E94D21A882309F476C173
:1048300010922A0710922B0710922C0710922D0726
:1048400010922E0710922F07109230071092310706
:10485000EDECF9E0149126E337E042E357E06EE235
:1048600077E08AE297E00E94F9648CED99E00E947B
:10487000911620E030E040EC5FE30E945FA06B0106
:104880007C01612F772767FD7095872F972F0E94F6
:104890002C9E9B01AC01C701B6010E945FA06093F2
:1048A000F8067093F9068093FA069093FB0680EE63
:1048B00099E00E949116EEECF9E0149120E030E0CE
:1048C00040EC5FE30E945FA06B017C01612F7727C2
:1048D00067FD7095872F972F0E942C9E9B01AC013E
:1048E000C701B6010E945FA06093FC067093FD06AD
:1048F0008093FE069093FF062091270230912802B4
:104900004091290250912A0220930B0230930C020D
:1049100040930D0250930E02C0902B02D0902C02B7
:10492000E0902D02F0902E02C701B6010E948A9DF0
:1049300087FF08C0C0920B02D0920C02E0920D02D9
:10494000F0920E028CED99E00E9491166B017C01B1
:1049500080EE99E00E9491169B01AC01C701B6015F
:104960000E948D9F181614F00C94F03580EE99E09B
:104970000E9491166B017C018CED99E00E949116CA
:104980009B01AC01C701B6010E94919D9B01AC0146
:104990000E945FA020E030E040E85FE30E94B19C0D
:1049A0000E94CCA09B01AC0160910B0270910C02A3
:1049B00080910D0290910E020E945FA060930B0205
:1049C00070930C0280930D0290930E0220E030E071
:1049D00040E752E460910B0270910C0280910D024D
:1049E00090910E020E94919DEAE0CE2EE7E0DE2E2D
:1049F0007B018C0124E037E040E057E06CEF76E08B
:104A000088EF96E00E94605B0E946F6E80E090E00D
:104A10000E94971681E090E00E94971626E337E007
:104A200042E357E06EE277E08AE297E00E94F964A1
:104A300080912A0790912B07A0912C07B0912D0708
:104A40008093F8069093F906A093FA06B093FB06BC
:104A500080912E0790912F07A0913007B0913107D8
:104A60008093FC069093FD06A093FE06B093FF068C
:104A700020E030E040E752E460910B0270910C02BC
:104A800080910D0290910E020E94919D7B018C01FC
:104A900024E037E040E057E06CEF76E088EF96E006
:104AA0000E94605B10920B0210920C0210920D0299
:104AB00010920E020E946F6E0E94AE668091F80600
:104AC0009091F906A091FA06B091FB0680932A070F
:104AD00090932B07A0932C07B0932D078091FC0691
:104AE0009091FD06A091FE06B091FF0680932E07DF
:104AF00090932F07A0933007B09331078091000760
:104B000090910107A0910207B091030780933207AB
:104B100090933307A0933407B093350780910F0229
:104B200081110C94FA3588E50E94D21A81110C94F7
:104B3000FA3580910F0281110C94003689E50E94AC
:104B4000D21A81110C94003688E50E94D21A88236B
:104B5000D1F00E94C71A672B682B692BA1F00E9425
:104B6000BE1A20911E0730911F07409120075091D7
:104B700021070E94B19C60932A0770932B078093B2
:104B80002C0790932D0789E50E94D21A8823D1F033
:104B90000E94C71A672B682B692BA1F00E94BE1ACE
:104BA0002091220730912307409124075091250737
:104BB0000E94B19C60932E0770932F07809330075B
:104BC0009093310780910F0281110C9406368AE58B
:104BD0000E94D21A81110C9406368AE50E94D21ADC
:104BE0008823D1F00E94C71A672B682B692BA1F08C
:104BF0000E94BE1A2091260730912707409128076E
:104C0000509129070E94B19C60933207709333073B
:104C1000809334079093350726E337E042E357E06B
:104C20006EE277E08AE297E00E94F9648091E40600
:104C30009091E506A091E606B091E70680930B02FD
:104C400090930C02A0930D02B0930E0280913A074C
:104C500090913B0790932602809325020E946F96C5
:104C600060934305709344058093450590934605F2
:104C70000E94AE660C94ED351092D7060C94ED357B
:104C800081E08093D7060C94ED3585E40E94D21A1A
:104C9000811102C00E946F6E50E1C52E54E0D52EE6
:104CA0006EE1E62E67E0F62E0AE217E0B12CF6017F
:104CB00081916F010E94D21A882339F1F3E0BF126B
:104CC0000CC00E94BE1AF8016083718382839383B3
:104CD00086E397E00E949E6518C00E94BE1AF70105
:104CE00020813181428153810E94B19CF80160830F
:104CF00071838283938326E337E042E357E06EE2D9
:104D000077E08AE297E00E94F964B394F4E0EF0E52
:104D1000F11C0C5F1F4F24E0B212C9CF0C94ED358B
:104D20008DE40E94D21A882311F40C941C350E9441
:104D3000BE1A0E94F99D6D36710509F4FFC40CF08E
:104D4000ABC06E31710509F457C20CF046C0663134
:104D5000710509F4E2C1BCF46131710509F49FC128
:104D600034F46230710508F440C10C94ED356431BF
:104D7000710509F49EC10CF0CAC16231710509F4D4
:104D8000A3C50C94ED356931710509F4E5C1CCF486
:104D90006731710509F4C7C16831710511F00C94D0
:104DA000ED3580E497E00E94D54B0E946F966093AA
:104DB0003B0570933C0580933D0590933E050C9414
:104DC000ED356B31710509F4DBC10CF4CBC16C31ED
:104DD000710509F4DBC10C94ED356335710509F4F7
:104DE0006EC54CF56A32710509F441C354F46F3154
:104DF000710509F4DEC26032710509F43CC20C94FD
:104E0000ED356135710509F437C50CF054C56035D1
:104E1000710511F00C94ED35269A2E98809A889A97
:104E200081E08093100281E196E00E944A870E940F
:104E3000E4870C94ED356836710509F443C3DCF45E
:104E40006535710509F478C50CF43EC56C357105FE
:104E500011F00C94ED3520E134E038AB2FA70DE0D4
:104E600011E15DE1852E51E1952E61EDA62E60E107
:104E7000B62E312CD9C56A36710509F4CDC40CF4AF
:104E800050C36B36710511F00C94ED351092090783
:104E9000109208070C94ED356D3D710511F40C94DA
:104EA0007A300CF04BC06C38710509F429C30CF54D
:104EB0006537710509F4D6C564F46237710509F4E4
:104EC000E6C56337710511F00C94ED35ECE3F5E0C0
:104ED000C4C56837710509F4B9C66937710509F4A5
:104EE000B9C66737710511F00C94ED35E7E6F3E0CC
:104EF000BBC66C3C710511F40C94D12F84F4693C51
:104F0000710511F40C94952F6B3C710511F40C9400
:104F1000B52F683C710511F00C94ED358EC76E3CD1
:104F2000710511F40C944F3014F40C94F12F6C3D76
:104F3000710511F40C946B300C94ED35643F31E045
:104F4000730711F40C940D322CF56D3291E0790752
:104F500011F40C94013164F4623E710511F40C9467
:104F6000A0306C32714011F40C94CB300C94ED35C0
:104F70006F3221E0720711F40C94D53114F40C94C3
:104F8000C7316039714011F00C94ED350E946F6E9D
:104F90000C94ED35683592E0790711F40C94EB32FE
:104FA00094F4663FF1E07F0711F40C94133214F48B
:104FB0000C941032673F714011F00C94ED350E9453
:104FC000640F0C94ED35603A83E0780709F4BDC1B5
:104FD000673E93E0790711F40C940535633573400F
:104FE00011F00C94ED350C9416328CED96E00E9485
:104FF0004A8780E50E94D21A882339F00E94BE1A9F
:105000000E94FE9D6B017C0103C0C12CD12C760156
:1050100083E50E94D21A882361F00E94BE1A20E024
:1050200030E04AE754E40E945FA00E94FE9D6B01BD
:105030007C010E946F6E0E946F966093430570938F
:1050400044058093450590934605C114D104E104BD
:10505000F104A9F00E946F964B015C018C0C9D1C21
:10506000AE1CBF1C0E946F96681579058A059B05CA
:1050700080F40E94A68881110CC00C940C360E940A
:10508000A688811106C00E948F6F32D90E94E487E2
:10509000F6CF8AEC96E00E944A870C94ED358BEBB4
:1050A00096E00E944A87159817984298A0980C9409
:1050B000ED35EAE9F6E08491882341F09091C00053
:1050C00095FFFCCF8093C6003196F5CF8091C0004C
:1050D00085FFFCCF8AE08093C60080E497E00E94C1
:1050E000B64AEEE7F6E08491882341F09091C00043
:1050F00095FFFCCF8093C6003196F5CF8091C0001C
:1051000085FFFCCF8AE08093C6000C94ED3580E4E7
:1051100097E00E940D4B0C94ED3580E497E00E94DF
:10512000D14B0C94ED3500914705109148050C5F6B
:105130001F4F6AE270E0C8010E94D4A4009719F0E2
:10514000FC013197108221E041E0B80180E497E052
:105150000E94404C0C94ED3580E497E00E94DC4BBB
:105160000C94ED3580914307882311F40C94ED35B0
:1051700083E50E94D21A81110C9414360C94ED35FB
:1051800080E497E00E948D500C94ED3580914705A6
:10519000909148056AE270E004960E94D4A48C01C4
:1051A0000097E1F0209151053091520540E6429F71
:1051B000C001439F900D11246EE470E0895A9A4F0C
:1051C0000E94D4A460E270E00E94D4A4019690935F
:1051D000480580934705F801319710826091470593
:1051E000709148056C5F7F4F21E040E080E497E0DC
:1051F0000E94404C0C94ED3580914307882311F4B4
:105200000C94ED3560E080E497E00E944752809175
:105210004705909148056AE270E004960E94D4A484
:105220008C010097E1F0209151053091520540E644
:10523000429FC001439F900D11246EE470E0895A93
:105240009A4F0E94D4A460E270E00E94D4A4019618
:105250009093480580934705F8013197108260913B
:105260004705709148056C5F7F4F80E497E00E948E
:10527000544F0C94ED358091420781110E946F6E5E
:1052800000914705109148050C5F1F4F6AE270E0DE
:10529000C8010E94D4A47C0161E270E0C8010E94B0
:1052A000D4A4009719F08C010F5F1F4FE114F10493
:1052B00019F0F7013197108280E50E94D21AF82E7A
:1052C00020914705309148050217130708F4F12C87
:1052D00080914307882311F40C94ED3521E02F25AC
:1052E00041E0B80180E497E00E94404C83E50E94D1
:1052F000D21A8823B9F0209147053091480520172C
:10530000310780F40E94C71AAB01BC014093C30966
:105310005093C4096093C5097093C6098EE099E063
:105320000E94A23E80E497E00E94D54BF1100C94BD
:10533000ED350E946F9660933B0570933C0580931A
:105340003D0590933E050C94ED3580914705909175
:1053500048056AE270E005960E94D4A48C0100978B
:10536000E1F0209151053091520540E6429FC00185
:10537000439F900D11246EE470E0895A9A4F0E9469
:10538000D4A460E270E00E94D4A4019690934805F2
:1053900080934705F801319710826091470570911D
:1053A00048056B5F7F4F80E497E00E944F4F0C945D
:1053B000ED350E946F9660933705709338058093A2
:1053C000390590933A0500913B0510913C052091D9
:1053D0003D0530913E05601B710B820B930B28EE4F
:1053E00033E040E050E00E945BA1CA01B9012CE328
:1053F00030E040E050E00E945BA17F936F933F93C9
:105400002F938FE696E09F938F93CE0101969F9303
:105410008F930E9403A5ECE0FAE084910FB6F89414
:10542000DEBF0FBECDBF882349F09091C00095FF2D
:10543000FCCF8093C60031968491F5CFFE01319662
:105440008191882339F09091C00095FFFCCF809323
:10545000C600F6CF8091C00085FFFCCF8AE0809324
:10546000C600CE0101960E943B870C94ED3583E582
:105470000E94D21A882311F40C94ED350E94BE1AB2
:105480006B017C0180E50E94D21A882351F0C7018C
:10549000B6010E94F99D6F3F710509F010F40C945C
:1054A00025366DE070E020E0E22FEE0FFF0BE852B2
:1054B000FC4F808191818617970711F40C94ED358C
:1054C0002F5FF2CF88E690E00E945D2281110C945C
:1054D000ED3583E50E94D21A882371F000913605DC
:1054E0000E94BE1A10E0000F111F01531E4E0E94B1
:1054F000F99DF801718360830E9424720C94ED354C
:1055000083E50E94D21A882311F40C94ED350E9491
:10551000BE1A0E94F99D7093CE116093CD110C9428
:10552000ED3589E690E00E945D2281110C94ED3505
:10553000E9E6F6E08491882341F09091C00095FF60
:10554000FCCF8093C6003196F5CFE091360524E07C
:10555000E29FF0011124E953FE4E408151816281A6
:10556000738121E030E08EEA94E00E949016E6E636
:10557000F6E08491882341F09091C00095FFFCCF24
:105580008093C6003196F5CFE0913605F0E0EE0F3E
:10559000FF1FE153FE4E60817181882777FD809562
:1055A000982F0E942C9EAB01BC0121E030E08EEAD6
:1055B00094E00E949016E2E6F6E08491882341F0A0
:1055C0009091C00095FFFCCF8093C6003196F5CF37
:1055D0004091C1115091C2116091C3117091C411D9
:1055E00021E030E08EEA94E00E949016EFE5F6E0CC
:1055F0008491882341F09091C00095FFFCCF809367
:10560000C6003196F5CF6091CD117091CE118827EB
:1056100077FD8095982F0E942C9EAB01BC0121E064
:1056200030E08EEA94E00E949016ECE5F6E084917A
:10563000882341F09091C00095FFFCCF8093C60075
:105640003196F5CF4AE050E060E070E08EEA94E0F9
:105650000E94BA15EAE5F6E08491882341F0909122
:10566000C00095FFFCCF8093C6003196F5CF4091E6
:10567000C7115091C8116091C9117091CA1121E0F0
:1056800030E08EEA94E00E949016E7E5F6E084911F
:10569000882341F09091C00095FFFCCF8093C60015
:1056A0003196F5CF6091CF117091D011882777FD99
:1056B0008095982F0E942C9EAB01BC0121E030E028
:1056C0008EEA94E00E949016E3E5F6E08491882348
:1056D00041F09091C00095FFFCCF8093C6003196B9
:1056E000F5CF8091360590E00E94846F4AE050E04B
:1056F000BC018EEA94E00E94BA15EEE4F6E08491D3
:10570000882341F09091C00095FFFCCF8093C600A4
:105710003196F5CF8FEF9FEF0E94846F4AE050E003
:10572000BC018EEA94E00E94BA158091C00085FF0A
:10573000FCCF8AE08093C6000C9483378DE690E01E
:105740000E945D2281110C94ED3580E496E00E9468
:105750004A8783E50E94D21A882391F0009136058A
:105760000E94BE1A10E0000F111F01531E4E0E942E
:10577000F99DF8017183608381E08093060215C072
:1057800082E50E94D21A882381F0009136050E949A
:10579000BE1A10E0000F111F01531E4E0E94F99D0A
:1057A000F80171836083109206020E9424720E94A5
:1057B0006F964B015C010091360510E0F801EE0F89
:1057C000FF1FE153FE4E60817181882777FD809530
:1057D000982F0E942C9EF801EE0FFF1FEE0FFF1F67
:1057E000E953FE4E11E020813181428153810E94B4
:1057F0008D9F18160CF010E010933405CC24CA9439
:10580000DC2C760138EE432E33E0532E612C712CC4
:105810004AE0342E0C94883683E50E94D21A8823FD
:1058200019F10E94BE1A20E030E0A9010E948A9D71
:1058300087FD0FC00E94BE1A20E030E04FE753E41E
:105840000E948D9F181644F00E94BE1A0E94F99D76
:1058500005C060E070E002C06FEF70E07093090770
:10586000609308070C94ED358FEF90E09093090753
:10587000809308070C94ED350E945F720E946F6E52
:10588000A09A0E94D76E109209071092080768EE3E
:1058900073E080E090E00E949E960E946F6E0E94EE
:1058A0003A191092100284E096E00E944A870E9402
:1058B000E4870C94ED3510923F070C94ED3581E0B0
:1058C00080933F070C94ED3583E50E94D21A88231C
:1058D000A1F00E94BE1A20E030E04AE754E40E94A2
:1058E0005FA00E94FE9D6093070270930802809360
:1058F000090290930A020C94ED3588E50E94D21AB1
:1059000081110C94613789E50E94D21A81110C949F
:1059100061378AE50E94D21A81110C94613785E4BF
:105920000E94D21A81110C9461370E946F6EA09A66
:105930000E94D76E0C94ED3583E50E94D21A0E9426
:10594000BE1A20E030E04AE754E40E945FA00E94C3
:10595000FE9D60933F0570934005809341059093B1
:1059600042050C94ED35F3E03F1268C00E94BE1A68
:105970006B017C0120E030E040EA51E40E948A9D06
:1059800087FF3FC0A7019601F80160817181828184
:1059900093810E94919D2B013C019B01AC01609180
:1059A000E5107091E6108091E7109091E8100E9448
:1059B0005FA06093E5107093E6108093E7109093DA
:1059C000E810A3019201F4016081718182819381C9
:1059D0000E945FA0F4016083718382839383F50149
:1059E00060817181828193810E942A9EA30192012C
:1059F0000E945FA00E94FE9DF501608371838283F7
:105A00009383F801C082D182E282F38233940C5FE7
:105A10001F4FF4E08F0E911C24E0A20EB11C34E065
:105A2000331611F40C94ED35EFA5F8A98191F8AB7C
:105A3000EFA70E94D21A882349F395CF0E94BE1A7D
:105A4000F8016083718382839383E0CF9091C000DB
:105A500095FFFCCF8093C600319684918111F6CFDB
:105A60000C94ED3500914705109148050B5F1F4FD1
:105A70006AE270E0C8010E94D4A4009719F0FC010A
:105A800031971082C8010E943B870C94ED35E9E301
:105A9000F5E08491882341F09091C00095FFFCCF00
:105AA0008093C6003196F5CF40912A0750912B077D
:105AB00060912C0770912D0722E030E08EEA94E08F
:105AC0000E949016E5E3F5E08491882341F09091DF
:105AD000C00095FFFCCF8093C6003196F5CF409172
