:100000000C94FB0C0C942C0D0C942C0D0C942C0DBE
:100010000C942C0D0C942C0D0C942C0D0C942C0D7C
:100020000C942C0D0C942C0D0C942C0D0C942C0D6C
:100030000C942C0D0C94439B0C942C0D0C942C0DB7
:100040000C942C0D0C94BF650C942C0D0C942C0D61
:100050000C942C0D0C942C0D0C9424760C94269559
:100060000C942C0D0C946E130C942C0D0C942C0DE4
:100070000C942C0D0C942C0D0C942C0D0C942C0D1C
:100080000C942C0D0C942C0D0C942C0D0C942C0D0C
:100090000C942C0D0C942C0D0C942C0D0C942C0DFC
:1000A0000C942C0D0C942C0D0C942C0D0C942C0DEC
:1000B0000C942C0D0C942C0D0C942C0D0C942C0DDC
:1000C0000C942C0D0C942C0D0C942C0D0C942C0DCC
:1000D0000C942C0D0C942C0D0C942C0D0C942C0DBC
:1000E0000C942C0D322132213D213D213D2148210E
:1000F000482148215D215321532153216D767C767F
:100100009876A776C176D076EA76EE76F67667961A
:100110006C9671967B968596FE968F9697969F968F
:10012000A996B396BD96CC96D696FE96E096EA969C
:10013000F49620972397129716971C975A9727970C
:100140002B973197359739973F97439747975A970A
:100150004D9751975597084AD73B3BCE016E84BCCB
:10016000BFFDC12F3D6C74319ABD56833DDA3D0011
:10017000C77F11BED9E4BB4C3E916BAAAABE00005A
:1001800000803F05A84CCDB2D44EB93836A9020C38
:1001900050B9918688083CA6AAAA2ABE0000008011
:1001A0003F0048617264636F646564204465666102
:1001B000756C742053657474696E6773204C6F613D
:1001C0006465640053746F72656420736574746948
:1001D0006E67732072657472696576656400204489
:1001E000002049002020204D33303120500050495C
:1001F000442073657474696E67733A00205A002056
:10020000590020204D323036205800486F6D65204F
:100210006F666673657420286D6D293A002045006D
:10022000205A0020580020420020540020204D3247
:100230003035205300416476616E636564207661D9
:10024000726961626C65733A20533D4D696E206638
:100250006565647261746520286D6D2F73292C208B
:10026000543D4D696E2074726176656C20666565DB
:10027000647261746520286D6D2F73292C20423DB6
:100280006D696E696D756D207365676D656E74203F
:1002900074696D6520286D73292C20583D6D617837
:1002A000696D756D205859206A65726B20286D6DD7
:1002B0002F73292C20205A3D6D6178696D756D2052
:1002C0005A206A65726B20286D6D2F73292C2020AF
:1002D000453D6D6178696D756D2045206A65726B6D
:1002E00020286D6D2F73290020540020204D3230BE
:1002F00034205300416363656C65726174696F6E8D
:100300003A20533D616363656C65726174696F6E19
:100310002C20543D7265747261637420616363655F
:100320006C65726174696F6E00204500205A002070
:10033000590020204D3230312058004D6178696DD0
:10034000756D20416363656C65726174696F6E20C1
:10035000286D6D2F7332293A00204500205A002065
:10036000590020204D3230332058004D6178696D9E
:10037000756D2066656564726174657320286D6DA6
:100380002F73293A00204500205A002059002020D0
:100390004D39322058005374657073207065722097
:1003A000756E69743A0053657474696E677320538F
:1003B000746F726564006563686F3A0053544F5000
:1003C0005045442E20005072696E7465722073741B
:1003D0006F707065642064756520746F206572723B
:1003E0006F72732E2046697820746865206572727A
:1003F0006F7220616E6420757365204D3939392024
:10040000746F20726573746172742E202854656D48
:1004100070657261747572652069732072657365A9
:10042000742E20536574206974206166746572208F
:1004300072657374617274696E6729004B494C4C24
:1004400045442E20005072696E7465722068616C9C
:100450007465642E206B696C6C28292063616C6C58
:10046000656421006F6B00526573656E643A20000D
:100470002200556E6B6E6F776E20636F6D6D616ECF
:10048000643A2022004368616E67652066696C618A
:100490006D656E74005A204F6666736574203A204D
:1004A000007A5F6D61783A20007A5F6D696E3A205C
:1004B000005A204F6666736574005A204F66667353
:1004C0006574206F6B007A5F6D61783A20007A5F07
:1004D0006D696E3A2000795F6D61783A2000795F2E
:1004E0006D696E3A2000785F6D61783A2000785F20
:1004F0006D696E3A2000205A3A0020593A00204394
:100500006F756E7420583A200020453A00205A3A00
:100510000020593A00583A004649524D5741524539
:100520005F4E414D453A4D61726C696E2056313BCC
:1005300020537072696E7465722F6772626C206DE1
:10054000617368757020666F722067656E3620462D
:1005500049524D574152455F55524C3A6874747038
:100560003A2F2F6669726D776172652E756C7469AA
:100570006D616B65722E636F6D2050524F544F4307
:100580004F4C5F56455253494F4E3A312E30204D15
:10059000414348494E455F545950453A4445534BB1
:1005A000424F582045585452554445525F434F5589
:1005B0004E543A3120555549443A3030303030307D
:1005C00030302D303030302D303030302D30303034
:1005D000302D3030303030303030303030300A0074
:1005E0004445534B424F58204F66662E00444553B6
:1005F0004B424F582072656164792E0048656174E2
:10060000696E6720646F6E652E0020573A002045A2
:100610003A00543A0048656174696E672E2E2E00C8
:100620002042403A0020403A00202F003A00205457
:1006300000202F0020423A00202F006F6B20543AF8
:10064000002569206D696E2C202569207365630083
:10065000456E642066696C65206C69737400426540
:1006600067696E2066696C65206C697374004E6FF3
:10067000206D6F76652E00526573756D696E67200B
:100680007072696E74005761697420666F722075AC
:100690007365722E2E2E00536C6565702E2E2E0003
:1006A000256920686F757273202569206D696E75E4
:1006B00074657300446F6E65207072696E74696E44
:1006C000672066696C650053544F505045442E2096
:1006D000005072696E7465722073746F7070656417
:1006E0002064756520746F206572726F72732E209E
:1006F00046697820746865206572726F7220616E39
:100700006420757365204D39393920746F20726506
:1007100073746172742E202854656D7065726174F3
:100720007572652069732072657365742E20536538
:1007300074206974206166746572207265737461D7
:100740007274696E6729006F6B004E6F204C696E82
:1007500065204E756D6265722077697468206368E4
:1007600065636B73756D2C204C617374204C696EDE
:10077000653A20004E6F20436865636B73756D208A
:1007800077697468206C696E65206E756D6265723C
:100790002C204C617374204C696E653A20006368AC
:1007A00065636B73756D206D69736D617463682C1F
:1007B000204C617374204C696E653A20004C696E60
:1007C00065204E756D626572206973206E6F7420AE
:1007D0004C617374204C696E65204E756D62657254
:1007E0002B312C204C617374204C696E653A2000CB
:1007F0004D31313000446F6E6520736176696E67EC
:100800002066696C652E006F6B004D323900202028
:10081000506C616E6E65724275666665724279747F
:1008200065733A20002046726565204D656D6F72D4
:10083000793A20004A756E20323920323031360044
:10084000436F6D70696C65643A2000284461766975
:100850006420427261616D2900207C2041757468BA
:100860006F723A20004A756E2032392032303136AC
:100870002031373A35373A353800204C61737420CF
:10088000557064617465643A2000312E302E30005A
:100890004D61726C696E0020536F6674776172658A
:1008A00020526573657400205761746368646F67D4
:1008B000205265736574002042726F776E206F75E9
:1008C00074205265736574002045787465726E619A
:1008D0006C20526573657400506F776572557000B7
:1008E0007374617274002200656E717565696E675C
:1008F0002022002200656E717565696E67202200F6
:10090000FFFFFF0000A0400000A0400000004000EA
:10091000004D4300004D430000484300000000002C
:100920000000000000000000004D4300004D4300A7
:1009300000484300000000000000000000000065C7
:1009400063686F3A004572726F723A0041414141EB
:10095000E1414143454545454949494944EE4F4FE9
:100960004F4FEF784F555555F55954E2616161612C
:10097000E1616163656565656969696964EE6F6F09
:100980006F6FEFFD6F757575F5797479007C3C3E7E
:100990005E2B3D3F2F5B5D3B2C2A225C004D3834A3
:1009A00020582059205A20450043616E6E6F7420F4
:1009B000656E746572207375626469723A20004DC9
:1009C0003234004D3233202573006175746F256910
:1009D0002E67006572726F722077726974696E6734
:1009E00020746F2066696C65004E6F74205344203C
:1009F0007072696E74696E67002F005344207072C4
:100A0000696E74696E67206279746520002E0044F7
:100A1000656C6574696F6E206661696C65642C2015
:100A200046696C653A200046696C652064656C65B2
:100A30007465643A002E006F70656E206661696CA3
:100A400065642C2046696C653A20005772697469A8
:100A50006E6720746F2066696C653A20002E006F07
:100A600070656E206661696C65642C2046696C65F2
:100A70003A20002E006F70656E206661696C6564B7
:100A80002C2046696C653A200046696C65207365C8
:100A90006C6563746564002053697A653A2000468A
:100AA000696C65206F70656E65643A20002E006F7A
:100AB00070656E206661696C65642C2046696C65A2
:100AC0003A20004E6F772066726573682066696C05
:100AD000653A20004E6F7720646F696E6720666903
:100AE0006C653A20002220706F73002220706172C2
:100AF000656E743A2200535542524F5554494E4543
:100B00002043414C4C207461726765743A22007432
:100B10007279696E6720746F2063616C6C207375E5
:100B2000622D67636F64652066696C657320776901
:100B3000746820746F6F206D616E79206C657665C6
:100B40006C732E204D4158206C6576656C2069735E
:100B50003A0053442063617264206F6B006F7065CC
:100B60006E526F6F74206661696C656400766F6C9D
:100B7000756D652E696E6974206661696C656400C7
:100B8000534420696E6974206661696C006563680E
:100B90006F3A004572726F723A0020746F6F206C6A
:100BA0006F6E6720657874727573696F6E207072EE
:100BB0006576656E7465640020636F6C642065788B
:100BC00074727573696F6E2070726576656E746588
:100BD00064006563686F3A00656E6473746F707368
:100BE000206869743A205A00205A3A00656E64738E
:100BF000746F7073206869743A20590020593A0064
:100C0000656E6473746F7073206869743A2058005D
:100C100020583A00656E6473746F7073206869744D
:100C20003A200024F4D43050C38E20C2A240178250
:100C30008B7011127A910D816CD90AA861E108C7F5
:100C4000586607615143061E4B5D05C145A7041A4E
:100C5000411104093D9803713931034036DB0265C7
:100C6000339102D4305402802E1D02632CEE0175A4
:100C70002AC501B028A001102781018F2564012B0E
:100C8000244B01E0223401AC211F018D200D018095
:100C90001FFC00841EED00971DDF00B81CD200E68B
:100CA0001BC600201BBC00641AB200B219A8000ABF
:100CB00019A0006A189900D117910040178B00B550
:100CC00016840031167E00B31579003A157300C7FB
:100CD000146F0058146A00EE136600881363002531
:100CE000135E00C7125B006C12570015125400C14E
:100CF00011510070114F0021114B00D61049008D89
:100D00001047004610440002104200C00F4000800F
:100D10000F3E00420F3C00060F3B00CB0E38009305
:100D20000E37005C0E3500270E3400F30D3200C183
:100D30000D3100900D3000600D2E00320D2D00059C
:100D40000D2C00D90C2B00AE0C2900850C29005C61
:100D50000C2700350C27000E0C2600E80B2400C4DD
:100D60000B2400A00B23007D0B23005A0B2100391C
:100D70000B2100180B2000F80A1F00D90A1E00BB27
:100D80000A1E009D0A1D00800A1D00630A1C004700
:100D90000A1B002C0A1B00110A1A00F7091A00DDB1
:100DA000091900C4091900AB091900920917007B41
:100DB000091800630917004C0916003609160020AF
:100DC0000916000A091500F5081500E0081400CC02
:100DD000081400B8081400A4081400900813007D3B
:100DE0000812006B0813005808120046081200345D
:100DF000081100230811001208110001081100F069
:100E0000071000E0071000D0071000C0071000B066
:100E1000070F00A107100091070E0083070F007451
:100E2000070F0065070E0057070E0049070E003B2D
:100E3000070D002E070E0020070D0013070D0006FA
:100E4000070D00F9060C00ED060D00E0060C00D4BD
:100E5000060C00C8060C00BC060C00B0060C00A472
:100E6000060B0099060C008D060B0082060B00771E
:100E7000060B006C060B0061060A0057060B004CBF
:100E8000060A0042060A0038060A002E060A002456
:100E9000060A001A060A001006090007060A00FDE5
:100EA000050900F4050900EB050900E2050900D970
:100EB000050900D0050900C7050900BE050900B5F0
:100EC000050800AD050800A50509009C050800946B
:100ED0000508008C050800840508007C05080074DE
:100EE0000508006C050700650508005D050700564C
:100EF0000508004E050700470507004005080038B3
:100F0000050700310507002A050700230507001C17
:100F1000050600160507000F050700080506000274
:100F2000050700FB040600F5040700EE040600E8D0
:100F3000040600E2040700DB040600D5040600CF27
:100F4000040600C9040600C3040600BD040600B779
:100F5000040600B1040500AC040600A6040600A0C7
:100F60000405009B04060095040500900406008A11
:100F700004050085040500800406007A0405007558
:100F8000040500700405006B04050066040500619B
:100F90000405005C04050057040500520405004DDB
:100FA00004050048040500430405003E0404003A1B
:100FB00004050035040500300404002C0405002756
:100FC000040400230405001E0404001A040400168F
:100FD000040500110404000D0404000904050004C4
:100FE00004040000040400FC030400F8030400F4FB
:100FF000030400F0030400EC030400E8030400E42D
:10100000030400E0030400DC030400D8030400D45C
:10101000030400D0030400CC030400C8030300C58C
:1010200003030024F404D9201BC40C5C0E9804C4F0
:10103000095F0265077101F405F900FB04B300487C
:10104000048700C10369005803550003034500BE2F
:10105000023A008402310053022A002902250004CA
:10106000022000E4011C00C8011900AF011700981C
:10107000011400840113007101100061011000517E
:10108000010E0043010D0036010B002B010B002067
:10109000010B00150109000C01090003010800FB08
:1010A000000800F3000800EB000700E4000600DE83
:1010B000000600D8000600D2000600CC000500C7DC
:1010C000000500C2000500BD000400B9000400B521
:1010D000000400B1000400AD000400A9000400A554
:1010E000000300A20003009F0004009B000300987F
:1010F0000003009500020093000300900003008DA0
:101100000002008B000300880002008600020084B9
:10111000000300810002007F0002007D0002007BCE
:1011200000020079000200770001007600020074DE
:1011300000020072000100710002006F0002006DE9
:101140000001006C0002006A0001006900020067F3
:1011500000010066000100650001006400020062F9
:1011600000010061000100600001005F0002005DFD
:101170000001005C0001005B0001005A0001005901
:101180000001005800010057000100560001005501
:101190000001005400010053000000530001005200
:1011A00000010051000100500001004F0001004EFD
:1011B0000000004E0001004D0001004C0001004BFA
:1011C0000000004B0001004A0001004900010048F6
:1011D00000000048000100470001004600000046F2
:1011E00000010045000000450001004400010043EB
:1011F00000000043000100420000004200010041E5
:1012000000000041000100400001003F0000003FDD
:101210000001003E0000003E0001003D0000003DD6
:101220000001003C0000003C0000003C0001003BCD
:101230000000003B0001003A0000003A00010039C4
:1012400000000039000100380000003800000038BC
:1012500000010037000000370001003600000036B2
:1012600000000036000100350000003500000035A8
:10127000000100340000003400000034000100339D
:101280000000003300000033000100320000003293
:101290000000003200010031000000310000003188
:1012A0000001003000000030000000300001002F7D
:1012B0000000002F0000002F0000002F0001002E72
:1012C0000000002E0000002E0001002D0000002D67
:1012D0000000002D0000002D0001002C0000002C5B
:1012E0000000002C0000002C0001002B0000002B4F
:1012F0000000002B0000002B0001002A0000002A43
:101300000000002A0000002A000100290000002936
:101310000000002900000029000000290001002829
:10132000000000280000002800000028000000281D
:101330000001002700000027000000270000002710
:101340000000002700010026000000260000002603
:1013500000000026000000260001002500000025F6
:1013600000000025000000250000002500000025E9
:1013700000010024000000240000002400000024DC
:1013800000000024000100230000002300000023CF
:1013900000000023000000230000002300000023C1
:1013A00000010022000000220000002200000022B4
:1013B00000000022000000220001002100000021A6
:1013C0000000002100000021000000210000002199
:1013D000000000210001002000000020000000208B
:1013E000000000200000002000000020000000207D
:1013F000000000200001001F0000001F0000001F6F
:101400000000001F0000001F0000001F0000001F60
:101410000001001E0000001E0000001E0000001E53
:101420000000006563686F3A004572723A204D49CA
:101430004E54454D50003A2045787472756465727B
:10144000207377697463686564206F66662E204D2B
:10145000494E54454D5020747269676765726564E2
:101460002021004572723A204D415854454D50009C
:101470003A20457874727564657220737769746375
:10148000686564206F66662E204D415854454D5066
:101490002074726967676572656420210048656120
:1014A00074696E67206661696C656400202D20494F
:1014B0006E76616C696420657874727564657220FB
:1014C0006E756D626572202100504944204175742B
:1014D0006F74756E652066696E6973686564212036
:1014E00050757420746865206C617374204B702C87
:1014F000204B6920616E64204B6420636F6E7374AF
:10150000616E74732066726F6D2061626F76652004
:10151000696E746F20436F6E666967757261746976
:101520006F6E2E6800504944204175746F74756E5B
:1015300065206661696C6564212074696D656F75ED
:10154000740020403A006F6B20543A006F6B2042C9
:101550003A00504944204175746F74756E65206679
:1015600061696C6564212054656D70657261747584
:10157000726520746F6F206869676800204B643A59
:101580002000204B693A2000204B703A2000204375
:101590006C61737369632050494420002054753A8C
:1015A0002000204B753A2000206D61783A20002001
:1015B0006D696E3A200020643A20002062696173F0
:1015C0003A20006563686F3A004572726F723A00A4
:1015D000436172642072656D6F7665640043617269
:1015E0006420696E736572746564002D2D3A2D2D2B
:1015F000002D2D2D005344002059000120004D36B0
:101600003030004368616E67652066696C616D65A6
:101610006E7400466C6F77203000466C6F77203018
:1016200000466C6F7700466C6F770046616E2073E2
:10163000706565640046616E207370656564004E78
:101640006F7A7A6C65004E6F7A7A6C6500537065BC
:101650006564005370656564004D61696E005800F3
:1016600059005A0045787472756465720045787443
:101670007275646572004D6F7665205A004D6F7605
:10168000652059004D6F76652058004D6F766520B6
:1016900061786973004D6F766520302E316D6D0075
:1016A0004D6F766520316D6D004D6F766520313060
:1016B0006D6D0050726570617265004D6F766520CA
:1016C00061786973004D383000537769746368201E
:1016D000706F776572206F6E004D383100537769F7
:1016E00074636820706F776572206F666600436F61
:1016F0006F6C646F776E005072656865617420501E
:101700004C4100473238004175746F20686F6D6539
:10171000004D38340044697361626C6520737465F0
:101720007070657273004D61696E0053746F7265FD
:10173000206D656D6F7279004E6F7A7A6C65004E20
:101740006F7A7A6C650046616E207370656564001F
:1017500046616E2073706565640054656D706572D6
:101760006174757265005072656865617420504CD3
:101770004120636F6E660046616E2073706565641C
:101780000046616E207370656564004E6F7A7A6CF6
:1017900065004E6F7A7A6C6500436F6E74726F6C81
:1017A000004A756E20323920323031362031373AD6
:1017B00035383A303000476974687562206368656F
:1017C000636B6F7574004465736B626F783A207653
:1017D0003032004669726D7761726520766572738A
:1017E000696F6E004669726D776172652076657209
:1017F00073696F6E00526573746F726520666169FC
:101800006C73616665004C6F6164206D656D6F720D
:10181000790053746F7265206D656D6F7279005435
:10182000656D7065726174757265004D61696E00F9
:101830004D383420582059205A2045004D3234006C
:101840004D323320257300052E2E004D61696E0048
:101850004E6F2053442063617264005072696E744D
:101860002066726F6D2053440053746F7020707245
:10187000696E7400526573756D65207072696E745F
:10188000005061757365207072696E7400436F6EED
:1018900074726F6C00507265706172650054756E81
:1018A0006500496E666F2073637265656E000000A7
:1018B0000A0B02090C0D0E080703040100000000CA
:1018C0000000000000000000000000000000000018
:1018D00000000000000000000000121110000000D5
:1018E00000000000000000000000000000000000F8
:1018F00000000000010210202008081020401020E5
:1019000040800201020108040201010204081020C3
:1019100040808040201008040201800402018040C1
:10192000201008040201080402010102040810202A
:1019300040800102040810204080050505050705C8
:1019400008080808020202020A0A0808040404043B
:101950000101010101010101030303030303030367
:10196000040707070C0C0C0C0C0C0C0C02020202F6
:1019700006060606060606060B0B0B0B0B0B0B0BDF
:1019800000002200250028002B002E00310034002A
:1019900002010000050108010B01000021002400E4
:1019A00027002A002D00300033000101000004014F
:1019B00007010A01024E414E494E495459494E46CB
:1019C000CDCCCC3D0AD7233C17B7D13877CC2B32BE
:1019D0009595E6241FB14F0A000020410000C8423F
:1019E00000401C4620BCBE4CCA1B0E5AAEC59D749E
:1019F0007837BC8E7C3711241FBECFEFD1E2DEBF1B
:101A0000CDBF00E00CBF14E0A0E0B2E0E0EEFDE4EA
:101A100001E00BBF02C007900D92AC38B107D9F7B7
:101A200022E1ACE8B4E001C01D92A734B207E1F7AF
:101A300019E1C4EFD9E100E006C022970109FE01D7
:101A40000BBF0E94B0A0C03FD10780E00807A9F7F4
:101A50000E94A39B0C94DFA60C940000EF92FF92CF
:101A60000F931F93CF93DF931F92CDB7DEB78C01F7
:101A70007B01460FF70161917F01F801808191811F
:101A800049830E9428A6F801808191810196918363
:101A9000808349814E11EECF0F90DF91CF911F913E
:101AA0000F91FF90EF900895EF92FF920F931F9385
:101AB000CF93DF931F92CDB7DEB78C017B01460F2A
:101AC000F8018081918149830E9420A6F7018193CA
:101AD0007F01F80180819181019691838083498102
:101AE0004E11EECF0F90DF91CF911F910F91FF908C
:101AF000EF9008950F931F93CF93DF93CDB7DEB789
:101B00002C970FB6F894DEBF0FBECDBF80E390E3F5
:101B1000A0E3B0E08D839E83AF83B88704E610E036
:101B20001C870B8744E0BE016B5F7F4FCE010B9695
:101B300095DF40E16BEE70E1CE010B968FDF40E167
:101B40006BEF70E1CE010B9689DF40E16BED70E148
:101B5000CE010B9683DF44E063ED70E1CE010B967E
:101B60007DDF44E06FEC70E1CE010B9677DF44E05F
:101B700067ED70E1CE010B9671DF44E06FEB70E131
:101B8000CE010B966BDF44E06BE071E1CE010B966A
:101B900065DF44E06BEC70E1CE010B965FDF44E063
:101BA00067EC70E1CE010B9659DF44E063EC70E125
:101BB000CE010B9653DF4CE06CEF76E0CE010B9636
:101BC0004DDF42E06BE072E1CE010B9647DF42E071
:101BD00069E072E1CE010B9641DF42E067E072E11D
:101BE000CE010B963BDF42E065E072E1CE010B9641
:101BF00035DF42E063E072E1CE010B962FDF42E079
:101C000061E072E1CE010B9629DF44E069EE76E0F7
:101C1000CE010B9623DF44E062E572E0CE010B9625
:101C20001DDF44E06EE472E0CE010B9617DF44E066
:101C30006AE472E0CE010B9611DF80E290E09A87B1
:101C4000898742E0BE01675F7F4FCE010B9606DFBA
:101C500086E591E3A0E3B0E089839A83AB83BC83FC
:101C60001C870B8744E0BE016F5F7F4FCE010B9650
:101C7000F5DEE6EBF3E08491882341F09091C0001B
:101C800095FFFCCF8093C6003196F5CFE6EAF3E0EE
:101C90008491882341F09091C00095FFFCCF809300
:101CA000C6003196F5CF8091C00085FFFCCF8AE059
:101CB0008093C6002C960FB6F894DEBF0FBECDBF42
:101CC000DF91CF911F910F910895CF93DF93C6EBD2
:101CD000D3E0FE018491882341F09091C00095FFEC
:101CE000FCCF8093C6003196F5CFE6E9F3E084910E
:101CF000882341F09091C00095FFFCCF8093C600EF
:101D00003196F5CF8091C00085FFFCCF8AE08093AB
:101D1000C600FE018491E6EBF3E0882349F0909140
:101D2000C00095FFFCCF8093C60031968491F5CF1B
:101D30004091EB105091EC106091ED107091EE100D
:101D40008EE893E00E9411174091EF105091F0102F
:101D50006091F1107091F2108BE893E00E941117DE
:101D60004091F3105091F4106091F5107091F610BD
:101D700088E893E00E9411174091F7105091F810F5
:101D80006091F9107091FA1085E893E00E941117A4
:101D90008091C00085FFFCCF8AE08093C600FE01E1
:101DA0008491E6EBF3E0882349F09091C00095FF21
:101DB000FCCF8093C60031968491F5CFEBE6F3E03B
:101DC0008491882341F09091C00095FFFCCF8093CF
:101DD000C6003196F5CF8091C00085FFFCCF8AE028
:101DE0008093C600FE018491E6EBF3E0882349F07E
:101DF0009091C00095FFFCCF8093C60031968491EE
:101E0000F5CF4091FB105091FC106091FD10709146
:101E1000FE1082E693E00E9411174091FF1050914E
:101E2000001160910111709102118FE593E0F9D7D3
:101E300040910311509104116091051170910611A8
:101E40008CE593E0EED74091071150910811609115
:101E5000091170910A1189E593E0E3D78091C000E0
:101E600085FFFCCF8AE08093C600FE018491E6EBFB
:101E7000F3E0882349F09091C00095FFFCCF809358
:101E8000C60031968491F5CFEBE3F3E0849188238B
:101E900041F09091C00095FFFCCF8093C600319631
:101EA000F5CF8091C00085FFFCCF8AE08093C6000B
:101EB000FE018491E6EBF3E0882349F09091C000A5
:101EC00095FFFCCF8093C60031968491F5CF409169
:101ED000DB105091DC106091DD107091DE1082E318
:101EE00093E0B0D74091DF105091E0106091E11085
:101EF0007091E2108FE293E0A5D74091E3105091EA
:101F0000E4106091E5107091E6108CE293E09AD7AE
:101F10004091E7105091E8106091E9107091EA103B
:101F200089E293E08FD78091C00085FFFCCF8AE0E3
:101F30008093C600FE018491E6EBF3E0882349F02C
:101F40009091C00095FFFCCF8093C600319684919C
:101F5000F5CFE4EFF2E08491882341F09091C00046
:101F600095FFFCCF8093C6003196F5CF8091C000DD
:101F700085FFFCCF8AE08093C600FE018491E6EBEA
:101F8000F3E0882349F09091C00095FFFCCF809347
:101F9000C60031968491F5CF4091D3105091D41062
:101FA0006091D5107091D6108BEE92E03AD74091A7
:101FB000CF105091D0106091D1107091D21088EE56
:101FC00092E02FD78091C00085FFFCCF8AE08093FC
:101FD000C600FE018491E6EBF3E0882349F090917E
:101FE000C00095FFFCCF8093C60031968491F5CF59
:101FF000E5E3F2E08491882341F09091C00095FFE1
:10200000FCCF8093C6003196F5CF8091C00085FF4C
:10201000FCCF8AE08093C600FE018491E6EBF3E0FA
:10202000882349F09091C00095FFFCCF8093C600B3
:1020300031968491F5CF4091D7105091D81060918E
:10204000D9107091DA108CE292E0EBD64091BF107B
:102050005091C0106091C1107091C21089E292E05D
:10206000E0D640910B1150910C1160910D117091BF
:102070000E1186E292E0E6D64091CB105091CC1042
:102080006091CD107091CE1083E292E0CAD640915B
:10209000C7105091C8106091C9107091CA1080E2A9
:1020A00092E0BFD64091C3105091C4106091C5100A
:1020B0007091C6108DE192E0B4D68091C00085FF8A
:1020C000FCCF8AE08093C600FE018491E6EBF3E04A
:1020D000882349F09091C00095FFFCCF8093C60003
:1020E00031968491F5CFEBE0F2E08491882341F0C2
:1020F0009091C00095FFFCCF8093C6003196F5CF3C
:102100008091C00085FFFCCF8AE08093C600FE016D
:102110008491E6EBF3E0882349F09091C00095FFAD
:10212000FCCF8093C60031968491F5CF4091FC0698
:102130005091FD066091FE067091FF0682E092E0EC
:1021400070D640910007509101076091020770918D
:1021500003078FEF91E065D6409104075091050782
:1021600060910607709107078CEF91E05AD6809135
:10217000C00085FFFCCF8AE08093C600FE018491F9
:10218000E6EBF3E0882349F09091C00095FFFCCF87
:102190008093C60031968491F5CFEEEEF1E0849104
:1021A000882341F09091C00095FFFCCF8093C6003A
:1021B0003196F5CF8091C00085FFFCCF8AE08093F7
:1021C000C600FE01C491E6EBF3E0CC2349F0809118
:1021D000C00085FFFCCFC093C6003196C491F5CFF7
:1021E00040915202509153026091540270915502F5
:1021F00084EE91E016D660914E0270914F0280916C
:102200005002909151020E946977AB01BC0181EEAE
:1022100091E007D660914A0270914B0280914C0286
:1022200090914D020E947577AB01BC018EED91E05B
:10223000F8D58091C00085FFFCCF8AE08093C6006E
:10224000DF91CF910895AF92BF92CF92DF92EF923C
:10225000FF920F931F93CF93DF93CDB7DEB7E09735
:102260000FB6F894DEBF0FBECDBF80E1EFE6F2E01F
:10227000DE01919601900D928A95E1F780E1EFE7FA
:10228000F2E0DE01519601900D928A95E1F780E12E
:10229000EFE8F2E0DE01119601900D928A95E1F7E8
:1022A0006E0181E2C80ED11C8BEEE82E80E1F82E83
:1022B0008E010F5E1F4F6BEF70E1AE014F5F5F4FFE
:1022C0009BEDA92E90E1B92E20E030E0F60181913E
:1022D0009191A191B1916F01F70181939193A19394
:1022E000B1937F01F80181919191A191B1918F01F9
:1022F000FB0181939193A193B193BF01FA01819165
:102300009191A191B191AF01F50181939193A19325
:10231000B1935F012F5F3F4F24303105B9F60E9422
:10232000CC6480E090E0AAE7B5E48093D31090936A
:10233000D410A093D510B093D61080E090E8ABE312
:10234000B5E48093CF109093D010A093D110B093A8
:10235000D2101092D7101092D8101092D91010925B
:10236000DA1080E29EE4A0E0B0E080930B1190933D
:102370000C11A0930D11B0930E111092BF1010927A
:10238000C0101092C1101092C21080E090E0A0EA3C
:10239000B1E48093CB109093CC10A093CD10B09368
:1023A000CE108DEC9CECACECBEE38093C710909308
:1023B000C810A093C910B093CA1080E090E0A0EAC2
:1023C000B0E48093C3109093C410A093C510B09351
:1023D000C61010920407109205071092060710927B
:1023E000070710920007109201071092020710923F
:1023F00003071092FC061092FD061092FE06109242
:10240000FF0682ED90E090930C1280930B1286E40D
:1024100090E090930A128093091210920812109281
:1024200007128AEF90E0909306128093051284E6DB
:1024300090E0909304128093031210920212109273
:1024400001128AE999E9A1EBB1E4809352029093D9
:102450005302A0935402B093550261E77DE38AE8EA
:102460009FE30E94637760934E0270934F028093C4
:1024700050029093510260E070E084EE92E40E947A
:102480006F7760934A0270934B0280934C02909353
:102490004D020E946E6E80E090E0A0E8BFE3809362
:1024A000460290934702A0934802B0934902E6EB9C
:1024B000F3E08491882341F09091C00095FFFCCF18
:1024C0008093C6003196F5CFE2EAF1E0849188234B
:1024D00041F09091C00095FFFCCF8093C6003196EB
:1024E000F5CF8091C00085FFFCCF8AE08093C600C5
:1024F000E0960FB6F894DEBF0FBECDBFDF91CF914F
:102500001F910F91FF90EF90DF90CF90BF90AF9011
:102510000895CF93DF93CDB7DEB72C970FB6F8941D
:10252000DEBF0FBECDBF84E690E09C878B8786E53B
:1025300091E3A0E3B0E089839A83AB83BC8344E05A
:10254000BE016B5F7F4FCE010B96AEDA43E050E0E9
:10255000BE016B5F7F4FCE0101960E94E7A3892BDE
:1025600009F0B1C040E16BEE70E1CE010B969CDA50
:1025700040E16BEF70E1CE010B9696DA40E16BED36
:1025800070E1CE010B9690DA0E94CC6444E063EDDA
:1025900070E1CE010B9688DA44E06FEC70E1CE0179
:1025A0000B9682DA44E067ED70E1CE010B967CDA9F
:1025B00044E06FEB70E1CE010B9676DA44E06BE01D
:1025C00071E1CE010B9670DA44E06BEC70E1CE0164
:1025D0000B966ADA44E067EC70E1CE010B9664DAA0
:1025E00044E063EC70E1CE010B965EDA4CE06CEFF8
:1025F00076E0CE010B9658DA42E06BE072E1CE0154
:102600000B9652DA42E069E072E1CE010B964CDAA9
:1026100042E067E072E1CE010B9646DA42E065E007
:1026200072E1CE010B9640DA42E063E072E1CE0146
:102630000B963ADA42E061E072E1CE010B9634DAB1
:1026400044E069EE76E0CE010B962EDA44E062E5D6
:1026500072E0CE010B9628DA44E06EE472E0CE011F
:102660000B9622DA44E06AE472E0CE010B961CDAA3
:1026700042E0BE01675F7F4FCE010B9615DA0E94E4
:102680006E6EE6EBF3E08491882341F09091C000F8
:1026900095FFFCCF8093C6003196F5CFE4ECF1E0D6
:1026A0008491882341F09091C00095FFFCCF8093E6
:1026B000C6003196F5CF8091C00085FFFCCF8AE03F
:1026C0008093C60001C0BFDD00DB2C960FB6F894E6
:1026D000DEBF0FBECDBFDF91CF9108951F920F9245
:1026E0000FB60F9211240BB60F922F933F934F9377
:1026F0005F936F938F939F93EF93FF936091C600C7
:1027000020910D0530910E05C90101968F7799270B
:1027100040910F05509110058417950741F0F9017C
:10272000E357FB4F608390930E0580930D05FF9157
:10273000EF919F918F916F915F914F913F912F9169
:102740000F900BBE0F900FBE0F901F9018959A011F
:10275000AB01211581EE38074105510549F182E0B1
:102760008093C00060E079E08DE390E00E947EA05D
:102770002150310941095109CA01B90122E030E073
:1027800040E050E00E947EA03093C5002093C4003A
:102790008091C10080618093C1008091C1008860F8
:1027A0008093C1008091C10080688093C10008952A
:1027B0001092C00020E130E0E7CF20910F0530916A
:1027C000100580910D0590910E058217930771F009
:1027D000F901E357FB4F80812F5F3F4F2F7733275E
:1027E0003093100520930F0590E008958FEF9FEF31
:1027F000089580910F059091100590930E05809398
:102800000D0508954F925F926F927F928F929F92E3
:10281000AF92BF92CF92DF92EF92FF920F931F93EE
:10282000CF93DF93CDB7DEB7A0970FB6F894DEBF96
:102830000FBECDBF5C014115510561057105E9F47D
:1028400020E030E040E350E060E070E0A0960FB69A
:10285000F894DEBF0FBECDBFDF91CF911F910F91D6
:10286000FF90EF90DF90CF90BF90AF909F908F90B0
:102870007F906F905F904F905BC08E010F5F1F4FF6
:10288000C12CD12C76014801422E512C612C712C87
:102890008FEFC81AD80AE80AF80ACB01BA01A301D7
:1028A00092010E945CA0CA01F80161938F01A90105
:1028B000BC01411551056105710551F7F1E0CF1AD1
:1028C000D108E108F108F401EC0DFD1D80818A308A
:1028D00010F440E301C047E3480F552747FD5095EA
:1028E000652F752F20E030E0C50122D081E0C81AA5
:1028F000D108E108F108EFEFCE16DE06EE06FE067F
:1029000011F7A0960FB6F894DEBF0FBECDBFDF91D2
:10291000CF911F910F91FF90EF90DF90CF90BF90DC
:10292000AF909F908F907F906F905F904F900895A1
:102930002115310539F48091C00085FFFCCF40930B
:10294000C60008952A30310509F41CC05BCFCF932F
:10295000DF93EC0120E030E04DE050E060E070E01B
:10296000E7DF20E030E04AE050E060E070E0CE01D8
:10297000DF91CF91DDCF9A01AB01662757FD6095BE
:10298000762FD6CFCF92DF92EF92FF92CF93DF9345
:10299000EC016A017B0177FF0FC020E030E04DE2DF
:1029A00050E060E070E0C4DFF094E094D094C09414
:1029B000C11CD11CE11CF11C2AE0B701A601CE010B
:1029C000DF91CF91FF90EF90DF90CF901BCF21153B
:1029D000310539F48091C00085FFFCCF4093C600DB
:1029E000089510CF9A01462F50E060E070E0EFCFDD
:1029F000CF93DF93EC019A01AB0160E070E0E7DF79
:102A0000CE01DF91CF91A3CF8F929F92AF92BF92D1
:102A1000CF92DF92EF92FF921F93CF93DF93EC015F
:102A20006A017B01122F20E030E0A901C701B60145
:102A30000E948B9C87FF0CC020E030E04DE250E00C
:102A400060E070E0CE0174DFF7FAF094F7F8F094EC
:102A5000B12C60E070E080E09FE3B11641F020E02F
:102A600030E040E251E40E94929CB394F6CF9B0187
:102A7000AC01C701B6010E94B29B6B017C010E94B0
:102A8000FF9C4B015C010E942B9D9B01AC01C70187
:102A9000B6010E94B19B6B017C012AE0B501A40143
:102AA000CE01B0DE112361F0E2E8F4E081918823E9
:102AB00039F09091C00095FFFCCF8093C600F6CF0F
:102AC000112319F120E030E040E251E4C701B601E2
:102AD0000E94609F6B017C010E94FA9C4B01AA241A
:102AE00097FCA094BA2CB501A401CE014BDFC5011F
:102AF000B4010E942D9D9B01AC01C701B6010E944B
:102B0000B19B6B017C011150DBCFDF91CF911F9105
:102B1000FF90EF90DF90CF90BF90AF909F908F90FD
:102B2000089572CFFC0165917591859194910895F6
:102B3000EF92FF920F931F93CF93DF93EC01CC0F93
:102B4000DD1FCC0FDD1FCE01855E964FEBDF9E01B2
:102B5000285F384F79018E010450194FF801208108
:102B60003181428153810E94B29BF701608371835E
:102B700082839383CE018D5C964FD4DF9E012051DA
:102B8000394F7901F80120813181428153810E94BE
:102B9000B29BF7016083718382839383CE01895D49
:102BA000964FC0DFCF5EDD4FF80120813181428139
:102BB00053810E94B29B688379838A839B83DF91D0
:102BC000CF911F910F91FF90EF9008952F923F9218
:102BD0004F925F926F927F928F929F92AF92BF922D
:102BE000CF92DF92EF92FF920F931F93CF93DF93D9
:102BF00000D01F92CDB7DEB74C01FC01E050F74F7B
:102C0000B490880F991F880F991F9C838B83885FCE
:102C1000984F1C01FC01108211821282138224E160
:102C200037E040E157E06CE077E088E097E00E9411
:102C3000FA638B819C81815F964F74DF6B017C010D
:102C40006B2D772767FD7095872F972F0E942D9DFD
:102C50002B013C018B819C818A52994F5C0120E0C1
:102C600030E040EC5FE3C701B6010E94609FA30122
:102C700092010E94609FF501608371838283938338
:102C80008B819C81895D9D4F9A838983FC01608142
:102C900071818281938160930B0270930C02809307
:102CA0000D0290930E0220E030E040E752E40E94D3
:102CB000929C38EEC32E36E0D32E7B018C0122EE9F
:102CC00036E04EED56E06AED76E086ED96E00E9445
:102CD000615A0E94706DF10110821182128213827A
:102CE00024E137E040E157E06CE077E088E097E0EE
:102CF0000E94FA638B819C818D5F964F9C838B83AE
:102D000011DF9058A30192010E94609FF50160833A
:102D100071838283938320E030E040E752E4609146
:102D20000B0270910C0280910D0290910E020E9494
:102D3000929C7B018C0122EE36E04EED56E06AED6E
:102D400076E086ED96E00E94615A0E94706D8B815C
:102D50009C81E8DE9B01AC010E94B29BA301920121
:102D60000E94609FF501608371838283938320E0DA
:102D700030E040E05FE3E981FA8160817181828126
:102D800093810E94609F60930B0270930C0280936A
:102D90000D0290930E0220E030E040E752E40E94E2
:102DA000929C7B018C0122EE36E04EED56E06AEDFE
:102DB00076E086ED96E00E94615A0E94706DC40133
:102DC000B7DEF10180819181A281B381F501808319
:102DD0009183A283B38310920B0210920C02109283
:102DE0000D0210920E020E94AF65F401E351F94FFB
:102DF00081E080830F900F900F900F90DF91CF9123
:102E00001F910F91FF90EF90DF90CF90BF90AF9008
:102E10009F908F907F906F905F904F903F902F90FA
:102E20000895FC012491222341F03091C00035FF28
:102E3000FCCF2093C6000196F4CF22E030E08CE86E
:102E400094E06FCEFC012491222341F03091C00028
:102E500035FFFCCF2093C6000196F4CF2AE030E086
:102E60008CE894E0B4CDCF93DF931F921F92CDB73F
:102E7000DEB780914112909142129E012F5F3F4F29
:102E8000009719F42754324102C0281B390B3A83AA
:102E9000298389819A810F900F90DF91CF910895B6
:102EA00020912B0530912C05243031050CF06AC09F
:102EB00040912D0550912E0560E6649F9001659F1D
:102EC000300D1124BC01C9018B5C9A4F0E94E0A314
:102ED000EFE3F9E08491882341F09091C00095FFE1
:102EE000FCCF8093C6003196F5CFE5EFF8E08491F2
:102EF000882341F09091C00095FFFCCF8093C600DD
:102F00003196F5CF80912D0590912E0520E6289FD2
:102F1000F001299FF00D1124EB5CFA4F8191882379
:102F200039F09091C00095FFFCCF8093C600F6CF9A
:102F3000E3EFF8E08491882341F09091C00095FF81
:102F4000FCCF8093C6003196F5CF8091C00085FFFD
:102F5000FCCF8AE08093C60080912D0590912E05CC
:102F6000019664E070E00E9449A090932E05809342
:102F70002D0580912B0590912C05019690932C05A1
:102F800080932B05089520912B0530912C0524303A
:102F900031050CF06AC040912D0550912E0560E678
:102FA000649F9001659F300D1124BC01C9018B5CA9
:102FB0009A4F0E946CA3EFE3F9E08491882341F0DB
:102FC0009091C00095FFFCCF8093C6003196F5CF5D
:102FD000E8EEF8E08491882341F09091C00095FFDD
:102FE000FCCF8093C6003196F5CF80912D0590914E
:102FF0002E0520E6289FF001299FF00D1124EB5C9F
:10300000FA4F8191882339F09091C00095FFFCCF51
:103010008093C600F6CFE6EEF8E08491882341F075
:103020009091C00095FFFCCF8093C6003196F5CFFC
:103030008091C00085FFFCCF8AE08093C60080911C
:103040002D0590912E05019664E070E00E9449A044
:1030500090932E0580932D0580912B0590912C0542
:10306000019690932C0580932B050895809A889A59
:10307000269A2E980895809A88980895F7DF40E957
:1030800050ED63E070E08CE894E061DBE0EEF8E0A6
:103090008491882341F09091C00095FFFCCF8093EC
:1030A000C6003196F5CF8091C00085FFFCCF8AE045
:1030B0008093C6008FE399E0FC012491222341F024
:1030C0003091C00035FFFCCF2093C6003196F5CF7C
:1030D00024B720FF14C0E8EDF8E03491332341F029
:1030E0004091C00045FFFCCF3093C6003196F5CF2C
:1030F0003091C00035FFFCCF3AE03093C60021FF8D
:1031000014C0E8ECF8E03491332341F04091C00062
:1031100045FFFCCF3093C6003196F5CF3091C0000B
:1031200035FFFCCF3AE03093C60022FF14C0E7EB36
:10313000F8E03491332341F04091C00045FFFCCFCB
:103140003093C6003196F5CF3091C00035FFFCCFEB
:103150003AE03093C60023FF14C0E7EAF8E0349168
:10316000332341F04091C00045FFFCCF3093C600AF
:103170003196F5CF3091C00035FFFCCF3AE0309367
:10318000C60025FF14C0E7E9F8E02491222341F0AE
:103190003091C00035FFFCCF2093C6003196F5CFAB
:1031A0002091C00025FFFCCF2AE02093C60014BE6A
:1031B000E0E9F8E02491222341F03091C00035FF8E
:1031C000FCCF2093C6003196F5CFEAE8F8E02491D1
:1031D000222341F03091C00035FFFCCF2093C60080
:1031E0003196F5CF2091C00025FFFCCF2AE0209337
:1031F000C600FC012491EFE3F9E0222349F030916D
:10320000C00035FFFCCF2093C60031962491F5CF46
:10321000EAE7F8E02491222341F03091C00035FF25
:10322000FCCF2093C6003196F5CFE5E6F8E0249177
:10323000222341F03091C00035FFFCCF2093C6001F
:103240003196F5CFE9E5F8E02491222341F0309161
:10325000C00035FFFCCF2093C6003196F5CFEBE4DC
:10326000F8E02491222341F03091C00035FFFCCFDB
:103270002093C6003196F5CF2091C00025FFFCCFEA
:103280002AE02093C600E0E4F8E02491222341F0F4
:103290003091C00035FFFCCF2093C6003196F5CFAA
:1032A000E4E3F8E02491222341F03091C00035FF9F
:1032B000FCCF2093C6003196F5CF2091C00025FFAA
:1032C000FCCF2AE02093C600FC018491EFE3F9E0F3
:1032D000882349F09091C00095FFFCCF8093C600F1
:1032E00031968491F5CFE5E2F8E08491882341F0AE
:1032F0009091C00095FFFCCF8093C6003196F5CF2A
:10330000B2DD4AE050E0BC018CE894E034DBEEE052
:10331000F8E08491882341F09091C00095FFFCCFA4
:103320008093C6003196F5CF4AE050E060ED74E03E
:103330008CE894E020DB8091C00085FFFCCF8AE020
:103340008093C60010923105109232051092330519
:1033500010923405DED80E949A700E94115A0E9481
:1033600092930E94EE6C0E94BD86FFEF23ED80E3F6
:10337000F15020408040E1F700C0000008958091A6
:1033800025059091260560E070E001960C94C3A09D
:1033900080912505909126054AE050E060E070E0BC
:1033A00001960C942BA2682F772767FD70952091CA
:1033B0002F053091300540E6429FC001439F900D9C
:1033C00011248B5C9A4F0E94D5A39093260580937D
:1033D000250521E0892B09F420E0822F08950E9421
:1033E0007095609321057093220580932305909337
:1033F000240508950E94709560932105709322051D
:103400008093230590932405E0912F05F0913005DA
:10341000EF5CFA4F8081811114C0E4E6F4E08491FE
:10342000882341F09091C00095FFFCCF8093C600A7
:103430003196F5CF8091C00085FFFCCF8AE0809364
:10344000C60008958CE894E0D4D9E7E6F4E08491CE
:10345000882341F09091C00095FFFCCF8093C60077
:103460003196F5CF4091BA065091BB066091BC06EB
:103470007091BD064F5F5F4F6F4F7F4F2AE030E086
:103480008CE894E055DA8091C00085FFFCCF8AE09B
:103490008093C600AFCF2F923F924F925F926F9270
:1034A0007F928F929F92AF92BF92CF92DF92EF92D4
:1034B000FF920F931F93CF93DF93CDB7DEB76E9735
:1034C0000FB6F894DEBF0FBECDBF70E6972E04E0B6
:1034D00010E0E1EDEE2EE6E0FE2EFAE08F2EA7E4FE
:1034E000CA2EA7E0DA2E7724739480910D0590916F
:1034F0000E0520910F0530911005821B930B8F77DD
:103500009927892B09F421C280912B0590912C05D4
:1035100004970CF01AC28CE894E04FD980932A05E6
:1035200020912805309129058A3061F08D3051F0C5
:103530008A3321F490912705992321F02F35310505
:103540000CF427C12115310509F441C180912D05E5
:1035500090912E05989E5001999EB00C1124F50172
:10356000E20FF31FEB5CFA4F108220912705211127
:103570000BC1FC01EF5CFA4F108295012B5C3A4FB6
:1035800019016EE470E0C9010E94D5A30097E9F12A
:103590009093260580932505821993098A0D9B1D1A
:1035A0004AE050E060E070E08A5C9A4F0E942BA2F3
:1035B0006093BE067093BF068093C0069093C106C9
:1035C0002091BA063091BB064091BC065091BD06D1
:1035D0002F5F3F4F4F4F5F4FA0902D05B0902E05AE
:1035E000621773078407950709F4F4C09A9CC00119
:1035F0009B9C900D112460EF77E08B5C9A4F0E94AA
:103600009AA3892B09F0E6C073C16AE270E0C10198
:103610000E94D5A3892B09F443C0E5E4F9E0849125
:10362000882341F09091C00095FFFCCF8093C600A5
:103630003196F5CFEAE4F7E08491882341F0909148
:10364000C00095FFFCCF8093C6003196F5CF409126
:10365000BA065091BB066091BC067091BD062AE087
:1036600030E08CE894E064D98091C00085FFFCCF05
:103670008AE08093C6001092290510922805CBC2DB
:103680008091BE069091BF06A091C006B091C10680
:103690008093BA069093BB06A093BC06B093BD0678
:1036A00080912D0590912E05989E5001999EB00C09
:1036B0001124C5018B5C9A4F1C0167E470E00E94E5
:1036C000D5A3009709F44BC0909326058093250558
:1036D000821993098A0D9B1D60E070E08A5C9A4F05
:1036E0000E94C3A00E94FA9C6430710508F037C0A4
:1036F0008091130581111AC080911E0781112FC07E
:10370000F6018491E7E4F7E0882349F09091C00046
:1037100095FFFCCF8093C60031968491F5CF8091C0
:10372000C00085FFFCCF8092C60019C0F7018491CC
:10373000E1EDF6E0882349F09091C00095FFFCCFC1
:103740008093C60031968491F5CF8091C00085FFAB
:10375000FCCF8092C60087EC96E00E944B86809159
:103760002D0590912E050196B8010E9449A09093D5
:103770002E0580932D0580912B0590912C050196A7
:1037800090932C0580932B05109229051092280503
:10379000ACCE8B3311F470922705909127059111CF
:1037A000A4CE40912D0550912E05B9016F5F7F4F3A
:1037B0007093290560932805949EF001959EF00D65
:1037C0001124E20FF31FEB5CFA4F80838ECE109230
:1037D000270521C29A9C10019B9C300C1124C10129
:1037E0008B5C9A4F5C016AE270E00E94D5A300975F
:1037F00081F5E5E4F9E08491882341F09091C000DF
:1038000095FFFCCF8093C6003196F5CFE4E7F7E053
:103810008491882341F09091C00095FFFCCF809364
:10382000C6003196F5CF4091BA065091BB06609123
:10383000BC067091BD062AE030E08CE894E078D8B0
:103840008091C00085FFFCCF8AE08093C600FADD3E
:1038500012CF20E0612CF101E20FF11DEB5CFA4F79
:1038600030813A3219F02F5F6326F5CF9093260509
:10387000809325058A199B09820D931D60E070E0F5
:103880008A5C9A4F0E94C3A00E94FA9C262D30E0C9
:103890002617370709F4F4CEE5E4F9E0849188238C
:1038A00041F09091C00095FFFCCF8093C600319607
:1038B000F5CFEEE9F7E08491882341F09091C000C4
:1038C00095FFFCCF8093C6003196F5CF4091BA06A4
:1038D0005091BB066091BC067091BD062AE030E0B5
:1038E0008CE894E025D88091C00085FFFCCFACCF58
:1038F000E5E4F9E08491882341F09091C00095FFC0
:10390000FCCF8093C6003196F5CFEDEBF7E08491C4
:10391000882341F09091C00095FFFCCF8093C600B2
:103920003196F5CF4091BA065091BB066091BC0626
:103930007091BD062AE030E08CE894E00E94981473
:103940008091C00085FFFCCF7FCF80912007882326
:1039500009F461C18091280590912905892B09F00E
:103960005AC180912B0590912C05892B11F410924E
:10397000110558EE252E53E0352E412C512C6CE3C9
:10398000C62ED12CE12CF12C8E010F5F1F4F40E68B
:10399000642E772473944091A1095091A2096091FB
:1039A000A3097091A4098091990990919A09A09115
:1039B0009B09B0919C09481759076A077B0708F0D3
:1039C0002AC180912B0590912C0504970CF023C1FE
:1039D0008091110581111FC18091F4089091F50823
:1039E000A091F608B091F7088093A1099093A209DD
:1039F000A093A309B093A4098CEE98E00E943D3CEB
:103A0000482F80932A058A30B9F04D30A9F043320F
:103A100029F420912705211103C00EC04A33C9F3B0
:103A200020912805309129052F3531052CF48F3F41
:103A3000FFEF9F0709F0D1C04091A1095091A20961
:103A40006091A3097091A4098091990990919A09B4
:103A5000A0919B09B0919C09481759076A077B07F9
:103A600008F481C0E4EBF6E08491882341F0909162
:103A7000C00095FFFCCF8093C6003196F5CF8091B2
:103A8000C00085FFFCCFFAE0F093C6000E9470955D
:103A9000609315057093160580931705909318058C
:103AA0008090190590901A05A0901B05B0901C05F8
:103AB000681979098A099B09A20191010E945CA0F9
:103AC00049015A01CA01B901A70196010E945CA0EF
:103AD000CA01B901A70196010E945CA07F936F9370
:103AE000C501B40120E13EE040E050E00E945CA04E
:103AF0003F932F93A0EAB6E0BF93AF931F930F932A
:103B00000E9404A4EFE3F9E084910FB6F894DEBFBD
:103B10000FBECDBF882349F09091C00095FFFCCF28
:103B20008093C60031968491F5CFF8018191882366
:103B300039F09091C00095FFFCCF8093C600F6CF7E
:103B40008091C00085FFFCCF3AE03093C600C801E9
:103B50000E943C868EE197E00E94F25261E08EE185
:103B600097E00E94545080912A05833211F470929C
:103B7000110520912805309129052115310509F4F9
:103B800026CE80912D0590912E05689EF001699EAC
:103B9000F00D1124E20FF31FEB5CFA4F1082FC01D1
:103BA000EF5CFA4F708220912B0530912C052F5F2E
:103BB0003F4F30932C0520932B05019664E070E075
:103BC0000E9449A090932E0580932D051092270501
:103BD0001092290510922805DECE4B3311F4709215
:103BE0002705409127054111D2CE40912D055091D6
:103BF0002E05B9016F5F7F4F7093290560932805EB
:103C0000649EF001659EF00D1124E20FF31FEB5C42
:103C1000FA4F8083C0CE6E960FB6F894DEBF0FBE0B
:103C2000CDBFDF91CF911F910F91FF90EF90DF906B
:103C3000CF90BF90AF909F908F907F906F905F904C
:103C40004F903F902F9008958F929F92AF92BF9286
:103C5000CF92DF92EF92FF920F931F93CF93DF9358
:103C6000B3E0EB2EB4E0FB2E08E017E0C6EDD6E0A3
:103C70008AE1C82E87E0D82EF70181917F0193DB7E
:103C8000882311F17CDB4B015C01F60180818111FD
:103C900003C06091B50601C061E070E080E090E093
:103CA0000E942D9DF80120813181428153810E9423
:103CB000609F9B01AC01C501B4010E94B29B688367
:103CC00079838A839B8309C0F80180819181A281D5
:103CD000B38188839983AA83BB830C5F1F4F24968B
:103CE000FFEFCF1ADF0A87E0E81684E0F80621F636
:103CF00086E459DB8823D1F042DB6B017C016093C1
:103D0000C6067093C7068093C8069093C90620E044
:103D100030E0A9010E948E9E181644F4C0920B0256
:103D2000D0920C02E0920D02F0920E02DF91CF9140
:103D30001F910F91FF90EF90DF90CF90BF90AF90C9
:103D40009F908F90089580DF89E42DDB882351F0C8
:103D500016DB6093CA067093CB068093CC069093D3
:103D6000CD0608C01092CA061092CB061092CC065F
:103D70001092CD068AE417DB882351F000DB6093B4
:103D8000CE067093CF068093D0069093D106089507
:103D90001092CE061092CF061092D0061092D10645
:103DA00008950895CF92DF92EF92FF920F931F93A1
:103DB0000E947095609321057093220580932305DE
:103DC000909324052091D6063091D7064091D806CD
:103DD0005091D906609108077091090780910A07F0
:103DE00090910B070E948B9C811179C02091DA067B
:103DF0003091DB064091DC065091DD0660910C07A6
:103E000070910D0780910E0790910F070E948B9C77
:103E1000811165C020E030E040E752E460910B0280
:103E200070910C0280910D0290910E020E94929C62
:103E300028EEC22E26E0D22E7B018C0122EE36E047
:103E40004EED56E06AED76E086ED96E00E94615A0E
:103E50008091D6069091D706A091D806B091D90648
:103E60008093080790930907A0930A07B0930B0764
:103E70008091DA069091DB06A091DC06B091DD0618
:103E800080930C0790930D07A0930E07B0930F0734
:103E90008091DE069091DF06A091E006B091E106E8
:103EA0008093100790931107A0931207B093130704
:103EB0008091E2069091E306A091E406B091E506B8
:103EC0008093140790931507A0931607B0931707D4
:103ED0001F910F91FF90EF90DF90CF900895609128
:103EE000250270912602882777FD8095982F0E94E1
:103EF0002D9D20910B0230910C0240910D025091AA
:103F00000E020E94609F20E030E040E752E40E94F1
:103F1000929C20E030E048EC52E488CFAF92BF9210
:103F2000CF92DF92EF92FF920F931F93CF93DF9385
:103F3000D82F2091CE063091CF064091D0065091D7
:103F4000D1066091CA067091CB068091CC06909103
:103F5000CD060E949B9EC62F172F082FF92E609129
:103F6000250270912602882777FD8095982F0E9460
:103F70002D9D20910B0230910C0240910D02509129
:103F80000E020E94609F20E030E040E752E40E9471
:103F9000929C20E030E048EC52E40E94929C2091F8
:103FA000E8062F93DF93FF920F931F93CF935B014C
:103FB0006C0132E0E32E01E020E04AEC56E066EDD1
:103FC00076E088E097E00E944A538091D60690916F
:103FD000D706A091D806B091D90680930807909390
:103FE0000907A0930A07B0930B078091DA06909116
:103FF000DB06A091DC06B091DD0680930C07909360
:104000000D07A0930E07B0930F078091DE069091E5
:10401000DF06A091E006B091E1068093100790932F
:104020001107A0931207B09313078091E2069091B5
:10403000E306A091E406B091E506809314079093FF
:104040001507A0931607B09317070E947095609309
:1040500021057093220580932305909324050F90EA
:104060000F900F900F900F900F90DF91CF911F91B5
:104070000F91FF90EF90DF90CF90BF90AF90089599
:10408000F8940E946071159A1092ED06179A10929A
:10409000EE06429A1092EF06A09A60E08CE00E9431
:1040A0005B97E5E4F9E08491882341F09091C000AA
:1040B00095FFFCCF8093C6003196F5CFE5E4F4E0A0
:1040C0008491882341F09091C00095FFFCCF8093AC
:1040D000C6003196F5CF8091C00085FFFCCF8AE005
:1040E0008093C6008CE394E00E945A860E943B189D
:1040F000FFCFCF92DF92EF92FF920F931F930E9418
:10410000709500911D0510911E0520911F0530919D
:104110002005C0902105D0902205E0902305F09065
:1041200024056C197D098E099F09061717072807B2
:10413000390728F4012B022B032B09F0A1DF809112
:10414000070290910802A0910902B0910A02892BFE
:104150008A2B8B2B09F10E947095009121051091FB
:1041600022052091230530912405601B710B820BE1
:10417000930B0091070210910802209109023091DF
:104180000A02061717072807390730F49091BA0B6F
:104190008091B90B981741F01F910F91FF90EF900C
:1041A000DF90CF900C94455A159A1092ED06179A0D
:1041B0001092EE06429A1092EF06A09AEDCF0E945E
:1041C000607180911305811138C081E080931305DF
:1041D0008091BA069091BB06A091BC06B091BD0635
:1041E0008093B6069093B706A093B806B093B9062D
:1041F000E5E4F9E08491882341F09091C00095FFB7
:10420000FCCF8093C6003196F5CFE6ECF3E08491C5
:10421000882341F09091C00095FFFCCF8093C600A9
:104220003196F5CF8091C00085FFFCCF8AE0809366
:10423000C6008CEB93E00C944B8608958091130597
:10424000089567707727E82FF0E0E255F74E8491E4
:1042500090E0FC013797EC30F10578F5EE58FF4F10
:104260000C949AA08091B100887F8093B1008091D6
:10427000B100862B8093B100089580919100887FD2
:104280008093910080919100862B809391000895F6
:104290008091A100887F8093A1008091A100862B4E
:1042A0008093A100089580912101887F809321014E
:1042B00080912101862B809321010895CF93DF9374
:1042C000EC018091E8068093140584E56CD8811197
:1042D00002C080E074C053D80E94FF9C6093140514
:1042E0006623B9F3EFE3F9E08491882341F09091DC
:1042F000C00095FFFCCF8093C6003196F5CFCD3638
:10430000D105B9F054F4C836D105B1F0C936D1059C
:1043100009F045C0E4E2F3E021C0CA3DD10531F027
:10432000CD3DD105E1F5EFEDF2E036C0E6EFF2E08C
:1043300029C0EDE0F3E01CC0EBE3F3E081918823BA
:1043400071F19091C00095FFFCCF8093C600F6CF2D
:104350009091C00095FFFCCF8093C60081918111A0
:10436000F7CF1DC09091C00095FFFCCF8093C60091
:1043700081918111F7CF13C09091C00095FFFCCFC0
:104380008093C60081918111F7CF09C09091C00040
:1043900095FFFCCF8093C60081918111F7CF40E05B
:1043A00050E0609114058CE894E00E94F214809132
:1043B000C00085FFFCCF8AE08093C60081E0DF91DA
:1043C000CF9108953F924F925F926F927F928F921A
:1043D0009F92AF92BF92CF92DF92EF92FF920F9394
:1043E0001F93CF93DF93CDB7DEB7E4970FB6F89462
:1043F000DEBF0FBECDBF87E40E94D319882309F426
:1044000090C30E94BF190E94FA9C64307105B1F1FB
:1044100044F46230710511F144F577FF17C00C9434
:10442000EE346A35710509F428C334F46C31710532
:1044300009F46BC00C94EE346B35710509F421C39B
:104440006C35710509F422C30C94EE348091130588
:10445000811104C0F9DBA6DC0C948436809113052D
:10446000811103C070DC81E006C0809113058111C9
:1044700005C069DC80E052DD0C94843687E996E063
:104480000E944B8680E50E94D319882339F00E9450
:10449000BF190E94FF9C4B015C0103C0812C912C31
:1044A000540183E50E94D319882361F00E94BF194B
:1044B00020E030E04AE754E40E94609F0E94FF9CA5
:1044C0004B015C010E94706D0E9470956B017C0134
:1044D000C80CD91CEA1CFB1C0E9470956093210536
:1044E0007093220580932305909324050E94709574
:1044F0006C157D058E059F0510F00C94EE340E941E
:10450000906EF7DD0E94E586F1CF80910B029091CD
:104510000C02A0910D02B0910E028093C2069093FE
:10452000C306A093C406B093C5068091250290915E
:104530002602909319078093180784E690E09093E1
:104540002602809325020E94709560932105709346
:104550002205809323059093240581E00E94B6658F
:104560008091080790910907A0910A07B0910B0765
:104570008093D6069093D706A093D806B093D90619
:1045800080910C0790910D07A0910E07B0910F0735
:104590008093DA069093DB06A093DC06B093DD06E9
:1045A0008091100790911107A0911207B091130705
:1045B0008093DE069093DF06A093E006B093E106B9
:1045C0008091140790911507A0911607B0911707D5
:1045D0008093E2069093E306A093E406B093E50689
:1045E00010920B0210920C0210920D0210920E0209
:1045F00088E50E94D319882311F090E00AC089E56C
:104600000E94D3198111F9CF8AE50E94D31991E054
:10461000982790930F0291110CC088E50E94D3193E
:10462000882309F47CC189E50E94D319882309F401
:1046300076C1109208071092090710920A0710928B
:104640000B0710920C0710920D0710920E07109294
:104650000F07E0E0F9E0149124E137E040E157E092
:104660006CE077E088E097E00E94FA638FE099E0E1
:104670000E94921520E030E040EC5FE30E94609FD2
:104680006B017C01612F772767FD7095872F972F2E
:104690000E942D9D9B01AC01C701B6010E94609F45
:1046A0006093D6067093D7068093D8069093D90668
:1046B00083E199E00E949215E1E0F9E0149120E095
:1046C00030E040EC5FE30E94609F6B017C01612F52
:1046D000772767FD7095872F972F0E942D9D9B014F
:1046E000AC01C701B6010E94609F6093DA06709327
:1046F000DB068093DC069093DD0620912702309143
:1047000028024091290250912A0220930B023093F3
:104710000C0240930D0250930E02C0902B02D090D9
:104720002C02E0902D02F0902E02C701B6010E94EB
:104730008B9C87FF08C0C0920B02D0920C02E092C3
:104740000D02F0920E028FE099E00E9492156B012B
:104750007C0183E199E00E9492159B01AC01C701A5
:10476000B6010E948E9E181614F00C94F13483E169
:1047700099E00E9492156B017C018FE099E00E9404
:1047800092159B01AC01C701B6010E94929C9B014E
:10479000AC010E94609F20E030E040E85FE30E94AF
:1047A000B29B0E94CD9F9B01AC0160910B02709166
:1047B0000C0280910D0290910E020E94609F609306
:1047C0000B0270930C0280930D0290930E0220E076
:1047D00030E040E752E460910B0270910C0280914E
:1047E0000D0290910E020E94929CE8EECE2EE6E021
:1047F000DE2E7B018C0122EE36E04EED56E06AEDB6
:1048000076E086ED96E00E94615A0E94706D80E02D
:1048100090E00E94981581E090E00E94981524E1B4
:1048200037E040E157E06CE077E088E097E00E94F5
:10483000FA638091080790910907A0910A07B09147
:104840000B078093D6069093D706A093D806B09313
:10485000D90680910C0790910D07A0910E07B09199
:104860000F078093DA069093DB06A093DC06B093E3
:10487000DD0620E030E040E752E460910B027091E9
:104880000C0280910D0290910E020E94929C7B017D
:104890008C0122EE36E04EED56E06AED76E086EDD4
:1048A00096E00E94615A10920B0210920C02109234
:1048B0000D0210920E020E94706D0E94AF658091F1
:1048C000D6069091D706A091D806B091D9068093CC
:1048D000080790930907A0930A07B0930B078091EC
:1048E000DA069091DB06A091DC06B091DD0680939C
:1048F0000C0790930D07A0930E07B0930F078091BC
:10490000DE069091DF06A091E006B091E10680936B
:10491000100790931107A0931207B093130780918B
:104920000F0281110C94FB3488E50E94D319811188
:104930000C94FB3480910F0281110C94013589E5B0
:104940000E94D31981110C94013588E50E94D31976
:104950008823D1F00E94C819672B682B692BA1F01E
:104960000E94BF192091FC063091FD064091FE0681
:104970005091FF060E94B29B60930807709309074D
:1049800080930A0790930B0789E50E94D319882327
:10499000D1F00E94C819672B682B692BA1F00E94E7
:1049A000BF192091000730910107409102075091F3
:1049B00003070E94B29B60930C0770930D078093CE
:1049C0000E0790930F0780910F0281110C94073509
:1049D0008AE50E94D31981110C9407358AE50E945B
:1049E000D3198823D1F00E94C819672B682B692B33
:1049F000A1F00E94BF192091040730910507409152
:104A00000607509107070E94B29B609310077093AE
:104A10001107809312079093130724E137E040E1D8
:104A200057E06CE077E088E097E00E94FA638091BD
:104A3000C2069091C306A091C406B091C5068093AA
:104A40000B0290930C02A0930D02B0930E02809182
:104A500018079091190790932602809325020E94CF
:104A600070956093210570932205809323059093A0
:104A700024050E94AF650C94EE341092B5060C9498
:104A8000EE3481E08093B5060C94EE3485E40E9408
:104A9000D319811102C00E94706D53E0C52E54E0FD
:104AA000D52E6CEFE62E66E0F62E08E017E0B12C6E
:104AB000F60181916F010E94D319882339F1F3E047
:104AC000BF120CC00E94BF19F801608371838283FA
:104AD000938384E197E00E949F6418C00E94BF19ED
:104AE000F70120813181428153810E94B29BF801FC
:104AF000608371838283938324E137E040E157E050
:104B00006CE077E088E097E00E94FA63B394F4E009
:104B1000EF0EF11C0C5F1F4F24E0B212C9CF0C94B2
:104B2000EE348DE40E94D319882311F40C941D34C3
:104B30000E94BF190E94FA9C6D36710509F4FFC4EA
:104B40000CF0ABC06E31710509F457C20CF046C0D1
:104B50006631710509F4E2C1BCF46131710509F4F3
:104B60009FC134F46230710508F440C10C94EE34F6
:104B70006431710509F49EC10CF0CAC1623171053E
:104B800009F4A3C50C94EE346931710509F4E5C14B
:104B9000CCF46731710509F4C7C16831710511F0B2
:104BA0000C94EE348EE197E00E94D64A0E947095F4
:104BB0006093190570931A0580931B0590931C054B
:104BC0000C94EE346B31710509F4DBC10CF4CBC1EC
:104BD0006C31710509F4DBC10C94EE346335710559
:104BE00009F46EC54CF56A32710509F441C354F4F9
:104BF0006F31710509F4DEC26032710509F43CC2FF
:104C00000C94EE346135710509F437C50CF054C5C8
:104C10006035710511F00C94EE34269A2E98809A26
:104C2000889A81E0809310028DEE95E00E944B8679
:104C30000E94E5860C94EE346836710509F443C38E
:104C4000DCF46535710509F478C50CF43EC56C35A6
:104C5000710511F00C94EE3423E034E038AB2FA74B
:104C60000BEE10E15BEF852E50E1952E6FEAA62E3C
:104C700060E1B62E312CD9C56A36710509F4CDC470
:104C80000CF450C36B36710511F00C94EE34109295
:104C9000E7061092E6060C94EE346D3D710511F4B2
:104CA0000C947B2F0CF04BC06C38710509F429C3B0
:104CB0000CF56537710509F4D6C564F462377105E2
:104CC00009F4E6C56337710511F00C94EE34E8E1A0
:104CD000F5E0C4C56837710509F4B9C669377105CF
:104CE00009F4B9C66737710511F00C94EE34E1E6AA
:104CF000F3E0BBC66C3C710511F40C94D22E84F425
:104D0000693C710511F40C94962E6B3C710511F4FD
:104D10000C94B62E683C710511F00C94EE348EC7DD
:104D20006E3C710511F40C94502F14F40C94F22E77
:104D30006C3D710511F40C946C2F0C94EE34643FAF
:104D400031E0730711F40C940E312CF56D3291E0C3
:104D5000790711F40C94023064F4623E710511F489
:104D60000C94A12F6C32714011F40C94CC2F0C9444
:104D7000EE346F3221E0720711F40C94D63014F443
:104D80000C94C8306039714011F00C94EE340E94DC
:104D9000706D0C94EE34683592E0790711F40C9440
:104DA000EC3194F4663FF1E07F0711F40C94143178
:104DB00014F40C941131673F714011F00C94EE34EF
:104DC0000E94650E0C94EE34603A83E0780709F493
:104DD000BDC1673E93E0790711F40C940634633546
:104DE000734011F00C94EE340C94173186E896E081
:104DF0000E944B8680E50E94D319882339F00E94D7
:104E0000BF190E94FF9C6B017C0103C0C12CD12CF7
:104E1000760183E50E94D319882361F00E94BF19AF
:104E200020E030E04AE754E40E94609F0E94FF9C2B
:104E30006B017C010E94706D0E947095609321054A
:104E4000709322058093230590932405C114D10407
:104E5000E104F104A9F00E9470954B015C018C0CF7
:104E60009D1CAE1CBF1C0E947095681579058A05B3
:104E70009B0580F40E94A78781110CC00C940D350E
:104E80000E94A787811106C00E94906E32D90E94AD
:104E9000E586F6CF87E796E00E944B860C94EE34C9
:104EA0008EE696E00E944B86159817984298A09837
:104EB0000C94EE34EEE5F6E08491882341F0909175
:104EC000C00095FFFCCF8093C6003196F5CF80914E
:104ED000C00085FFFCCF8AE08093C6008EE197E09A
:104EE0000E94B749E0E5F6E08491882341F0909173
:104EF000C00095FFFCCF8093C6003196F5CF80911E
:104F0000C00085FFFCCF8AE08093C6000C94EE348D
:104F10008EE197E00E940E4A0C94EE348EE197E009
:104F20000E94D24A0C94EE3400912505109126057A
:104F30000C5F1F4F6AE270E0C8010E94D5A3009782
:104F400019F0FC013197108221E041E0B8018EE1B7
:104F500097E00E94414B0C94EE348EE197E00E9462
:104F6000DD4A0C94EE3480912107882311F40C94CF
:104F7000EE3483E50E94D31981110C9415350C94FD
:104F8000EE348EE197E00E948E4F0C94EE348091C7
:104F90002505909126056AE270E004960E94D5A34B
:104FA0008C010097E1F020912F053091300540E60B
:104FB000429FC001439F900D11246EE470E08B5C12
:104FC0009A4F0E94D5A360E270E00E94D5A301969B
:104FD0009093260580932505F80131971082609102
:104FE0002505709126056C5F7F4F21E040E08EE142
:104FF00097E00E94414B0C94EE3480912107882366
:1050000011F40C94EE3460E08EE197E00E94485178
:1050100080912505909126056AE270E004960E9431
:10502000D5A38C010097E1F020912F053091300538
:1050300040E6429FC001439F900D11246EE470E052
:105040008B5C9A4F0E94D5A360E270E00E94D5A3CA
:1050500001969093260580932505F80131971082DB
:1050600060912505709126056C5F7F4F8EE197E07A
:105070000E94554E0C94EE348091200781110E94BD
:10508000706D00912505109126050C5F1F4F6AE297
:1050900070E0C8010E94D5A37C0161E270E0C80104
:1050A0000E94D5A3009719F08C010F5F1F4FE114E8
:1050B000F10419F0F7013197108280E50E94D319AD
:1050C000F82E20912505309126050217130708F4C4
:1050D000F12C80912107882311F40C94EE3421E007
:1050E0002F2541E0B8018EE197E00E94414B83E516
:1050F0000E94D3198823B9F0209125053091260507
:105100002017310780F40E94C819AB01BC014093FD
:10511000A1095093A2096093A3097093A4098CEE8E
:1051200098E00E94A33D8EE197E00E94D64AF110DC
:105130000C94EE340E9470956093190570931A05D3
:1051400080931B0590931C050C94EE3480912505EB
:10515000909126056AE270E005960E94D5A38C0125
:105160000097E1F020912F053091300540E6429FF5
:10517000C001439F900D11246EE470E08B5C9A4F48
:105180000E94D5A360E270E00E94D5A3019690939F
:10519000260580932505F801319710826091250539
:1051A000709126056B5F7F4F8EE197E00E94504E15
:1051B0000C94EE340E94709560931505709316055B
:1051C00080931705909318050091190510911A0501
:1051D00020911B0530911C05601B710B820B930BFA
:1051E00028EE33E040E050E00E945CA0CA01B90123
:1051F0002CE330E040E050E00E945CA07F936F938E
:105200003F932F9381E496E09F938F93CE01019675
:105210009F938F930E9404A4EFE3F9E084910FB66B
:10522000F894DEBF0FBECDBF882349F09091C00037
:1052300095FFFCCF8093C60031968491F5CFFE0197
:1052400031968191882339F09091C00095FFFCCF71
:105250008093C600F6CF8091C00085FFFCCF8AE026
:105260008093C600CE0101960E943C860C94EE34D9
:1052700083E50E94D319882311F40C94EE340E9424
:10528000BF196B017C0180E50E94D319882351F07E
:10529000C701B6010E94FA9C6F3F710509F010F436
:1052A0000C9426356DE070E020E0E22FEE0FFF0B4E
:1052B000E553FC4F808191818617970711F40C9478
:1052C000EE342F5FF2CF88E690E00E945E218111DC
:1052D0000C94EE3483E50E94D319882371F0009179
:1052E00014050E94BF1910E0000F111F03551E4E38
:1052F0000E94FA9CF801718360830E9425710C94CE
:10530000EE3483E50E94D319882311F40C94EE3413
:105310000E94BF190E94FA9C7093AC116093AB116C
:105320000C94EE3489E690E00E945E2181110C9489
:10533000EE34EBE3F6E08491882341F09091C000D5
:1053400095FFFCCF8093C6003196F5CFE091140510
:1053500024E0E29FF0011124EB55FE4E4081518183
:105360006281738121E030E08CE894E00E94911525
:10537000E8E3F6E08491882341F09091C00095FF26
:10538000FCCF8093C6003196F5CFE0911405F0E094
:10539000EE0FFF1FE355FE4E60817181882777FD78
:1053A0008095982F0E942D9DAB01BC0121E030E03B
:1053B0008CE894E00E949115E4E3F6E08491882360
:1053C00041F09091C00095FFFCCF8093C6003196CC
:1053D000F5CF40919F115091A0116091A111709152
:1053E000A21121E030E08CE894E00E949115E1E305
:1053F000F6E08491882341F09091C00095FFFCCFA6
:105400008093C6003196F5CF6091AB117091AC11CD
:10541000882777FD8095982F0E942D9DAB01BC01B8
:1054200021E030E08CE894E00E949115EEE2F6E095
:105430008491882341F09091C00095FFFCCF809328
:10544000C6003196F5CF4AE050E060E070E08CE8AD
:1054500094E00E94BB14ECE2F6E08491882341F0D2
:105460009091C00095FFFCCF8093C6003196F5CF98
:105470004091A5115091A6116091A7117091A811AA
:1054800021E030E08CE894E00E949115E9E2F6E03A
:105490008491882341F09091C00095FFFCCF8093C8
:1054A000C6003196F5CF6091AD117091AE1188278D
:1054B00077FD8095982F0E942D9DAB01BC0121E0C6
:1054C00030E08CE894E00E949115E5E2F6E08491EA
:1054D000882341F09091C00095FFFCCF8093C600D7
:1054E0003196F5CF8091140590E00E94856E4AE0D8
:1054F00050E0BC018CE894E00E94BB14E0E2F6E0CE
:105500008491882341F09091C00095FFFCCF809357
:10551000C6003196F5CF8FEF9FEF0E94856E4AE06F
:1055200050E0BC018CE894E00E94BB148091C00064
:1055300085FFFCCF8AE08093C6000C9484368DE60C
:1055400090E00E945E2181110C94EE3485E196E09A
:105550000E944B8683E50E94D319882391F0009125
:1055600014050E94BF1910E0000F111F03551E4EB5
:105570000E94FA9CF8017183608381E080930602A7
:1055800015C082E50E94D319882381F0009114058B
:105590000E94BF1910E0000F111F03551E4E0E94FC
:1055A000FA9CF80171836083109206020E942571B3
:1055B0000E9470954B015C010091140510E0F80108
:1055C000EE0FFF1FE355FE4E60817181882777FD46
:1055D0008095982F0E942D9DF801EE0FFF1FEE0F72
:1055E000FF1FEB55FE4E11E0208131814281538136
:1055F0000E948E9E18160CF010E010931205CC2419
:10560000CA94DC2C760138EE432E33E0532E612C05
:10561000712C4AE0342E0C94893583E50E94D3190D
:10562000882319F10E94BF1920E030E0A9010E94EF
:105630008B9C87FD0FC00E94BF1920E030E04FE730
:1056400053E40E948E9E181644F00E94BF190E94D7
:10565000FA9C05C060E070E002C06FEF70E07093EC
:10566000E7066093E6060C94EE348FEF90E090939B
:10567000E7068093E6060C94EE340E9460710E9467
:10568000706DA09A0E94D86D1092E7061092E606FF
:1056900068EE73E080E090E00E949F950E94706D3C
:1056A0000E943B181092100280EE95E00E944B86FB
:1056B0000E94E5860C94EE3410921D070C94EE3493
:1056C00081E080931D070C94EE3483E50E94D3198A
:1056D0008823A1F00E94BF1920E030E04AE754E49B
:1056E0000E94609F0E94FF9C6093070270930802D3
:1056F0008093090290930A020C94EE3488E50E948C
:10570000D31981110C94623689E50E94D319811155
:105710000C9462368AE50E94D31981110C9462368A
:1057200085E40E94D31981110C9462360E94706D39
:10573000A09A0E94D86D0C94EE3483E50E94D31990
:105740000E94BF1920E030E04AE754E40E94609FC5
:105750000E94FF9C60931D0570931E0580931F059A
:10576000909320050C94EE34F3E03F1268C00E9441
:10577000BF196B017C0120E030E040EA51E40E9457
:105780008B9C87FF3FC0A7019601F8016081718162
:10579000828193810E94929C2B013C019B01AC0170
:1057A0006091C3107091C4108091C5109091C61083
:1057B0000E94609F6093C3107093C4108093C510C3
:1057C0009093C610A3019201F401608171818281DE
:1057D00093810E94609FF40160837183828393832D
:1057E000F50160817181828193810E942B9DA301CB
:1057F00092010E94609F0E94FF9CF501608371836B
:1058000082839383F801C082D182E282F38233944F
:105810000C5F1F4FF4E08F0E911C24E0A20EB11C10
:1058200034E0331611F40C94EE34EFA5F8A981910D
:10583000F8ABEFA70E94D319882349F395CF0E94B4
:10584000BF19F8016083718382839383E0CF9091C5
:10585000C00095FFFCCF8093C600319684918111E2
:10586000F6CF0C94EE3400912505109126050B5FC0
:105870001F4F6AE270E0C8010E94D5A3009719F09B
:10588000FC0131971082C8010E943C860C94EE34D2
:10589000E5E1F5E08491882341F09091C00095FF07
:1058A000FCCF8093C6003196F5CF40910807509108
:1058B000090760910A0770910B0722E030E08CE83D
:1058C00094E00E949115E1E1F5E08491882341F094
:1058D0009091C00095FFFCCF8093C6003196F5CF24
:1058E00040910C0750910D0760910E0770910F07C2
:1058F00022E030E08CE894E00E949115EDE0F5E0C4
:105900008491882341F09091C00095FFFCCF809353
:10591000C6003196F5CF4091100750911107609164
:1059200012077091130722E030E08CE894E00E94A7
:105930009115E9E0F5E08491882341F09091C00051
:1059400095FFFCCF8093C6003196F5CF40911407A8
:1059500050911507609116077091170722E030E00B
:105960008CE894E00E949115EEEFF4E08491882396
:1059700041F09091C00095FFFCCF8093C600319616
:10598000F5CF0E94CA6D0E942D9D2091EB103091A1
:10599000EC104091ED105091EE100E94929CAB01E2
:1059A000BC0122E030E08CE894E00E949115EAEF1F
:1059B000F4E08491882341F09091C00095FFFCCFE2
:1059C0008093C6003196F5CF81E00E94CA6D0E9497
:1059D0002D9D2091EF103091F0104091F1105091D9
:1059E000F2100E94929CAB01BC0122E030E08CE8F6
:1059F00094E00E949115E6EFF4E08491882341F051
:105A00009091C00095FFFCCF8093C6003196F5CFF2
:105A100082E00E94CA6D0E942D9D2091F31030916A
:105A2000F4104091F5105091F6100E94929CAB0139
:105A3000BC0122E030E08CE894E00E949115809156
:105A4000C00085FFFCCF8AE08093C600C7C780E016
:105A50000E94B665C3C781E00E94B665BFC790913A
:105A6000C00095FFFCCF8093C60081918111F7CFD4
:105A70008091C00085FFFCCF8AE08093C600EEEEE7
:105A8000F4E08491882341F09091C00095FFFCCF11
:105A90008093C6003196F5CF009903C0E2E5F3E0AC
:105AA00009C0ECE5F3E006C09091C00095FFFCCF83
:105AB0008093C60081918111F7CF8091C00085FF4E
:105AC000FCCF8AE08093C600E6EEF4E08491882360
:105AD00041F09091C00095FFFCCF8093C6003196B5
